{"contracts/NutriGuard.sol":{"NutriGuard":{"abi":[{"inputs":[],"stateMutability":"nonpayable","type":"constructor"},{"inputs":[{"internalType":"address","name":"owner","type":"address"}],"name":"OwnableInvalidOwner","type":"error"},{"inputs":[{"internalType":"address","name":"account","type":"address"}],"name":"OwnableUnauthorizedAccount","type":"error"},{"inputs":[],"name":"ReentrancyGuardReentrantCall","type":"error"},{"anonymous":false,"inputs":[{"indexed":true,"internalType":"uint256","name":"ingredientId","type":"uint256"},{"indexed":true,"internalType":"address","name":"merchant","type":"address"},{"indexed":false,"internalType":"string","name":"name","type":"string"}],"name":"IngredientRegistered","type":"event"},{"anonymous":false,"inputs":[{"indexed":true,"internalType":"address","name":"previousOwner","type":"address"},{"indexed":true,"internalType":"address","name":"newOwner","type":"address"}],"name":"OwnershipTransferred","type":"event"},{"anonymous":false,"inputs":[{"indexed":true,"internalType":"uint256","name":"productId","type":"uint256"},{"indexed":true,"internalType":"address","name":"merchant","type":"address"},{"indexed":false,"internalType":"uint256[]","name":"ingredientIds","type":"uint256[]"}],"name":"ProductCreated","type":"event"},{"anonymous":false,"inputs":[{"indexed":true,"internalType":"uint256","name":"productId","type":"uint256"},{"indexed":true,"internalType":"address","name":"verifier","type":"address"},{"indexed":false,"internalType":"uint256","name":"timestamp","type":"uint256"}],"name":"ProductVerified","type":"event"},{"anonymous":false,"inputs":[{"indexed":true,"internalType":"uint256","name":"ingredientId","type":"uint256"},{"indexed":false,"internalType":"string","name":"reason","type":"string"},{"indexed":false,"internalType":"uint256","name":"timestamp","type":"uint256"}],"name":"RecallInitiated","type":"event"},{"inputs":[{"internalType":"string","name":"_name","type":"string"},{"internalType":"enum NutriGuard.ProductCategory","name":"_category","type":"uint8"},{"internalType":"uint256[]","name":"_ingredientIds","type":"uint256[]"},{"internalType":"uint256","name":"_phValue","type":"uint256"},{"internalType":"string","name":"_qrCodeHash","type":"string"},{"internalType":"string","name":"_ipfsHash","type":"string"}],"name":"createProduct","outputs":[{"internalType":"uint256","name":"","type":"uint256"}],"stateMutability":"nonpayable","type":"function"},{"inputs":[{"internalType":"uint256","name":"_ingredientId","type":"uint256"}],"name":"getAffectedProducts","outputs":[{"internalType":"uint256[]","name":"","type":"uint256[]"}],"stateMutability":"view","type":"function"},{"inputs":[{"internalType":"uint256","name":"_ingredientId","type":"uint256"}],"name":"getIngredientInfo","outputs":[{"internalType":"uint256","name":"id","type":"uint256"},{"internalType":"string","name":"name","type":"string"},{"internalType":"string","name":"category","type":"string"},{"internalType":"address","name":"merchant","type":"address"},{"internalType":"uint256","name":"createdAt","type":"uint256"},{"internalType":"bool","name":"isRecalled","type":"bool"},{"internalType":"int256","name":"minTemp","type":"int256"},{"internalType":"int256","name":"maxTemp","type":"int256"},{"internalType":"uint256","name":"minHumidity","type":"uint256"},{"internalType":"uint256","name":"maxHumidity","type":"uint256"},{"internalType":"uint256","name":"weight","type":"uint256"},{"internalType":"uint256","name":"expiryDate","type":"uint256"},{"internalType":"string","name":"batchNumber","type":"string"},{"internalType":"string","name":"ipfsHash","type":"string"}],"stateMutability":"view","type":"function"},{"inputs":[{"internalType":"uint256","name":"_productId","type":"uint256"}],"name":"getProductInfo","outputs":[{"internalType":"uint256","name":"id","type":"uint256"},{"internalType":"string","name":"name","type":"string"},{"internalType":"enum NutriGuard.ProductCategory","name":"category","type":"uint8"},{"internalType":"address","name":"merchant","type":"address"},{"internalType":"uint256[]","name":"ingredientIds","type":"uint256[]"},{"internalType":"uint256","name":"createdAt","type":"uint256"},{"internalType":"bool","name":"isValid","type":"bool"},{"internalType":"uint256","name":"phValue","type":"uint256"},{"internalType":"string","name":"qrCodeHash","type":"string"},{"internalType":"string","name":"ipfsHash","type":"string"}],"stateMutability":"view","type":"function"},{"inputs":[{"internalType":"address","name":"_user","type":"address"}],"name":"getUserRole","outputs":[{"internalType":"enum NutriGuard.UserRole","name":"","type":"uint8"}],"stateMutability":"view","type":"function"},{"inputs":[],"name":"ingredientCounter","outputs":[{"internalType":"uint256","name":"","type":"uint256"}],"stateMutability":"view","type":"function"},{"inputs":[{"internalType":"uint256","name":"","type":"uint256"}],"name":"ingredients","outputs":[{"internalType":"uint256","name":"id","type":"uint256"},{"internalType":"string","name":"name","type":"string"},{"internalType":"string","name":"category","type":"string"},{"internalType":"address","name":"merchant","type":"address"},{"internalType":"uint256","name":"createdAt","type":"uint256"},{"internalType":"bool","name":"isRecalled","type":"bool"},{"components":[{"internalType":"int256","name":"minTemperature","type":"int256"},{"internalType":"int256","name":"maxTemperature","type":"int256"},{"internalType":"uint256","name":"minHumidity","type":"uint256"},{"internalType":"uint256","name":"maxHumidity","type":"uint256"}],"internalType":"struct NutriGuard.StorageEnvironment","name":"storageEnv","type":"tuple"},{"internalType":"uint256","name":"weight","type":"uint256"},{"internalType":"uint256","name":"expiryDate","type":"uint256"},{"internalType":"string","name":"batchNumber","type":"string"},{"internalType":"string","name":"ipfsHash","type":"string"}],"stateMutability":"view","type":"function"},{"inputs":[{"internalType":"uint256","name":"_ingredientId","type":"uint256"},{"internalType":"string","name":"_reason","type":"string"}],"name":"initiateRecall","outputs":[],"stateMutability":"nonpayable","type":"function"},{"inputs":[{"internalType":"address","name":"_user","type":"address"}],"name":"isUserRegistered","outputs":[{"internalType":"bool","name":"","type":"bool"}],"stateMutability":"view","type":"function"},{"inputs":[],"name":"owner","outputs":[{"internalType":"address","name":"","type":"address"}],"stateMutability":"view","type":"function"},{"inputs":[],"name":"productCounter","outputs":[{"internalType":"uint256","name":"","type":"uint256"}],"stateMutability":"view","type":"function"},{"inputs":[{"internalType":"uint256","name":"","type":"uint256"}],"name":"products","outputs":[{"internalType":"uint256","name":"id","type":"uint256"},{"internalType":"string","name":"name","type":"string"},{"internalType":"enum NutriGuard.ProductCategory","name":"category","type":"uint8"},{"internalType":"address","name":"merchant","type":"address"},{"internalType":"uint256","name":"createdAt","type":"uint256"},{"internalType":"bool","name":"isValid","type":"bool"},{"internalType":"uint256","name":"phValue","type":"uint256"},{"internalType":"string","name":"qrCodeHash","type":"string"},{"internalType":"string","name":"ipfsHash","type":"string"}],"stateMutability":"view","type":"function"},{"inputs":[{"internalType":"string","name":"_name","type":"string"},{"internalType":"string","name":"_category","type":"string"},{"internalType":"int256","name":"_minTemp","type":"int256"},{"internalType":"int256","name":"_maxTemp","type":"int256"},{"internalType":"uint256","name":"_minHumidity","type":"uint256"},{"internalType":"uint256","name":"_maxHumidity","type":"uint256"},{"internalType":"uint256","name":"_weight","type":"uint256"},{"internalType":"uint256","name":"_expiryDate","type":"uint256"},{"internalType":"string","name":"_batchNumber","type":"string"},{"internalType":"string","name":"_ipfsHash","type":"string"}],"name":"registerIngredient","outputs":[{"internalType":"uint256","name":"","type":"uint256"}],"stateMutability":"nonpayable","type":"function"},{"inputs":[{"internalType":"enum NutriGuard.UserRole","name":"_role","type":"uint8"}],"name":"registerUser","outputs":[],"stateMutability":"nonpayable","type":"function"},{"inputs":[{"internalType":"address","name":"","type":"address"}],"name":"registeredUsers","outputs":[{"internalType":"bool","name":"","type":"bool"}],"stateMutability":"view","type":"function"},{"inputs":[],"name":"renounceOwnership","outputs":[],"stateMutability":"nonpayable","type":"function"},{"inputs":[{"internalType":"address","name":"newOwner","type":"address"}],"name":"transferOwnership","outputs":[],"stateMutability":"nonpayable","type":"function"},{"inputs":[{"internalType":"address","name":"","type":"address"}],"name":"userRoles","outputs":[{"internalType":"enum NutriGuard.UserRole","name":"","type":"uint8"}],"stateMutability":"view","type":"function"},{"inputs":[{"internalType":"uint256","name":"_productId","type":"uint256"}],"name":"verifyProduct","outputs":[{"internalType":"bool","name":"","type":"bool"}],"stateMutability":"nonpayable","type":"function"}],"evm":{"bytecode":{"linkReferences":{},"object":"60808060405234607957331560635760008054336001600160a01b0319821681178355916001600160a01b03909116907f8be0079c531659141344cd1fd0a4f28419497f9722a3daafe3b4186f6b6457e09080a360018055611f53908161007f8239f35b631e4fbdf760e01b600052600060045260246000fd5b600080fdfe608080604052600436101561001357600080fd5b60003560e01c90816302b8c8cd14611a65575080630e50cee514611a22578063163f752214611a225780631f16653b14611a04578063278208511461196c5780632d165382146118385780634383b5c214611032578063524e846214610f50578063715018a614610ef757806374d5e10014610eb157806379a85e6c14610d595780637acc0b2014610c845780638da5cb5b14610c5b57806394ddda00146105615780639a8c75f5146103f0578063bf18e0f6146102e2578063c5c0c5a9146102c4578063cf770e16146101825763f2fde38b146100f057600080fd5b3461017d57602036600319011261017d576004356001600160a01b0381169081900361017d5761011e611ef4565b801561016757600080546001600160a01b03198116831782556001600160a01b0316907f8be0079c531659141344cd1fd0a4f28419497f9722a3daafe3b4186f6b6457e09080a3005b631e4fbdf760e01b600052600060045260246000fd5b600080fd5b3461017d57602036600319011261017d57600435801515806102b8575b6101a890611e76565b600052600260205260406000208054600160a01b6001900360038301541691600481015490600581015460ff1693600682015460078301546008840154600985015490600a86015492600b870154946001880161020490611b9c565b9a61021160028a01611b9c565b9961021e600c8b01611b9c565b99600d0161022b90611b9c565b9a6040519d8e9d8e528d602081016101c090526101c00161024b91611c40565b8d810360408f015261025c91611c40565b9860608d015260808c0152151560a08b015260c08a015260e08901526101008801526101208701526101408601526101608501528381036101808501526102a291611c40565b8281036101a08401526102b491611c40565b0390f35b5060065481111561019f565b3461017d57600036600319011261017d576020600654604051908152f35b3461017d57602036600319011261017d57600435801515806103e4575b61030890611e76565b60075461031481611ec2565b9160009160015b8181111561036f5750505061032f81611ec2565b9160005b82811061035057604051602080825281906102b490820187611cfb565b8061035d60019284611db3565b516103688287611db3565b5201610333565b80600052600360205260406000206003600091018054915b8281106103a0575b50505061039b90611ddd565b61031b565b856103ab8284611e5e565b90549060031b1c146103bf57600101610387565b505050926103db81856103d561039b9489611db3565b52611ddd565b9390868061038f565b506006548111156102ff565b3461017d57604036600319011261017d576004356024356001600160401b03811161017d57610423903690600401611c81565b33600052600560205260ff6040600020541680610527575b61044490611d2f565b8115158061051b575b61045690611e76565b8160005260026020523360018060a01b0360036040600020015416036104d6576104cb7fdf0bbce374b20f3680002da1ecdfedb59f3b86436350b189779a215c75137d55918360005260026020526005604060002001600160ff19825416179055604051918291604083526040830190611c40565b4260208301520390a2005b60405162461bcd60e51b815260206004820152601f60248201527f43616e206f6e6c7920726563616c6c206f776e20696e6772656469656e7473006044820152606490fd5b5060065482111561044d565b5033600052600460205260ff60406000205416600281101561054b5760011461043b565b634e487b7160e01b600052602160045260246000fd5b3461017d5761014036600319011261017d576004356001600160401b03811161017d57610592903690600401611c81565b6024356001600160401b03811161017d576105b1903690600401611c81565b606435916044359160843560e43560c43560a435610104356001600160401b03811161017d576105e5903690600401611c81565b93610124356001600160401b03811161017d57610606903690600401611c81565b9833600052600560205260ff6040600020541680610c37575b61062890611d2f565b61063488511515611d74565b808913610bf257828211610bb4578315610b6f5742851115610b205761065b600654611ddd565b98896006558960005260026020526040600020978a8955600189018a516001600160401b03811161091b576106908254611b26565b601f8111610aee575b50806020601f8211600114610a8657600091610a7b575b508160011b916000199060031b1c19161790555b805160028a01916001600160401b03821161091b5781906106e58454611b26565b601f8111610a49575b50602090601f83116001146109e4576000926109d9575b50508160011b916000199060031b1c19161790555b6003880180546001600160a01b0319163317905542600489015560058801805460ff19169055604051849060609061075181611b60565b83815284602082015285604082015201526006880155600787015560088601556009850155600a840155600b830155600c8201908051906001600160401b03821161091b576107a08354611b26565b601f81116109a7575b50602090601f831160011461093c57600d9493929160009183610931575b50508160011b916000199060031b1c19161790555b0183516001600160401b03811161091b57806020956107fb8454611b26565b601f81116108e0575b508690601f831160011461087c57600092610871575b50508160011b916000199060031b1c19161790555b817f8ca3d88988593c02bd540d3405434fc5dae39feecb7f22415f00c869fe875cc160405185815280610866339588830190611c40565b0390a3604051908152f35b01519050868061081a565b60008581528281209350601f198516905b8181106108c957509084600195949392106108b0575b505050811b01905561082f565b015160001960f88460031b161c191690558680806108a3565b92938960018192878601518155019501930161088d565b61090b908560005288600020601f850160051c8101918a8610610911575b601f0160051c0190611e02565b87610804565b90915081906108fe565b634e487b7160e01b600052604160045260246000fd5b0151905088806107c7565b90601f1983169184600052816000209260005b81811061098f5750916001939185600d9897969410610976575b505050811b0190556107dc565b015160001960f88460031b161c19169055888080610969565b9293602060018192878601518155019501930161094f565b6109d390846000526020600020601f850160051c8101916020861061091157601f0160051c0190611e02565b876107a9565b015190508e80610705565b60008581528281209350601f198516905b818110610a315750908460019594939210610a18575b505050811b01905561071a565b015160001960f88460031b161c191690558e8080610a0b565b929360206001819287860151815501950193016109f5565b610a7590856000526020600020601f850160051c8101916020861061091157601f0160051c0190611e02565b8f6106ee565b90508c01518f6106b0565b8d9250601f1982169084600052806000209160005b818110610ad45750938360019510610abb575b505050811b0190556106c4565b015160001960f88460031b161c191690558f808e610aae565b9482015183558f9460019093019260209283019201610a9b565b610b1a90836000526020600020601f840160051c8101916020851061091157601f0160051c0190611e02565b8e610699565b60405162461bcd60e51b815260206004820152602160248201527f4578706972792064617465206d75737420626520696e207468652066757475726044820152606560f81b6064820152608490fd5b60405162461bcd60e51b815260206004820152601d60248201527f576569676874206d7573742062652067726561746572207468616e20300000006044820152606490fd5b60405162461bcd60e51b8152602060048201526016602482015275496e76616c69642068756d69646974792072616e676560501b6044820152606490fd5b60405162461bcd60e51b815260206004820152601960248201527f496e76616c69642074656d70657261747572652072616e6765000000000000006044820152606490fd5b5033600052600460205260ff60406000205416600281101561054b5760011461061f565b3461017d57600036600319011261017d576000546040516001600160a01b039091168152602090f35b3461017d57602036600319011261017d576004356000526003602052604060002080546102b4610cb660018401611b9c565b92610d4a600282015460048301549260ff600582015416600682015490610ceb6008610ce460078601611b9c565b9401611b9c565b95610d0a6040519a8b9a8b5261012060208c01526101208b0190611c40565b94610d1b60408b0160ff8316611cee565b60081c6001600160a01b031660608a01526080890152151560a088015260c087015285820360e0870152611c40565b90838203610100850152611c40565b3461017d57602036600319011261017d5760043580151580610ea5575b610d7f90611e19565b6000526003602052604060002080546002820154600383019260048101549060ff600582015416600682015490610db860018401611b9c565b946040518060208a5491828152019960005260206000209060005b818110610e8f5750505091610e606102b49796949284610dfb610e80989660209d0382611b7b565b610e31610e166008610e0f60078a01611b9c565b9801611b9c565b996101406040519e8f9e8f90815201526101408d0190611c40565b91610e4260408d0160ff8316611cee565b60081c6001600160a01b031660608c01528a820360808c0152611cfb565b9360a0890152151560c088015260e0870152858203610100870152611c40565b90838203610120850152611c40565b82548c526020909b019a60019283019201610dd3565b50600754811115610d76565b3461017d57602036600319011261017d576004356001600160a01b0381169081900361017d5760005260046020526102b460ff6040600020541660405191829182611b13565b3461017d57600036600319011261017d57610f10611ef4565b600080546001600160a01b0319811682556001600160a01b03167f8be0079c531659141344cd1fd0a4f28419497f9722a3daafe3b4186f6b6457e08280a3005b3461017d57602036600319011261017d5760043580151580611026575b610f7690611e19565b806000526003602052604060002060009160038201925b835481101561101657610fa08185611e5e565b90549060031b1c600052600260205260ff60056040600020015416610fc757600101610f8d565b5060209250816005918260ff9401841981541690555b604051904282527fa913def5e0a2f15c60fa63fe23979256a1ff8d6d893238336fa0683b9951266d863393a30154166040519015158152f35b506020925060ff91600591610fdd565b50600754811115610f6d565b3461017d5760c036600319011261017d576004356001600160401b03811161017d57611062903690600401611c81565b60243590600382101561017d57604435906001600160401b03821161017d573660238301121561017d5781600401359161109b83611cd7565b926110a96040519485611b7b565b8084526024602085019160051b8301019136831161017d57602401905b828210611828575050506064356084356001600160401b03811161017d576110f2903690600401611c81565b9160a4356001600160401b03811161017d57611112903690600401611c81565b33600052600560205260ff6040600020541680611804575b61113390611d2f565b61113f82511515611d74565b8451156117ad57600654939560005b865181101561128457856111628289611db3565b5111611247576111728188611db3565b51600052600260205260ff60056040600020015416611202576111958188611db3565b5160005260026020523360018060a01b0360036040600020015416036111bd5760010161114e565b60405162461bcd60e51b815260206004820152601c60248201527f43616e206f6e6c7920757365206f776e20696e6772656469656e7473000000006044820152606490fd5b60405162461bcd60e51b815260206004820152601e60248201527f43616e6e6f742075736520726563616c6c656420696e6772656469656e7400006044820152606490fd5b60405162461bcd60e51b8152602060048201526015602482015274125b9d985b1a59081a5b99dc99591a595b9d081251605a1b6044820152606490fd5b50908591876000956002831461176b575b6112a0600754611ddd565b95866007556040519361014085018581106001600160401b038211176117575760405287855260208501918252604085019850885260608401973389526080850187815260a086019142835260c08701936001855260e08801958652610100880196875261012088019889528a60005260036020526040600020975188556001880190518051906001600160401b03821161091b5781906113418454611b26565b601f8111611725575b50602090601f83116001146116c0576000926116b5575b50508160011b916000199060031b1c19161790555b600287019051600381101561054b5760009b60ff835491610100600160a81b03905160081b169216906affffffffffffffffffffff60a81b1617179055600386019051908151916001600160401b0383116116a1576801000000000000000083116116a1576020908c835485855585818110611686575b50505001908b5260208b208b5b8381106116725750505050516004850155600584019051151560ff801983541691161790555160068301556007820190518051906001600160401b03821161165e576114468354611b26565b601f811161162e575b50602090601f83116001146115c7576008949392918991836115bc575b50508160011b916000199060031b1c19161790555b0190518051906001600160401b0382116115a85760209582916114a48554611b26565b601f811161157a575b508791601f8411600114611518579261150d575b50508160011b916000199060031b1c19161790555b817f3fecc7f83ec2cca2fd6a1539b9d29aad3247929594ebe0da696afa1d4025cde760405185815280610866339588830190611cfb565b0151905086806114c1565b8581528281209350601f198516905b818110611563575090846001959493921061154a575b505050811b0190556114d6565b015160001960f88460031b161c1916905586808061153d565b929389600181928786015181550195019301611527565b6115a290868452898420601f860160051c8101918b871061091157601f0160051c0190611e02565b886114ad565b634e487b7160e01b86526041600452602486fd5b01519050898061146c565b8389528189209190601f1984168a5b8181106116165750916001939185600898979694106115fd575b505050811b019055611481565b015160001960f88460031b161c191690558980806115f0565b929360206001819287860151815501950193016115d6565b61165890848a5260208a20601f850160051c8101916020861061091157601f0160051c0190611e02565b8861144f565b634e487b7160e01b88526041600452602488fd5b6001906020845194019381840155016113fa565b8483876116999552209182019101611e02565b8c8e856113ed565b634e487b7160e01b8c52604160045260248cfd5b015190508e80611361565b60008581528281209350601f198516905b81811061170d57509084600195949392106116f4575b505050811b019055611376565b015160001960f88460031b161c191690558e80806116e7565b929360206001819287860151815501950193016116d1565b61175190856000526020600020601f850160051c8101916020861061091157601f0160051c0190611e02565b8f61134a565b634e487b7160e01b8a52604160045260248afd5b6105788111156112955760405162461bcd60e51b815260206004820152601060248201526f496e76616c69642070482076616c756560801b6044820152606490fd5b60405162461bcd60e51b815260206004820152602960248201527f50726f64756374206d7573742068617665206174206c65617374206f6e6520696044820152681b99dc99591a595b9d60ba1b6064820152608490fd5b5033600052600460205260ff60406000205416600281101561054b5760011461112a565b81358152602091820191016110c6565b3461017d57602036600319011261017d576004356000526002602052604060002080546001820161186890611b9c565b9161187560028201611b9c565b90600160a01b600190036003820154166004820154600583015460ff1660405161189e81611b60565b600685015481526007850154602082019081526008860154906040830191825260098701549260608101938452600a88015494600b89015496600c8a016118e490611b9c565b99600d016118f190611b9c565b9a6040519d8e9d8e528d602081016101c090526101c00161191191611c40565b8d810360408f015261192291611c40565b9860608d015260808c0152151560a08b01525160c08a01525160e089015251610100880152516101208701526101408601526101608501528381036101808501526102a291611c40565b3461017d57602036600319011261017d576004356001600160a01b0381169081900361017d5780600052600560205260ff60406000205416156119c95760005260046020526102b460ff6040600020541660405191829182611b13565b60405162461bcd60e51b8152602060048201526013602482015272155cd95c881b9bdd081c9959da5cdd195c9959606a1b6044820152606490fd5b3461017d57600036600319011261017d576020600754604051908152f35b3461017d57602036600319011261017d576004356001600160a01b0381169081900361017d576000526005602052602060ff604060002054166040519015158152f35b3461017d57602036600319011261017d5760043590600282101561017d5733600052600560205260ff60406000205416611ad15750336000526004602052604060002060009160ff80198354169116179055338152600560205260408120600160ff1982541617905580f35b62461bcd60e51b815260206004820152601760248201527f5573657220616c726561647920726567697374657265640000000000000000006044820152606490fd5b91906020830192600282101561054b5752565b90600182811c92168015611b56575b6020831014611b4057565b634e487b7160e01b600052602260045260246000fd5b91607f1691611b35565b608081019081106001600160401b0382111761091b57604052565b90601f801991011681019081106001600160401b0382111761091b57604052565b9060405191826000825492611bb084611b26565b8084529360018116908115611c1e5750600114611bd7575b50611bd592500383611b7b565b565b90506000929192526020600020906000915b818310611c02575050906020611bd59282010138611bc8565b6020919350806001915483858901015201910190918492611be9565b905060209250611bd594915060ff191682840152151560051b82010138611bc8565b919082519283825260005b848110611c6c575050826000602080949584010152601f8019910116010190565b80602080928401015182828601015201611c4b565b81601f8201121561017d578035906001600160401b03821161091b5760405192611cb5601f8401601f191660200185611b7b565b8284526020838301011161017d57816000926020809301838601378301015290565b6001600160401b03811161091b5760051b60200190565b90600382101561054b5752565b906020808351928381520192019060005b818110611d195750505090565b8251845260209384019390920191600101611d0c565b15611d3657565b60405162461bcd60e51b815260206004820152601660248201527513db9b1e481b595c98da185b9d1cc8185b1b1bddd95960521b6044820152606490fd5b15611d7b57565b60405162461bcd60e51b815260206004820152601060248201526f13985b59481a5cc81c995c5d5a5c995960821b6044820152606490fd5b8051821015611dc75760209160051b010190565b634e487b7160e01b600052603260045260246000fd5b6000198114611dec5760010190565b634e487b7160e01b600052601160045260246000fd5b818110611e0d575050565b60008155600101611e02565b15611e2057565b60405162461bcd60e51b8152602060048201526016602482015275141c9bd91d58dd08191bd95cc81b9bdd08195e1a5cdd60521b6044820152606490fd5b8054821015611dc75760005260206000200190600090565b15611e7d57565b60405162461bcd60e51b815260206004820152601960248201527f496e6772656469656e7420646f6573206e6f74206578697374000000000000006044820152606490fd5b90611ecc82611cd7565b611ed96040519182611b7b565b8281528092611eea601f1991611cd7565b0190602036910137565b6000546001600160a01b03163303611f0857565b63118cdaa760e01b6000523360045260246000fdfea2646970667358221220af6c859d286c30052209026acb0b2a15c8b08e0d336f8bcd076f99aba0c10fc764736f6c634300081c0033","opcodes":"PUSH1 0x80 DUP1 PUSH1 0x40 MSTORE CALLVALUE PUSH1 0x79 JUMPI CALLER ISZERO PUSH1 0x63 JUMPI PUSH1 0x0 DUP1 SLOAD CALLER PUSH1 0x1 PUSH1 0x1 PUSH1 0xA0 SHL SUB NOT DUP3 AND DUP2 OR DUP4 SSTORE SWAP2 PUSH1 0x1 PUSH1 0x1 PUSH1 0xA0 SHL SUB SWAP1 SWAP2 AND SWAP1 PUSH32 0x8BE0079C531659141344CD1FD0A4F28419497F9722A3DAAFE3B4186F6B6457E0 SWAP1 DUP1 LOG3 PUSH1 0x1 DUP1 SSTORE PUSH2 0x1F53 SWAP1 DUP2 PUSH2 0x7F DUP3 CODECOPY RETURN JUMPDEST PUSH4 0x1E4FBDF7 PUSH1 0xE0 SHL PUSH1 0x0 MSTORE PUSH1 0x0 PUSH1 0x4 MSTORE PUSH1 0x24 PUSH1 0x0 REVERT JUMPDEST PUSH1 0x0 DUP1 REVERT INVALID PUSH1 0x80 DUP1 PUSH1 0x40 MSTORE PUSH1 0x4 CALLDATASIZE LT ISZERO PUSH2 0x13 JUMPI PUSH1 0x0 DUP1 REVERT JUMPDEST PUSH1 0x0 CALLDATALOAD PUSH1 0xE0 SHR SWAP1 DUP2 PUSH4 0x2B8C8CD EQ PUSH2 0x1A65 JUMPI POP DUP1 PUSH4 0xE50CEE5 EQ PUSH2 0x1A22 JUMPI DUP1 PUSH4 0x163F7522 EQ PUSH2 0x1A22 JUMPI DUP1 PUSH4 0x1F16653B EQ PUSH2 0x1A04 JUMPI DUP1 PUSH4 0x27820851 EQ PUSH2 0x196C JUMPI DUP1 PUSH4 0x2D165382 EQ PUSH2 0x1838 JUMPI DUP1 PUSH4 0x4383B5C2 EQ PUSH2 0x1032 JUMPI DUP1 PUSH4 0x524E8462 EQ PUSH2 0xF50 JUMPI DUP1 PUSH4 0x715018A6 EQ PUSH2 0xEF7 JUMPI DUP1 PUSH4 0x74D5E100 EQ PUSH2 0xEB1 JUMPI DUP1 PUSH4 0x79A85E6C EQ PUSH2 0xD59 JUMPI DUP1 PUSH4 0x7ACC0B20 EQ PUSH2 0xC84 JUMPI DUP1 PUSH4 0x8DA5CB5B EQ PUSH2 0xC5B JUMPI DUP1 PUSH4 0x94DDDA00 EQ PUSH2 0x561 JUMPI DUP1 PUSH4 0x9A8C75F5 EQ PUSH2 0x3F0 JUMPI DUP1 PUSH4 0xBF18E0F6 EQ PUSH2 0x2E2 JUMPI DUP1 PUSH4 0xC5C0C5A9 EQ PUSH2 0x2C4 JUMPI DUP1 PUSH4 0xCF770E16 EQ PUSH2 0x182 JUMPI PUSH4 0xF2FDE38B EQ PUSH2 0xF0 JUMPI PUSH1 0x0 DUP1 REVERT JUMPDEST CALLVALUE PUSH2 0x17D JUMPI PUSH1 0x20 CALLDATASIZE PUSH1 0x3 NOT ADD SLT PUSH2 0x17D JUMPI PUSH1 0x4 CALLDATALOAD PUSH1 0x1 PUSH1 0x1 PUSH1 0xA0 SHL SUB DUP2 AND SWAP1 DUP2 SWAP1 SUB PUSH2 0x17D JUMPI PUSH2 0x11E PUSH2 0x1EF4 JUMP JUMPDEST DUP1 ISZERO PUSH2 0x167 JUMPI PUSH1 0x0 DUP1 SLOAD PUSH1 0x1 PUSH1 0x1 PUSH1 0xA0 SHL SUB NOT DUP2 AND DUP4 OR DUP3 SSTORE PUSH1 0x1 PUSH1 0x1 PUSH1 0xA0 SHL SUB AND SWAP1 PUSH32 0x8BE0079C531659141344CD1FD0A4F28419497F9722A3DAAFE3B4186F6B6457E0 SWAP1 DUP1 LOG3 STOP JUMPDEST PUSH4 0x1E4FBDF7 PUSH1 0xE0 SHL PUSH1 0x0 MSTORE PUSH1 0x0 PUSH1 0x4 MSTORE PUSH1 0x24 PUSH1 0x0 REVERT JUMPDEST PUSH1 0x0 DUP1 REVERT JUMPDEST CALLVALUE PUSH2 0x17D JUMPI PUSH1 0x20 CALLDATASIZE PUSH1 0x3 NOT ADD SLT PUSH2 0x17D JUMPI PUSH1 0x4 CALLDATALOAD DUP1 ISZERO ISZERO DUP1 PUSH2 0x2B8 JUMPI JUMPDEST PUSH2 0x1A8 SWAP1 PUSH2 0x1E76 JUMP JUMPDEST PUSH1 0x0 MSTORE PUSH1 0x2 PUSH1 0x20 MSTORE PUSH1 0x40 PUSH1 0x0 KECCAK256 DUP1 SLOAD PUSH1 0x1 PUSH1 0xA0 SHL PUSH1 0x1 SWAP1 SUB PUSH1 0x3 DUP4 ADD SLOAD AND SWAP2 PUSH1 0x4 DUP2 ADD SLOAD SWAP1 PUSH1 0x5 DUP2 ADD SLOAD PUSH1 0xFF AND SWAP4 PUSH1 0x6 DUP3 ADD SLOAD PUSH1 0x7 DUP4 ADD SLOAD PUSH1 0x8 DUP5 ADD SLOAD PUSH1 0x9 DUP6 ADD SLOAD SWAP1 PUSH1 0xA DUP7 ADD SLOAD SWAP3 PUSH1 0xB DUP8 ADD SLOAD SWAP5 PUSH1 0x1 DUP9 ADD PUSH2 0x204 SWAP1 PUSH2 0x1B9C JUMP JUMPDEST SWAP11 PUSH2 0x211 PUSH1 0x2 DUP11 ADD PUSH2 0x1B9C JUMP JUMPDEST SWAP10 PUSH2 0x21E PUSH1 0xC DUP12 ADD PUSH2 0x1B9C JUMP JUMPDEST SWAP10 PUSH1 0xD ADD PUSH2 0x22B SWAP1 PUSH2 0x1B9C JUMP JUMPDEST SWAP11 PUSH1 0x40 MLOAD SWAP14 DUP15 SWAP14 DUP15 MSTORE DUP14 PUSH1 0x20 DUP2 ADD PUSH2 0x1C0 SWAP1 MSTORE PUSH2 0x1C0 ADD PUSH2 0x24B SWAP2 PUSH2 0x1C40 JUMP JUMPDEST DUP14 DUP2 SUB PUSH1 0x40 DUP16 ADD MSTORE PUSH2 0x25C SWAP2 PUSH2 0x1C40 JUMP JUMPDEST SWAP9 PUSH1 0x60 DUP14 ADD MSTORE PUSH1 0x80 DUP13 ADD MSTORE ISZERO ISZERO PUSH1 0xA0 DUP12 ADD MSTORE PUSH1 0xC0 DUP11 ADD MSTORE PUSH1 0xE0 DUP10 ADD MSTORE PUSH2 0x100 DUP9 ADD MSTORE PUSH2 0x120 DUP8 ADD MSTORE PUSH2 0x140 DUP7 ADD MSTORE PUSH2 0x160 DUP6 ADD MSTORE DUP4 DUP2 SUB PUSH2 0x180 DUP6 ADD MSTORE PUSH2 0x2A2 SWAP2 PUSH2 0x1C40 JUMP JUMPDEST DUP3 DUP2 SUB PUSH2 0x1A0 DUP5 ADD MSTORE PUSH2 0x2B4 SWAP2 PUSH2 0x1C40 JUMP JUMPDEST SUB SWAP1 RETURN JUMPDEST POP PUSH1 0x6 SLOAD DUP2 GT ISZERO PUSH2 0x19F JUMP JUMPDEST CALLVALUE PUSH2 0x17D JUMPI PUSH1 0x0 CALLDATASIZE PUSH1 0x3 NOT ADD SLT PUSH2 0x17D JUMPI PUSH1 0x20 PUSH1 0x6 SLOAD PUSH1 0x40 MLOAD SWAP1 DUP2 MSTORE RETURN JUMPDEST CALLVALUE PUSH2 0x17D JUMPI PUSH1 0x20 CALLDATASIZE PUSH1 0x3 NOT ADD SLT PUSH2 0x17D JUMPI PUSH1 0x4 CALLDATALOAD DUP1 ISZERO ISZERO DUP1 PUSH2 0x3E4 JUMPI JUMPDEST PUSH2 0x308 SWAP1 PUSH2 0x1E76 JUMP JUMPDEST PUSH1 0x7 SLOAD PUSH2 0x314 DUP2 PUSH2 0x1EC2 JUMP JUMPDEST SWAP2 PUSH1 0x0 SWAP2 PUSH1 0x1 JUMPDEST DUP2 DUP2 GT ISZERO PUSH2 0x36F JUMPI POP POP POP PUSH2 0x32F DUP2 PUSH2 0x1EC2 JUMP JUMPDEST SWAP2 PUSH1 0x0 JUMPDEST DUP3 DUP2 LT PUSH2 0x350 JUMPI PUSH1 0x40 MLOAD PUSH1 0x20 DUP1 DUP3 MSTORE DUP2 SWAP1 PUSH2 0x2B4 SWAP1 DUP3 ADD DUP8 PUSH2 0x1CFB JUMP JUMPDEST DUP1 PUSH2 0x35D PUSH1 0x1 SWAP3 DUP5 PUSH2 0x1DB3 JUMP JUMPDEST MLOAD PUSH2 0x368 DUP3 DUP8 PUSH2 0x1DB3 JUMP JUMPDEST MSTORE ADD PUSH2 0x333 JUMP JUMPDEST DUP1 PUSH1 0x0 MSTORE PUSH1 0x3 PUSH1 0x20 MSTORE PUSH1 0x40 PUSH1 0x0 KECCAK256 PUSH1 0x3 PUSH1 0x0 SWAP2 ADD DUP1 SLOAD SWAP2 JUMPDEST DUP3 DUP2 LT PUSH2 0x3A0 JUMPI JUMPDEST POP POP POP PUSH2 0x39B SWAP1 PUSH2 0x1DDD JUMP JUMPDEST PUSH2 0x31B JUMP JUMPDEST DUP6 PUSH2 0x3AB DUP3 DUP5 PUSH2 0x1E5E JUMP JUMPDEST SWAP1 SLOAD SWAP1 PUSH1 0x3 SHL SHR EQ PUSH2 0x3BF JUMPI PUSH1 0x1 ADD PUSH2 0x387 JUMP JUMPDEST POP POP POP SWAP3 PUSH2 0x3DB DUP2 DUP6 PUSH2 0x3D5 PUSH2 0x39B SWAP5 DUP10 PUSH2 0x1DB3 JUMP JUMPDEST MSTORE PUSH2 0x1DDD JUMP JUMPDEST SWAP4 SWAP1 DUP7 DUP1 PUSH2 0x38F JUMP JUMPDEST POP PUSH1 0x6 SLOAD DUP2 GT ISZERO PUSH2 0x2FF JUMP JUMPDEST CALLVALUE PUSH2 0x17D JUMPI PUSH1 0x40 CALLDATASIZE PUSH1 0x3 NOT ADD SLT PUSH2 0x17D JUMPI PUSH1 0x4 CALLDATALOAD PUSH1 0x24 CALLDATALOAD PUSH1 0x1 PUSH1 0x1 PUSH1 0x40 SHL SUB DUP2 GT PUSH2 0x17D JUMPI PUSH2 0x423 SWAP1 CALLDATASIZE SWAP1 PUSH1 0x4 ADD PUSH2 0x1C81 JUMP JUMPDEST CALLER PUSH1 0x0 MSTORE PUSH1 0x5 PUSH1 0x20 MSTORE PUSH1 0xFF PUSH1 0x40 PUSH1 0x0 KECCAK256 SLOAD AND DUP1 PUSH2 0x527 JUMPI JUMPDEST PUSH2 0x444 SWAP1 PUSH2 0x1D2F JUMP JUMPDEST DUP2 ISZERO ISZERO DUP1 PUSH2 0x51B JUMPI JUMPDEST PUSH2 0x456 SWAP1 PUSH2 0x1E76 JUMP JUMPDEST DUP2 PUSH1 0x0 MSTORE PUSH1 0x2 PUSH1 0x20 MSTORE CALLER PUSH1 0x1 DUP1 PUSH1 0xA0 SHL SUB PUSH1 0x3 PUSH1 0x40 PUSH1 0x0 KECCAK256 ADD SLOAD AND SUB PUSH2 0x4D6 JUMPI PUSH2 0x4CB PUSH32 0xDF0BBCE374B20F3680002DA1ECDFEDB59F3B86436350B189779A215C75137D55 SWAP2 DUP4 PUSH1 0x0 MSTORE PUSH1 0x2 PUSH1 0x20 MSTORE PUSH1 0x5 PUSH1 0x40 PUSH1 0x0 KECCAK256 ADD PUSH1 0x1 PUSH1 0xFF NOT DUP3 SLOAD AND OR SWAP1 SSTORE PUSH1 0x40 MLOAD SWAP2 DUP3 SWAP2 PUSH1 0x40 DUP4 MSTORE PUSH1 0x40 DUP4 ADD SWAP1 PUSH2 0x1C40 JUMP JUMPDEST TIMESTAMP PUSH1 0x20 DUP4 ADD MSTORE SUB SWAP1 LOG2 STOP JUMPDEST PUSH1 0x40 MLOAD PUSH3 0x461BCD PUSH1 0xE5 SHL DUP2 MSTORE PUSH1 0x20 PUSH1 0x4 DUP3 ADD MSTORE PUSH1 0x1F PUSH1 0x24 DUP3 ADD MSTORE PUSH32 0x43616E206F6E6C7920726563616C6C206F776E20696E6772656469656E747300 PUSH1 0x44 DUP3 ADD MSTORE PUSH1 0x64 SWAP1 REVERT JUMPDEST POP PUSH1 0x6 SLOAD DUP3 GT ISZERO PUSH2 0x44D JUMP JUMPDEST POP CALLER PUSH1 0x0 MSTORE PUSH1 0x4 PUSH1 0x20 MSTORE PUSH1 0xFF PUSH1 0x40 PUSH1 0x0 KECCAK256 SLOAD AND PUSH1 0x2 DUP2 LT ISZERO PUSH2 0x54B JUMPI PUSH1 0x1 EQ PUSH2 0x43B JUMP JUMPDEST PUSH4 0x4E487B71 PUSH1 0xE0 SHL PUSH1 0x0 MSTORE PUSH1 0x21 PUSH1 0x4 MSTORE PUSH1 0x24 PUSH1 0x0 REVERT JUMPDEST CALLVALUE PUSH2 0x17D JUMPI PUSH2 0x140 CALLDATASIZE PUSH1 0x3 NOT ADD SLT PUSH2 0x17D JUMPI PUSH1 0x4 CALLDATALOAD PUSH1 0x1 PUSH1 0x1 PUSH1 0x40 SHL SUB DUP2 GT PUSH2 0x17D JUMPI PUSH2 0x592 SWAP1 CALLDATASIZE SWAP1 PUSH1 0x4 ADD PUSH2 0x1C81 JUMP JUMPDEST PUSH1 0x24 CALLDATALOAD PUSH1 0x1 PUSH1 0x1 PUSH1 0x40 SHL SUB DUP2 GT PUSH2 0x17D JUMPI PUSH2 0x5B1 SWAP1 CALLDATASIZE SWAP1 PUSH1 0x4 ADD PUSH2 0x1C81 JUMP JUMPDEST PUSH1 0x64 CALLDATALOAD SWAP2 PUSH1 0x44 CALLDATALOAD SWAP2 PUSH1 0x84 CALLDATALOAD PUSH1 0xE4 CALLDATALOAD PUSH1 0xC4 CALLDATALOAD PUSH1 0xA4 CALLDATALOAD PUSH2 0x104 CALLDATALOAD PUSH1 0x1 PUSH1 0x1 PUSH1 0x40 SHL SUB DUP2 GT PUSH2 0x17D JUMPI PUSH2 0x5E5 SWAP1 CALLDATASIZE SWAP1 PUSH1 0x4 ADD PUSH2 0x1C81 JUMP JUMPDEST SWAP4 PUSH2 0x124 CALLDATALOAD PUSH1 0x1 PUSH1 0x1 PUSH1 0x40 SHL SUB DUP2 GT PUSH2 0x17D JUMPI PUSH2 0x606 SWAP1 CALLDATASIZE SWAP1 PUSH1 0x4 ADD PUSH2 0x1C81 JUMP JUMPDEST SWAP9 CALLER PUSH1 0x0 MSTORE PUSH1 0x5 PUSH1 0x20 MSTORE PUSH1 0xFF PUSH1 0x40 PUSH1 0x0 KECCAK256 SLOAD AND DUP1 PUSH2 0xC37 JUMPI JUMPDEST PUSH2 0x628 SWAP1 PUSH2 0x1D2F JUMP JUMPDEST PUSH2 0x634 DUP9 MLOAD ISZERO ISZERO PUSH2 0x1D74 JUMP JUMPDEST DUP1 DUP10 SGT PUSH2 0xBF2 JUMPI DUP3 DUP3 GT PUSH2 0xBB4 JUMPI DUP4 ISZERO PUSH2 0xB6F JUMPI TIMESTAMP DUP6 GT ISZERO PUSH2 0xB20 JUMPI PUSH2 0x65B PUSH1 0x6 SLOAD PUSH2 0x1DDD JUMP JUMPDEST SWAP9 DUP10 PUSH1 0x6 SSTORE DUP10 PUSH1 0x0 MSTORE PUSH1 0x2 PUSH1 0x20 MSTORE PUSH1 0x40 PUSH1 0x0 KECCAK256 SWAP8 DUP11 DUP10 SSTORE PUSH1 0x1 DUP10 ADD DUP11 MLOAD PUSH1 0x1 PUSH1 0x1 PUSH1 0x40 SHL SUB DUP2 GT PUSH2 0x91B JUMPI PUSH2 0x690 DUP3 SLOAD PUSH2 0x1B26 JUMP JUMPDEST PUSH1 0x1F DUP2 GT PUSH2 0xAEE JUMPI JUMPDEST POP DUP1 PUSH1 0x20 PUSH1 0x1F DUP3 GT PUSH1 0x1 EQ PUSH2 0xA86 JUMPI PUSH1 0x0 SWAP2 PUSH2 0xA7B JUMPI JUMPDEST POP DUP2 PUSH1 0x1 SHL SWAP2 PUSH1 0x0 NOT SWAP1 PUSH1 0x3 SHL SHR NOT AND OR SWAP1 SSTORE JUMPDEST DUP1 MLOAD PUSH1 0x2 DUP11 ADD SWAP2 PUSH1 0x1 PUSH1 0x1 PUSH1 0x40 SHL SUB DUP3 GT PUSH2 0x91B JUMPI DUP2 SWAP1 PUSH2 0x6E5 DUP5 SLOAD PUSH2 0x1B26 JUMP JUMPDEST PUSH1 0x1F DUP2 GT PUSH2 0xA49 JUMPI JUMPDEST POP PUSH1 0x20 SWAP1 PUSH1 0x1F DUP4 GT PUSH1 0x1 EQ PUSH2 0x9E4 JUMPI PUSH1 0x0 SWAP3 PUSH2 0x9D9 JUMPI JUMPDEST POP POP DUP2 PUSH1 0x1 SHL SWAP2 PUSH1 0x0 NOT SWAP1 PUSH1 0x3 SHL SHR NOT AND OR SWAP1 SSTORE JUMPDEST PUSH1 0x3 DUP9 ADD DUP1 SLOAD PUSH1 0x1 PUSH1 0x1 PUSH1 0xA0 SHL SUB NOT AND CALLER OR SWAP1 SSTORE TIMESTAMP PUSH1 0x4 DUP10 ADD SSTORE PUSH1 0x5 DUP9 ADD DUP1 SLOAD PUSH1 0xFF NOT AND SWAP1 SSTORE PUSH1 0x40 MLOAD DUP5 SWAP1 PUSH1 0x60 SWAP1 PUSH2 0x751 DUP2 PUSH2 0x1B60 JUMP JUMPDEST DUP4 DUP2 MSTORE DUP5 PUSH1 0x20 DUP3 ADD MSTORE DUP6 PUSH1 0x40 DUP3 ADD MSTORE ADD MSTORE PUSH1 0x6 DUP9 ADD SSTORE PUSH1 0x7 DUP8 ADD SSTORE PUSH1 0x8 DUP7 ADD SSTORE PUSH1 0x9 DUP6 ADD SSTORE PUSH1 0xA DUP5 ADD SSTORE PUSH1 0xB DUP4 ADD SSTORE PUSH1 0xC DUP3 ADD SWAP1 DUP1 MLOAD SWAP1 PUSH1 0x1 PUSH1 0x1 PUSH1 0x40 SHL SUB DUP3 GT PUSH2 0x91B JUMPI PUSH2 0x7A0 DUP4 SLOAD PUSH2 0x1B26 JUMP JUMPDEST PUSH1 0x1F DUP2 GT PUSH2 0x9A7 JUMPI JUMPDEST POP PUSH1 0x20 SWAP1 PUSH1 0x1F DUP4 GT PUSH1 0x1 EQ PUSH2 0x93C JUMPI PUSH1 0xD SWAP5 SWAP4 SWAP3 SWAP2 PUSH1 0x0 SWAP2 DUP4 PUSH2 0x931 JUMPI JUMPDEST POP POP DUP2 PUSH1 0x1 SHL SWAP2 PUSH1 0x0 NOT SWAP1 PUSH1 0x3 SHL SHR NOT AND OR SWAP1 SSTORE JUMPDEST ADD DUP4 MLOAD PUSH1 0x1 PUSH1 0x1 PUSH1 0x40 SHL SUB DUP2 GT PUSH2 0x91B JUMPI DUP1 PUSH1 0x20 SWAP6 PUSH2 0x7FB DUP5 SLOAD PUSH2 0x1B26 JUMP JUMPDEST PUSH1 0x1F DUP2 GT PUSH2 0x8E0 JUMPI JUMPDEST POP DUP7 SWAP1 PUSH1 0x1F DUP4 GT PUSH1 0x1 EQ PUSH2 0x87C JUMPI PUSH1 0x0 SWAP3 PUSH2 0x871 JUMPI JUMPDEST POP POP DUP2 PUSH1 0x1 SHL SWAP2 PUSH1 0x0 NOT SWAP1 PUSH1 0x3 SHL SHR NOT AND OR SWAP1 SSTORE JUMPDEST DUP2 PUSH32 0x8CA3D88988593C02BD540D3405434FC5DAE39FEECB7F22415F00C869FE875CC1 PUSH1 0x40 MLOAD DUP6 DUP2 MSTORE DUP1 PUSH2 0x866 CALLER SWAP6 DUP9 DUP4 ADD SWAP1 PUSH2 0x1C40 JUMP JUMPDEST SUB SWAP1 LOG3 PUSH1 0x40 MLOAD SWAP1 DUP2 MSTORE RETURN JUMPDEST ADD MLOAD SWAP1 POP DUP7 DUP1 PUSH2 0x81A JUMP JUMPDEST PUSH1 0x0 DUP6 DUP2 MSTORE DUP3 DUP2 KECCAK256 SWAP4 POP PUSH1 0x1F NOT DUP6 AND SWAP1 JUMPDEST DUP2 DUP2 LT PUSH2 0x8C9 JUMPI POP SWAP1 DUP5 PUSH1 0x1 SWAP6 SWAP5 SWAP4 SWAP3 LT PUSH2 0x8B0 JUMPI JUMPDEST POP POP POP DUP2 SHL ADD SWAP1 SSTORE PUSH2 0x82F JUMP JUMPDEST ADD MLOAD PUSH1 0x0 NOT PUSH1 0xF8 DUP5 PUSH1 0x3 SHL AND SHR NOT AND SWAP1 SSTORE DUP7 DUP1 DUP1 PUSH2 0x8A3 JUMP JUMPDEST SWAP3 SWAP4 DUP10 PUSH1 0x1 DUP2 SWAP3 DUP8 DUP7 ADD MLOAD DUP2 SSTORE ADD SWAP6 ADD SWAP4 ADD PUSH2 0x88D JUMP JUMPDEST PUSH2 0x90B SWAP1 DUP6 PUSH1 0x0 MSTORE DUP9 PUSH1 0x0 KECCAK256 PUSH1 0x1F DUP6 ADD PUSH1 0x5 SHR DUP2 ADD SWAP2 DUP11 DUP7 LT PUSH2 0x911 JUMPI JUMPDEST PUSH1 0x1F ADD PUSH1 0x5 SHR ADD SWAP1 PUSH2 0x1E02 JUMP JUMPDEST DUP8 PUSH2 0x804 JUMP JUMPDEST SWAP1 SWAP2 POP DUP2 SWAP1 PUSH2 0x8FE JUMP JUMPDEST PUSH4 0x4E487B71 PUSH1 0xE0 SHL PUSH1 0x0 MSTORE PUSH1 0x41 PUSH1 0x4 MSTORE PUSH1 0x24 PUSH1 0x0 REVERT JUMPDEST ADD MLOAD SWAP1 POP DUP9 DUP1 PUSH2 0x7C7 JUMP JUMPDEST SWAP1 PUSH1 0x1F NOT DUP4 AND SWAP2 DUP5 PUSH1 0x0 MSTORE DUP2 PUSH1 0x0 KECCAK256 SWAP3 PUSH1 0x0 JUMPDEST DUP2 DUP2 LT PUSH2 0x98F JUMPI POP SWAP2 PUSH1 0x1 SWAP4 SWAP2 DUP6 PUSH1 0xD SWAP9 SWAP8 SWAP7 SWAP5 LT PUSH2 0x976 JUMPI JUMPDEST POP POP POP DUP2 SHL ADD SWAP1 SSTORE PUSH2 0x7DC JUMP JUMPDEST ADD MLOAD PUSH1 0x0 NOT PUSH1 0xF8 DUP5 PUSH1 0x3 SHL AND SHR NOT AND SWAP1 SSTORE DUP9 DUP1 DUP1 PUSH2 0x969 JUMP JUMPDEST SWAP3 SWAP4 PUSH1 0x20 PUSH1 0x1 DUP2 SWAP3 DUP8 DUP7 ADD MLOAD DUP2 SSTORE ADD SWAP6 ADD SWAP4 ADD PUSH2 0x94F JUMP JUMPDEST PUSH2 0x9D3 SWAP1 DUP5 PUSH1 0x0 MSTORE PUSH1 0x20 PUSH1 0x0 KECCAK256 PUSH1 0x1F DUP6 ADD PUSH1 0x5 SHR DUP2 ADD SWAP2 PUSH1 0x20 DUP7 LT PUSH2 0x911 JUMPI PUSH1 0x1F ADD PUSH1 0x5 SHR ADD SWAP1 PUSH2 0x1E02 JUMP JUMPDEST DUP8 PUSH2 0x7A9 JUMP JUMPDEST ADD MLOAD SWAP1 POP DUP15 DUP1 PUSH2 0x705 JUMP JUMPDEST PUSH1 0x0 DUP6 DUP2 MSTORE DUP3 DUP2 KECCAK256 SWAP4 POP PUSH1 0x1F NOT DUP6 AND SWAP1 JUMPDEST DUP2 DUP2 LT PUSH2 0xA31 JUMPI POP SWAP1 DUP5 PUSH1 0x1 SWAP6 SWAP5 SWAP4 SWAP3 LT PUSH2 0xA18 JUMPI JUMPDEST POP POP POP DUP2 SHL ADD SWAP1 SSTORE PUSH2 0x71A JUMP JUMPDEST ADD MLOAD PUSH1 0x0 NOT PUSH1 0xF8 DUP5 PUSH1 0x3 SHL AND SHR NOT AND SWAP1 SSTORE DUP15 DUP1 DUP1 PUSH2 0xA0B JUMP JUMPDEST SWAP3 SWAP4 PUSH1 0x20 PUSH1 0x1 DUP2 SWAP3 DUP8 DUP7 ADD MLOAD DUP2 SSTORE ADD SWAP6 ADD SWAP4 ADD PUSH2 0x9F5 JUMP JUMPDEST PUSH2 0xA75 SWAP1 DUP6 PUSH1 0x0 MSTORE PUSH1 0x20 PUSH1 0x0 KECCAK256 PUSH1 0x1F DUP6 ADD PUSH1 0x5 SHR DUP2 ADD SWAP2 PUSH1 0x20 DUP7 LT PUSH2 0x911 JUMPI PUSH1 0x1F ADD PUSH1 0x5 SHR ADD SWAP1 PUSH2 0x1E02 JUMP JUMPDEST DUP16 PUSH2 0x6EE JUMP JUMPDEST SWAP1 POP DUP13 ADD MLOAD DUP16 PUSH2 0x6B0 JUMP JUMPDEST DUP14 SWAP3 POP PUSH1 0x1F NOT DUP3 AND SWAP1 DUP5 PUSH1 0x0 MSTORE DUP1 PUSH1 0x0 KECCAK256 SWAP2 PUSH1 0x0 JUMPDEST DUP2 DUP2 LT PUSH2 0xAD4 JUMPI POP SWAP4 DUP4 PUSH1 0x1 SWAP6 LT PUSH2 0xABB JUMPI JUMPDEST POP POP POP DUP2 SHL ADD SWAP1 SSTORE PUSH2 0x6C4 JUMP JUMPDEST ADD MLOAD PUSH1 0x0 NOT PUSH1 0xF8 DUP5 PUSH1 0x3 SHL AND SHR NOT AND SWAP1 SSTORE DUP16 DUP1 DUP15 PUSH2 0xAAE JUMP JUMPDEST SWAP5 DUP3 ADD MLOAD DUP4 SSTORE DUP16 SWAP5 PUSH1 0x1 SWAP1 SWAP4 ADD SWAP3 PUSH1 0x20 SWAP3 DUP4 ADD SWAP3 ADD PUSH2 0xA9B JUMP JUMPDEST PUSH2 0xB1A SWAP1 DUP4 PUSH1 0x0 MSTORE PUSH1 0x20 PUSH1 0x0 KECCAK256 PUSH1 0x1F DUP5 ADD PUSH1 0x5 SHR DUP2 ADD SWAP2 PUSH1 0x20 DUP6 LT PUSH2 0x911 JUMPI PUSH1 0x1F ADD PUSH1 0x5 SHR ADD SWAP1 PUSH2 0x1E02 JUMP JUMPDEST DUP15 PUSH2 0x699 JUMP JUMPDEST PUSH1 0x40 MLOAD PUSH3 0x461BCD PUSH1 0xE5 SHL DUP2 MSTORE PUSH1 0x20 PUSH1 0x4 DUP3 ADD MSTORE PUSH1 0x21 PUSH1 0x24 DUP3 ADD MSTORE PUSH32 0x4578706972792064617465206D75737420626520696E20746865206675747572 PUSH1 0x44 DUP3 ADD MSTORE PUSH1 0x65 PUSH1 0xF8 SHL PUSH1 0x64 DUP3 ADD MSTORE PUSH1 0x84 SWAP1 REVERT JUMPDEST PUSH1 0x40 MLOAD PUSH3 0x461BCD PUSH1 0xE5 SHL DUP2 MSTORE PUSH1 0x20 PUSH1 0x4 DUP3 ADD MSTORE PUSH1 0x1D PUSH1 0x24 DUP3 ADD MSTORE PUSH32 0x576569676874206D7573742062652067726561746572207468616E2030000000 PUSH1 0x44 DUP3 ADD MSTORE PUSH1 0x64 SWAP1 REVERT JUMPDEST PUSH1 0x40 MLOAD PUSH3 0x461BCD PUSH1 0xE5 SHL DUP2 MSTORE PUSH1 0x20 PUSH1 0x4 DUP3 ADD MSTORE PUSH1 0x16 PUSH1 0x24 DUP3 ADD MSTORE PUSH22 0x496E76616C69642068756D69646974792072616E6765 PUSH1 0x50 SHL PUSH1 0x44 DUP3 ADD MSTORE PUSH1 0x64 SWAP1 REVERT JUMPDEST PUSH1 0x40 MLOAD PUSH3 0x461BCD PUSH1 0xE5 SHL DUP2 MSTORE PUSH1 0x20 PUSH1 0x4 DUP3 ADD MSTORE PUSH1 0x19 PUSH1 0x24 DUP3 ADD MSTORE PUSH32 0x496E76616C69642074656D70657261747572652072616E676500000000000000 PUSH1 0x44 DUP3 ADD MSTORE PUSH1 0x64 SWAP1 REVERT JUMPDEST POP CALLER PUSH1 0x0 MSTORE PUSH1 0x4 PUSH1 0x20 MSTORE PUSH1 0xFF PUSH1 0x40 PUSH1 0x0 KECCAK256 SLOAD AND PUSH1 0x2 DUP2 LT ISZERO PUSH2 0x54B JUMPI PUSH1 0x1 EQ PUSH2 0x61F JUMP JUMPDEST CALLVALUE PUSH2 0x17D JUMPI PUSH1 0x0 CALLDATASIZE PUSH1 0x3 NOT ADD SLT PUSH2 0x17D JUMPI PUSH1 0x0 SLOAD PUSH1 0x40 MLOAD PUSH1 0x1 PUSH1 0x1 PUSH1 0xA0 SHL SUB SWAP1 SWAP2 AND DUP2 MSTORE PUSH1 0x20 SWAP1 RETURN JUMPDEST CALLVALUE PUSH2 0x17D JUMPI PUSH1 0x20 CALLDATASIZE PUSH1 0x3 NOT ADD SLT PUSH2 0x17D JUMPI PUSH1 0x4 CALLDATALOAD PUSH1 0x0 MSTORE PUSH1 0x3 PUSH1 0x20 MSTORE PUSH1 0x40 PUSH1 0x0 KECCAK256 DUP1 SLOAD PUSH2 0x2B4 PUSH2 0xCB6 PUSH1 0x1 DUP5 ADD PUSH2 0x1B9C JUMP JUMPDEST SWAP3 PUSH2 0xD4A PUSH1 0x2 DUP3 ADD SLOAD PUSH1 0x4 DUP4 ADD SLOAD SWAP3 PUSH1 0xFF PUSH1 0x5 DUP3 ADD SLOAD AND PUSH1 0x6 DUP3 ADD SLOAD SWAP1 PUSH2 0xCEB PUSH1 0x8 PUSH2 0xCE4 PUSH1 0x7 DUP7 ADD PUSH2 0x1B9C JUMP JUMPDEST SWAP5 ADD PUSH2 0x1B9C JUMP JUMPDEST SWAP6 PUSH2 0xD0A PUSH1 0x40 MLOAD SWAP11 DUP12 SWAP11 DUP12 MSTORE PUSH2 0x120 PUSH1 0x20 DUP13 ADD MSTORE PUSH2 0x120 DUP12 ADD SWAP1 PUSH2 0x1C40 JUMP JUMPDEST SWAP5 PUSH2 0xD1B PUSH1 0x40 DUP12 ADD PUSH1 0xFF DUP4 AND PUSH2 0x1CEE JUMP JUMPDEST PUSH1 0x8 SHR PUSH1 0x1 PUSH1 0x1 PUSH1 0xA0 SHL SUB AND PUSH1 0x60 DUP11 ADD MSTORE PUSH1 0x80 DUP10 ADD MSTORE ISZERO ISZERO PUSH1 0xA0 DUP9 ADD MSTORE PUSH1 0xC0 DUP8 ADD MSTORE DUP6 DUP3 SUB PUSH1 0xE0 DUP8 ADD MSTORE PUSH2 0x1C40 JUMP JUMPDEST SWAP1 DUP4 DUP3 SUB PUSH2 0x100 DUP6 ADD MSTORE PUSH2 0x1C40 JUMP JUMPDEST CALLVALUE PUSH2 0x17D JUMPI PUSH1 0x20 CALLDATASIZE PUSH1 0x3 NOT ADD SLT PUSH2 0x17D JUMPI PUSH1 0x4 CALLDATALOAD DUP1 ISZERO ISZERO DUP1 PUSH2 0xEA5 JUMPI JUMPDEST PUSH2 0xD7F SWAP1 PUSH2 0x1E19 JUMP JUMPDEST PUSH1 0x0 MSTORE PUSH1 0x3 PUSH1 0x20 MSTORE PUSH1 0x40 PUSH1 0x0 KECCAK256 DUP1 SLOAD PUSH1 0x2 DUP3 ADD SLOAD PUSH1 0x3 DUP4 ADD SWAP3 PUSH1 0x4 DUP2 ADD SLOAD SWAP1 PUSH1 0xFF PUSH1 0x5 DUP3 ADD SLOAD AND PUSH1 0x6 DUP3 ADD SLOAD SWAP1 PUSH2 0xDB8 PUSH1 0x1 DUP5 ADD PUSH2 0x1B9C JUMP JUMPDEST SWAP5 PUSH1 0x40 MLOAD DUP1 PUSH1 0x20 DUP11 SLOAD SWAP2 DUP3 DUP2 MSTORE ADD SWAP10 PUSH1 0x0 MSTORE PUSH1 0x20 PUSH1 0x0 KECCAK256 SWAP1 PUSH1 0x0 JUMPDEST DUP2 DUP2 LT PUSH2 0xE8F JUMPI POP POP POP SWAP2 PUSH2 0xE60 PUSH2 0x2B4 SWAP8 SWAP7 SWAP5 SWAP3 DUP5 PUSH2 0xDFB PUSH2 0xE80 SWAP9 SWAP7 PUSH1 0x20 SWAP14 SUB DUP3 PUSH2 0x1B7B JUMP JUMPDEST PUSH2 0xE31 PUSH2 0xE16 PUSH1 0x8 PUSH2 0xE0F PUSH1 0x7 DUP11 ADD PUSH2 0x1B9C JUMP JUMPDEST SWAP9 ADD PUSH2 0x1B9C JUMP JUMPDEST SWAP10 PUSH2 0x140 PUSH1 0x40 MLOAD SWAP15 DUP16 SWAP15 DUP16 SWAP1 DUP2 MSTORE ADD MSTORE PUSH2 0x140 DUP14 ADD SWAP1 PUSH2 0x1C40 JUMP JUMPDEST SWAP2 PUSH2 0xE42 PUSH1 0x40 DUP14 ADD PUSH1 0xFF DUP4 AND PUSH2 0x1CEE JUMP JUMPDEST PUSH1 0x8 SHR PUSH1 0x1 PUSH1 0x1 PUSH1 0xA0 SHL SUB AND PUSH1 0x60 DUP13 ADD MSTORE DUP11 DUP3 SUB PUSH1 0x80 DUP13 ADD MSTORE PUSH2 0x1CFB JUMP JUMPDEST SWAP4 PUSH1 0xA0 DUP10 ADD MSTORE ISZERO ISZERO PUSH1 0xC0 DUP9 ADD MSTORE PUSH1 0xE0 DUP8 ADD MSTORE DUP6 DUP3 SUB PUSH2 0x100 DUP8 ADD MSTORE PUSH2 0x1C40 JUMP JUMPDEST SWAP1 DUP4 DUP3 SUB PUSH2 0x120 DUP6 ADD MSTORE PUSH2 0x1C40 JUMP JUMPDEST DUP3 SLOAD DUP13 MSTORE PUSH1 0x20 SWAP1 SWAP12 ADD SWAP11 PUSH1 0x1 SWAP3 DUP4 ADD SWAP3 ADD PUSH2 0xDD3 JUMP JUMPDEST POP PUSH1 0x7 SLOAD DUP2 GT ISZERO PUSH2 0xD76 JUMP JUMPDEST CALLVALUE PUSH2 0x17D JUMPI PUSH1 0x20 CALLDATASIZE PUSH1 0x3 NOT ADD SLT PUSH2 0x17D JUMPI PUSH1 0x4 CALLDATALOAD PUSH1 0x1 PUSH1 0x1 PUSH1 0xA0 SHL SUB DUP2 AND SWAP1 DUP2 SWAP1 SUB PUSH2 0x17D JUMPI PUSH1 0x0 MSTORE PUSH1 0x4 PUSH1 0x20 MSTORE PUSH2 0x2B4 PUSH1 0xFF PUSH1 0x40 PUSH1 0x0 KECCAK256 SLOAD AND PUSH1 0x40 MLOAD SWAP2 DUP3 SWAP2 DUP3 PUSH2 0x1B13 JUMP JUMPDEST CALLVALUE PUSH2 0x17D JUMPI PUSH1 0x0 CALLDATASIZE PUSH1 0x3 NOT ADD SLT PUSH2 0x17D JUMPI PUSH2 0xF10 PUSH2 0x1EF4 JUMP JUMPDEST PUSH1 0x0 DUP1 SLOAD PUSH1 0x1 PUSH1 0x1 PUSH1 0xA0 SHL SUB NOT DUP2 AND DUP3 SSTORE PUSH1 0x1 PUSH1 0x1 PUSH1 0xA0 SHL SUB AND PUSH32 0x8BE0079C531659141344CD1FD0A4F28419497F9722A3DAAFE3B4186F6B6457E0 DUP3 DUP1 LOG3 STOP JUMPDEST CALLVALUE PUSH2 0x17D JUMPI PUSH1 0x20 CALLDATASIZE PUSH1 0x3 NOT ADD SLT PUSH2 0x17D JUMPI PUSH1 0x4 CALLDATALOAD DUP1 ISZERO ISZERO DUP1 PUSH2 0x1026 JUMPI JUMPDEST PUSH2 0xF76 SWAP1 PUSH2 0x1E19 JUMP JUMPDEST DUP1 PUSH1 0x0 MSTORE PUSH1 0x3 PUSH1 0x20 MSTORE PUSH1 0x40 PUSH1 0x0 KECCAK256 PUSH1 0x0 SWAP2 PUSH1 0x3 DUP3 ADD SWAP3 JUMPDEST DUP4 SLOAD DUP2 LT ISZERO PUSH2 0x1016 JUMPI PUSH2 0xFA0 DUP2 DUP6 PUSH2 0x1E5E JUMP JUMPDEST SWAP1 SLOAD SWAP1 PUSH1 0x3 SHL SHR PUSH1 0x0 MSTORE PUSH1 0x2 PUSH1 0x20 MSTORE PUSH1 0xFF PUSH1 0x5 PUSH1 0x40 PUSH1 0x0 KECCAK256 ADD SLOAD AND PUSH2 0xFC7 JUMPI PUSH1 0x1 ADD PUSH2 0xF8D JUMP JUMPDEST POP PUSH1 0x20 SWAP3 POP DUP2 PUSH1 0x5 SWAP2 DUP3 PUSH1 0xFF SWAP5 ADD DUP5 NOT DUP2 SLOAD AND SWAP1 SSTORE JUMPDEST PUSH1 0x40 MLOAD SWAP1 TIMESTAMP DUP3 MSTORE PUSH32 0xA913DEF5E0A2F15C60FA63FE23979256A1FF8D6D893238336FA0683B9951266D DUP7 CALLER SWAP4 LOG3 ADD SLOAD AND PUSH1 0x40 MLOAD SWAP1 ISZERO ISZERO DUP2 MSTORE RETURN JUMPDEST POP PUSH1 0x20 SWAP3 POP PUSH1 0xFF SWAP2 PUSH1 0x5 SWAP2 PUSH2 0xFDD JUMP JUMPDEST POP PUSH1 0x7 SLOAD DUP2 GT ISZERO PUSH2 0xF6D JUMP JUMPDEST CALLVALUE PUSH2 0x17D JUMPI PUSH1 0xC0 CALLDATASIZE PUSH1 0x3 NOT ADD SLT PUSH2 0x17D JUMPI PUSH1 0x4 CALLDATALOAD PUSH1 0x1 PUSH1 0x1 PUSH1 0x40 SHL SUB DUP2 GT PUSH2 0x17D JUMPI PUSH2 0x1062 SWAP1 CALLDATASIZE SWAP1 PUSH1 0x4 ADD PUSH2 0x1C81 JUMP JUMPDEST PUSH1 0x24 CALLDATALOAD SWAP1 PUSH1 0x3 DUP3 LT ISZERO PUSH2 0x17D JUMPI PUSH1 0x44 CALLDATALOAD SWAP1 PUSH1 0x1 PUSH1 0x1 PUSH1 0x40 SHL SUB DUP3 GT PUSH2 0x17D JUMPI CALLDATASIZE PUSH1 0x23 DUP4 ADD SLT ISZERO PUSH2 0x17D JUMPI DUP2 PUSH1 0x4 ADD CALLDATALOAD SWAP2 PUSH2 0x109B DUP4 PUSH2 0x1CD7 JUMP JUMPDEST SWAP3 PUSH2 0x10A9 PUSH1 0x40 MLOAD SWAP5 DUP6 PUSH2 0x1B7B JUMP JUMPDEST DUP1 DUP5 MSTORE PUSH1 0x24 PUSH1 0x20 DUP6 ADD SWAP2 PUSH1 0x5 SHL DUP4 ADD ADD SWAP2 CALLDATASIZE DUP4 GT PUSH2 0x17D JUMPI PUSH1 0x24 ADD SWAP1 JUMPDEST DUP3 DUP3 LT PUSH2 0x1828 JUMPI POP POP POP PUSH1 0x64 CALLDATALOAD PUSH1 0x84 CALLDATALOAD PUSH1 0x1 PUSH1 0x1 PUSH1 0x40 SHL SUB DUP2 GT PUSH2 0x17D JUMPI PUSH2 0x10F2 SWAP1 CALLDATASIZE SWAP1 PUSH1 0x4 ADD PUSH2 0x1C81 JUMP JUMPDEST SWAP2 PUSH1 0xA4 CALLDATALOAD PUSH1 0x1 PUSH1 0x1 PUSH1 0x40 SHL SUB DUP2 GT PUSH2 0x17D JUMPI PUSH2 0x1112 SWAP1 CALLDATASIZE SWAP1 PUSH1 0x4 ADD PUSH2 0x1C81 JUMP JUMPDEST CALLER PUSH1 0x0 MSTORE PUSH1 0x5 PUSH1 0x20 MSTORE PUSH1 0xFF PUSH1 0x40 PUSH1 0x0 KECCAK256 SLOAD AND DUP1 PUSH2 0x1804 JUMPI JUMPDEST PUSH2 0x1133 SWAP1 PUSH2 0x1D2F JUMP JUMPDEST PUSH2 0x113F DUP3 MLOAD ISZERO ISZERO PUSH2 0x1D74 JUMP JUMPDEST DUP5 MLOAD ISZERO PUSH2 0x17AD JUMPI PUSH1 0x6 SLOAD SWAP4 SWAP6 PUSH1 0x0 JUMPDEST DUP7 MLOAD DUP2 LT ISZERO PUSH2 0x1284 JUMPI DUP6 PUSH2 0x1162 DUP3 DUP10 PUSH2 0x1DB3 JUMP JUMPDEST MLOAD GT PUSH2 0x1247 JUMPI PUSH2 0x1172 DUP2 DUP9 PUSH2 0x1DB3 JUMP JUMPDEST MLOAD PUSH1 0x0 MSTORE PUSH1 0x2 PUSH1 0x20 MSTORE PUSH1 0xFF PUSH1 0x5 PUSH1 0x40 PUSH1 0x0 KECCAK256 ADD SLOAD AND PUSH2 0x1202 JUMPI PUSH2 0x1195 DUP2 DUP9 PUSH2 0x1DB3 JUMP JUMPDEST MLOAD PUSH1 0x0 MSTORE PUSH1 0x2 PUSH1 0x20 MSTORE CALLER PUSH1 0x1 DUP1 PUSH1 0xA0 SHL SUB PUSH1 0x3 PUSH1 0x40 PUSH1 0x0 KECCAK256 ADD SLOAD AND SUB PUSH2 0x11BD JUMPI PUSH1 0x1 ADD PUSH2 0x114E JUMP JUMPDEST PUSH1 0x40 MLOAD PUSH3 0x461BCD PUSH1 0xE5 SHL DUP2 MSTORE PUSH1 0x20 PUSH1 0x4 DUP3 ADD MSTORE PUSH1 0x1C PUSH1 0x24 DUP3 ADD MSTORE PUSH32 0x43616E206F6E6C7920757365206F776E20696E6772656469656E747300000000 PUSH1 0x44 DUP3 ADD MSTORE PUSH1 0x64 SWAP1 REVERT JUMPDEST PUSH1 0x40 MLOAD PUSH3 0x461BCD PUSH1 0xE5 SHL DUP2 MSTORE PUSH1 0x20 PUSH1 0x4 DUP3 ADD MSTORE PUSH1 0x1E PUSH1 0x24 DUP3 ADD MSTORE PUSH32 0x43616E6E6F742075736520726563616C6C656420696E6772656469656E740000 PUSH1 0x44 DUP3 ADD MSTORE PUSH1 0x64 SWAP1 REVERT JUMPDEST PUSH1 0x40 MLOAD PUSH3 0x461BCD PUSH1 0xE5 SHL DUP2 MSTORE PUSH1 0x20 PUSH1 0x4 DUP3 ADD MSTORE PUSH1 0x15 PUSH1 0x24 DUP3 ADD MSTORE PUSH21 0x125B9D985B1A59081A5B99DC99591A595B9D081251 PUSH1 0x5A SHL PUSH1 0x44 DUP3 ADD MSTORE PUSH1 0x64 SWAP1 REVERT JUMPDEST POP SWAP1 DUP6 SWAP2 DUP8 PUSH1 0x0 SWAP6 PUSH1 0x2 DUP4 EQ PUSH2 0x176B JUMPI JUMPDEST PUSH2 0x12A0 PUSH1 0x7 SLOAD PUSH2 0x1DDD JUMP JUMPDEST SWAP6 DUP7 PUSH1 0x7 SSTORE PUSH1 0x40 MLOAD SWAP4 PUSH2 0x140 DUP6 ADD DUP6 DUP2 LT PUSH1 0x1 PUSH1 0x1 PUSH1 0x40 SHL SUB DUP3 GT OR PUSH2 0x1757 JUMPI PUSH1 0x40 MSTORE DUP8 DUP6 MSTORE PUSH1 0x20 DUP6 ADD SWAP2 DUP3 MSTORE PUSH1 0x40 DUP6 ADD SWAP9 POP DUP9 MSTORE PUSH1 0x60 DUP5 ADD SWAP8 CALLER DUP10 MSTORE PUSH1 0x80 DUP6 ADD DUP8 DUP2 MSTORE PUSH1 0xA0 DUP7 ADD SWAP2 TIMESTAMP DUP4 MSTORE PUSH1 0xC0 DUP8 ADD SWAP4 PUSH1 0x1 DUP6 MSTORE PUSH1 0xE0 DUP9 ADD SWAP6 DUP7 MSTORE PUSH2 0x100 DUP9 ADD SWAP7 DUP8 MSTORE PUSH2 0x120 DUP9 ADD SWAP9 DUP10 MSTORE DUP11 PUSH1 0x0 MSTORE PUSH1 0x3 PUSH1 0x20 MSTORE PUSH1 0x40 PUSH1 0x0 KECCAK256 SWAP8 MLOAD DUP9 SSTORE PUSH1 0x1 DUP9 ADD SWAP1 MLOAD DUP1 MLOAD SWAP1 PUSH1 0x1 PUSH1 0x1 PUSH1 0x40 SHL SUB DUP3 GT PUSH2 0x91B JUMPI DUP2 SWAP1 PUSH2 0x1341 DUP5 SLOAD PUSH2 0x1B26 JUMP JUMPDEST PUSH1 0x1F DUP2 GT PUSH2 0x1725 JUMPI JUMPDEST POP PUSH1 0x20 SWAP1 PUSH1 0x1F DUP4 GT PUSH1 0x1 EQ PUSH2 0x16C0 JUMPI PUSH1 0x0 SWAP3 PUSH2 0x16B5 JUMPI JUMPDEST POP POP DUP2 PUSH1 0x1 SHL SWAP2 PUSH1 0x0 NOT SWAP1 PUSH1 0x3 SHL SHR NOT AND OR SWAP1 SSTORE JUMPDEST PUSH1 0x2 DUP8 ADD SWAP1 MLOAD PUSH1 0x3 DUP2 LT ISZERO PUSH2 0x54B JUMPI PUSH1 0x0 SWAP12 PUSH1 0xFF DUP4 SLOAD SWAP2 PUSH2 0x100 PUSH1 0x1 PUSH1 0xA8 SHL SUB SWAP1 MLOAD PUSH1 0x8 SHL AND SWAP3 AND SWAP1 PUSH11 0xFFFFFFFFFFFFFFFFFFFFFF PUSH1 0xA8 SHL AND OR OR SWAP1 SSTORE PUSH1 0x3 DUP7 ADD SWAP1 MLOAD SWAP1 DUP2 MLOAD SWAP2 PUSH1 0x1 PUSH1 0x1 PUSH1 0x40 SHL SUB DUP4 GT PUSH2 0x16A1 JUMPI PUSH9 0x10000000000000000 DUP4 GT PUSH2 0x16A1 JUMPI PUSH1 0x20 SWAP1 DUP13 DUP4 SLOAD DUP6 DUP6 SSTORE DUP6 DUP2 DUP2 LT PUSH2 0x1686 JUMPI JUMPDEST POP POP POP ADD SWAP1 DUP12 MSTORE PUSH1 0x20 DUP12 KECCAK256 DUP12 JUMPDEST DUP4 DUP2 LT PUSH2 0x1672 JUMPI POP POP POP POP MLOAD PUSH1 0x4 DUP6 ADD SSTORE PUSH1 0x5 DUP5 ADD SWAP1 MLOAD ISZERO ISZERO PUSH1 0xFF DUP1 NOT DUP4 SLOAD AND SWAP2 AND OR SWAP1 SSTORE MLOAD PUSH1 0x6 DUP4 ADD SSTORE PUSH1 0x7 DUP3 ADD SWAP1 MLOAD DUP1 MLOAD SWAP1 PUSH1 0x1 PUSH1 0x1 PUSH1 0x40 SHL SUB DUP3 GT PUSH2 0x165E JUMPI PUSH2 0x1446 DUP4 SLOAD PUSH2 0x1B26 JUMP JUMPDEST PUSH1 0x1F DUP2 GT PUSH2 0x162E JUMPI JUMPDEST POP PUSH1 0x20 SWAP1 PUSH1 0x1F DUP4 GT PUSH1 0x1 EQ PUSH2 0x15C7 JUMPI PUSH1 0x8 SWAP5 SWAP4 SWAP3 SWAP2 DUP10 SWAP2 DUP4 PUSH2 0x15BC JUMPI JUMPDEST POP POP DUP2 PUSH1 0x1 SHL SWAP2 PUSH1 0x0 NOT SWAP1 PUSH1 0x3 SHL SHR NOT AND OR SWAP1 SSTORE JUMPDEST ADD SWAP1 MLOAD DUP1 MLOAD SWAP1 PUSH1 0x1 PUSH1 0x1 PUSH1 0x40 SHL SUB DUP3 GT PUSH2 0x15A8 JUMPI PUSH1 0x20 SWAP6 DUP3 SWAP2 PUSH2 0x14A4 DUP6 SLOAD PUSH2 0x1B26 JUMP JUMPDEST PUSH1 0x1F DUP2 GT PUSH2 0x157A JUMPI JUMPDEST POP DUP8 SWAP2 PUSH1 0x1F DUP5 GT PUSH1 0x1 EQ PUSH2 0x1518 JUMPI SWAP3 PUSH2 0x150D JUMPI JUMPDEST POP POP DUP2 PUSH1 0x1 SHL SWAP2 PUSH1 0x0 NOT SWAP1 PUSH1 0x3 SHL SHR NOT AND OR SWAP1 SSTORE JUMPDEST DUP2 PUSH32 0x3FECC7F83EC2CCA2FD6A1539B9D29AAD3247929594EBE0DA696AFA1D4025CDE7 PUSH1 0x40 MLOAD DUP6 DUP2 MSTORE DUP1 PUSH2 0x866 CALLER SWAP6 DUP9 DUP4 ADD SWAP1 PUSH2 0x1CFB JUMP JUMPDEST ADD MLOAD SWAP1 POP DUP7 DUP1 PUSH2 0x14C1 JUMP JUMPDEST DUP6 DUP2 MSTORE DUP3 DUP2 KECCAK256 SWAP4 POP PUSH1 0x1F NOT DUP6 AND SWAP1 JUMPDEST DUP2 DUP2 LT PUSH2 0x1563 JUMPI POP SWAP1 DUP5 PUSH1 0x1 SWAP6 SWAP5 SWAP4 SWAP3 LT PUSH2 0x154A JUMPI JUMPDEST POP POP POP DUP2 SHL ADD SWAP1 SSTORE PUSH2 0x14D6 JUMP JUMPDEST ADD MLOAD PUSH1 0x0 NOT PUSH1 0xF8 DUP5 PUSH1 0x3 SHL AND SHR NOT AND SWAP1 SSTORE DUP7 DUP1 DUP1 PUSH2 0x153D JUMP JUMPDEST SWAP3 SWAP4 DUP10 PUSH1 0x1 DUP2 SWAP3 DUP8 DUP7 ADD MLOAD DUP2 SSTORE ADD SWAP6 ADD SWAP4 ADD PUSH2 0x1527 JUMP JUMPDEST PUSH2 0x15A2 SWAP1 DUP7 DUP5 MSTORE DUP10 DUP5 KECCAK256 PUSH1 0x1F DUP7 ADD PUSH1 0x5 SHR DUP2 ADD SWAP2 DUP12 DUP8 LT PUSH2 0x911 JUMPI PUSH1 0x1F ADD PUSH1 0x5 SHR ADD SWAP1 PUSH2 0x1E02 JUMP JUMPDEST DUP9 PUSH2 0x14AD JUMP JUMPDEST PUSH4 0x4E487B71 PUSH1 0xE0 SHL DUP7 MSTORE PUSH1 0x41 PUSH1 0x4 MSTORE PUSH1 0x24 DUP7 REVERT JUMPDEST ADD MLOAD SWAP1 POP DUP10 DUP1 PUSH2 0x146C JUMP JUMPDEST DUP4 DUP10 MSTORE DUP2 DUP10 KECCAK256 SWAP2 SWAP1 PUSH1 0x1F NOT DUP5 AND DUP11 JUMPDEST DUP2 DUP2 LT PUSH2 0x1616 JUMPI POP SWAP2 PUSH1 0x1 SWAP4 SWAP2 DUP6 PUSH1 0x8 SWAP9 SWAP8 SWAP7 SWAP5 LT PUSH2 0x15FD JUMPI JUMPDEST POP POP POP DUP2 SHL ADD SWAP1 SSTORE PUSH2 0x1481 JUMP JUMPDEST ADD MLOAD PUSH1 0x0 NOT PUSH1 0xF8 DUP5 PUSH1 0x3 SHL AND SHR NOT AND SWAP1 SSTORE DUP10 DUP1 DUP1 PUSH2 0x15F0 JUMP JUMPDEST SWAP3 SWAP4 PUSH1 0x20 PUSH1 0x1 DUP2 SWAP3 DUP8 DUP7 ADD MLOAD DUP2 SSTORE ADD SWAP6 ADD SWAP4 ADD PUSH2 0x15D6 JUMP JUMPDEST PUSH2 0x1658 SWAP1 DUP5 DUP11 MSTORE PUSH1 0x20 DUP11 KECCAK256 PUSH1 0x1F DUP6 ADD PUSH1 0x5 SHR DUP2 ADD SWAP2 PUSH1 0x20 DUP7 LT PUSH2 0x911 JUMPI PUSH1 0x1F ADD PUSH1 0x5 SHR ADD SWAP1 PUSH2 0x1E02 JUMP JUMPDEST DUP9 PUSH2 0x144F JUMP JUMPDEST PUSH4 0x4E487B71 PUSH1 0xE0 SHL DUP9 MSTORE PUSH1 0x41 PUSH1 0x4 MSTORE PUSH1 0x24 DUP9 REVERT JUMPDEST PUSH1 0x1 SWAP1 PUSH1 0x20 DUP5 MLOAD SWAP5 ADD SWAP4 DUP2 DUP5 ADD SSTORE ADD PUSH2 0x13FA JUMP JUMPDEST DUP5 DUP4 DUP8 PUSH2 0x1699 SWAP6 MSTORE KECCAK256 SWAP2 DUP3 ADD SWAP2 ADD PUSH2 0x1E02 JUMP JUMPDEST DUP13 DUP15 DUP6 PUSH2 0x13ED JUMP JUMPDEST PUSH4 0x4E487B71 PUSH1 0xE0 SHL DUP13 MSTORE PUSH1 0x41 PUSH1 0x4 MSTORE PUSH1 0x24 DUP13 REVERT JUMPDEST ADD MLOAD SWAP1 POP DUP15 DUP1 PUSH2 0x1361 JUMP JUMPDEST PUSH1 0x0 DUP6 DUP2 MSTORE DUP3 DUP2 KECCAK256 SWAP4 POP PUSH1 0x1F NOT DUP6 AND SWAP1 JUMPDEST DUP2 DUP2 LT PUSH2 0x170D JUMPI POP SWAP1 DUP5 PUSH1 0x1 SWAP6 SWAP5 SWAP4 SWAP3 LT PUSH2 0x16F4 JUMPI JUMPDEST POP POP POP DUP2 SHL ADD SWAP1 SSTORE PUSH2 0x1376 JUMP JUMPDEST ADD MLOAD PUSH1 0x0 NOT PUSH1 0xF8 DUP5 PUSH1 0x3 SHL AND SHR NOT AND SWAP1 SSTORE DUP15 DUP1 DUP1 PUSH2 0x16E7 JUMP JUMPDEST SWAP3 SWAP4 PUSH1 0x20 PUSH1 0x1 DUP2 SWAP3 DUP8 DUP7 ADD MLOAD DUP2 SSTORE ADD SWAP6 ADD SWAP4 ADD PUSH2 0x16D1 JUMP JUMPDEST PUSH2 0x1751 SWAP1 DUP6 PUSH1 0x0 MSTORE PUSH1 0x20 PUSH1 0x0 KECCAK256 PUSH1 0x1F DUP6 ADD PUSH1 0x5 SHR DUP2 ADD SWAP2 PUSH1 0x20 DUP7 LT PUSH2 0x911 JUMPI PUSH1 0x1F ADD PUSH1 0x5 SHR ADD SWAP1 PUSH2 0x1E02 JUMP JUMPDEST DUP16 PUSH2 0x134A JUMP JUMPDEST PUSH4 0x4E487B71 PUSH1 0xE0 SHL DUP11 MSTORE PUSH1 0x41 PUSH1 0x4 MSTORE PUSH1 0x24 DUP11 REVERT JUMPDEST PUSH2 0x578 DUP2 GT ISZERO PUSH2 0x1295 JUMPI PUSH1 0x40 MLOAD PUSH3 0x461BCD PUSH1 0xE5 SHL DUP2 MSTORE PUSH1 0x20 PUSH1 0x4 DUP3 ADD MSTORE PUSH1 0x10 PUSH1 0x24 DUP3 ADD MSTORE PUSH16 0x496E76616C69642070482076616C7565 PUSH1 0x80 SHL PUSH1 0x44 DUP3 ADD MSTORE PUSH1 0x64 SWAP1 REVERT JUMPDEST PUSH1 0x40 MLOAD PUSH3 0x461BCD PUSH1 0xE5 SHL DUP2 MSTORE PUSH1 0x20 PUSH1 0x4 DUP3 ADD MSTORE PUSH1 0x29 PUSH1 0x24 DUP3 ADD MSTORE PUSH32 0x50726F64756374206D7573742068617665206174206C65617374206F6E652069 PUSH1 0x44 DUP3 ADD MSTORE PUSH9 0x1B99DC99591A595B9D PUSH1 0xBA SHL PUSH1 0x64 DUP3 ADD MSTORE PUSH1 0x84 SWAP1 REVERT JUMPDEST POP CALLER PUSH1 0x0 MSTORE PUSH1 0x4 PUSH1 0x20 MSTORE PUSH1 0xFF PUSH1 0x40 PUSH1 0x0 KECCAK256 SLOAD AND PUSH1 0x2 DUP2 LT ISZERO PUSH2 0x54B JUMPI PUSH1 0x1 EQ PUSH2 0x112A JUMP JUMPDEST DUP2 CALLDATALOAD DUP2 MSTORE PUSH1 0x20 SWAP2 DUP3 ADD SWAP2 ADD PUSH2 0x10C6 JUMP JUMPDEST CALLVALUE PUSH2 0x17D JUMPI PUSH1 0x20 CALLDATASIZE PUSH1 0x3 NOT ADD SLT PUSH2 0x17D JUMPI PUSH1 0x4 CALLDATALOAD PUSH1 0x0 MSTORE PUSH1 0x2 PUSH1 0x20 MSTORE PUSH1 0x40 PUSH1 0x0 KECCAK256 DUP1 SLOAD PUSH1 0x1 DUP3 ADD PUSH2 0x1868 SWAP1 PUSH2 0x1B9C JUMP JUMPDEST SWAP2 PUSH2 0x1875 PUSH1 0x2 DUP3 ADD PUSH2 0x1B9C JUMP JUMPDEST SWAP1 PUSH1 0x1 PUSH1 0xA0 SHL PUSH1 0x1 SWAP1 SUB PUSH1 0x3 DUP3 ADD SLOAD AND PUSH1 0x4 DUP3 ADD SLOAD PUSH1 0x5 DUP4 ADD SLOAD PUSH1 0xFF AND PUSH1 0x40 MLOAD PUSH2 0x189E DUP2 PUSH2 0x1B60 JUMP JUMPDEST PUSH1 0x6 DUP6 ADD SLOAD DUP2 MSTORE PUSH1 0x7 DUP6 ADD SLOAD PUSH1 0x20 DUP3 ADD SWAP1 DUP2 MSTORE PUSH1 0x8 DUP7 ADD SLOAD SWAP1 PUSH1 0x40 DUP4 ADD SWAP2 DUP3 MSTORE PUSH1 0x9 DUP8 ADD SLOAD SWAP3 PUSH1 0x60 DUP2 ADD SWAP4 DUP5 MSTORE PUSH1 0xA DUP9 ADD SLOAD SWAP5 PUSH1 0xB DUP10 ADD SLOAD SWAP7 PUSH1 0xC DUP11 ADD PUSH2 0x18E4 SWAP1 PUSH2 0x1B9C JUMP JUMPDEST SWAP10 PUSH1 0xD ADD PUSH2 0x18F1 SWAP1 PUSH2 0x1B9C JUMP JUMPDEST SWAP11 PUSH1 0x40 MLOAD SWAP14 DUP15 SWAP14 DUP15 MSTORE DUP14 PUSH1 0x20 DUP2 ADD PUSH2 0x1C0 SWAP1 MSTORE PUSH2 0x1C0 ADD PUSH2 0x1911 SWAP2 PUSH2 0x1C40 JUMP JUMPDEST DUP14 DUP2 SUB PUSH1 0x40 DUP16 ADD MSTORE PUSH2 0x1922 SWAP2 PUSH2 0x1C40 JUMP JUMPDEST SWAP9 PUSH1 0x60 DUP14 ADD MSTORE PUSH1 0x80 DUP13 ADD MSTORE ISZERO ISZERO PUSH1 0xA0 DUP12 ADD MSTORE MLOAD PUSH1 0xC0 DUP11 ADD MSTORE MLOAD PUSH1 0xE0 DUP10 ADD MSTORE MLOAD PUSH2 0x100 DUP9 ADD MSTORE MLOAD PUSH2 0x120 DUP8 ADD MSTORE PUSH2 0x140 DUP7 ADD MSTORE PUSH2 0x160 DUP6 ADD MSTORE DUP4 DUP2 SUB PUSH2 0x180 DUP6 ADD MSTORE PUSH2 0x2A2 SWAP2 PUSH2 0x1C40 JUMP JUMPDEST CALLVALUE PUSH2 0x17D JUMPI PUSH1 0x20 CALLDATASIZE PUSH1 0x3 NOT ADD SLT PUSH2 0x17D JUMPI PUSH1 0x4 CALLDATALOAD PUSH1 0x1 PUSH1 0x1 PUSH1 0xA0 SHL SUB DUP2 AND SWAP1 DUP2 SWAP1 SUB PUSH2 0x17D JUMPI DUP1 PUSH1 0x0 MSTORE PUSH1 0x5 PUSH1 0x20 MSTORE PUSH1 0xFF PUSH1 0x40 PUSH1 0x0 KECCAK256 SLOAD AND ISZERO PUSH2 0x19C9 JUMPI PUSH1 0x0 MSTORE PUSH1 0x4 PUSH1 0x20 MSTORE PUSH2 0x2B4 PUSH1 0xFF PUSH1 0x40 PUSH1 0x0 KECCAK256 SLOAD AND PUSH1 0x40 MLOAD SWAP2 DUP3 SWAP2 DUP3 PUSH2 0x1B13 JUMP JUMPDEST PUSH1 0x40 MLOAD PUSH3 0x461BCD PUSH1 0xE5 SHL DUP2 MSTORE PUSH1 0x20 PUSH1 0x4 DUP3 ADD MSTORE PUSH1 0x13 PUSH1 0x24 DUP3 ADD MSTORE PUSH19 0x155CD95C881B9BDD081C9959DA5CDD195C9959 PUSH1 0x6A SHL PUSH1 0x44 DUP3 ADD MSTORE PUSH1 0x64 SWAP1 REVERT JUMPDEST CALLVALUE PUSH2 0x17D JUMPI PUSH1 0x0 CALLDATASIZE PUSH1 0x3 NOT ADD SLT PUSH2 0x17D JUMPI PUSH1 0x20 PUSH1 0x7 SLOAD PUSH1 0x40 MLOAD SWAP1 DUP2 MSTORE RETURN JUMPDEST CALLVALUE PUSH2 0x17D JUMPI PUSH1 0x20 CALLDATASIZE PUSH1 0x3 NOT ADD SLT PUSH2 0x17D JUMPI PUSH1 0x4 CALLDATALOAD PUSH1 0x1 PUSH1 0x1 PUSH1 0xA0 SHL SUB DUP2 AND SWAP1 DUP2 SWAP1 SUB PUSH2 0x17D JUMPI PUSH1 0x0 MSTORE PUSH1 0x5 PUSH1 0x20 MSTORE PUSH1 0x20 PUSH1 0xFF PUSH1 0x40 PUSH1 0x0 KECCAK256 SLOAD AND PUSH1 0x40 MLOAD SWAP1 ISZERO ISZERO DUP2 MSTORE RETURN JUMPDEST CALLVALUE PUSH2 0x17D JUMPI PUSH1 0x20 CALLDATASIZE PUSH1 0x3 NOT ADD SLT PUSH2 0x17D JUMPI PUSH1 0x4 CALLDATALOAD SWAP1 PUSH1 0x2 DUP3 LT ISZERO PUSH2 0x17D JUMPI CALLER PUSH1 0x0 MSTORE PUSH1 0x5 PUSH1 0x20 MSTORE PUSH1 0xFF PUSH1 0x40 PUSH1 0x0 KECCAK256 SLOAD AND PUSH2 0x1AD1 JUMPI POP CALLER PUSH1 0x0 MSTORE PUSH1 0x4 PUSH1 0x20 MSTORE PUSH1 0x40 PUSH1 0x0 KECCAK256 PUSH1 0x0 SWAP2 PUSH1 0xFF DUP1 NOT DUP4 SLOAD AND SWAP2 AND OR SWAP1 SSTORE CALLER DUP2 MSTORE PUSH1 0x5 PUSH1 0x20 MSTORE PUSH1 0x40 DUP2 KECCAK256 PUSH1 0x1 PUSH1 0xFF NOT DUP3 SLOAD AND OR SWAP1 SSTORE DUP1 RETURN JUMPDEST PUSH3 0x461BCD PUSH1 0xE5 SHL DUP2 MSTORE PUSH1 0x20 PUSH1 0x4 DUP3 ADD MSTORE PUSH1 0x17 PUSH1 0x24 DUP3 ADD MSTORE PUSH32 0x5573657220616C72656164792072656769737465726564000000000000000000 PUSH1 0x44 DUP3 ADD MSTORE PUSH1 0x64 SWAP1 REVERT JUMPDEST SWAP2 SWAP1 PUSH1 0x20 DUP4 ADD SWAP3 PUSH1 0x2 DUP3 LT ISZERO PUSH2 0x54B JUMPI MSTORE JUMP JUMPDEST SWAP1 PUSH1 0x1 DUP3 DUP2 SHR SWAP3 AND DUP1 ISZERO PUSH2 0x1B56 JUMPI JUMPDEST PUSH1 0x20 DUP4 LT EQ PUSH2 0x1B40 JUMPI JUMP JUMPDEST PUSH4 0x4E487B71 PUSH1 0xE0 SHL PUSH1 0x0 MSTORE PUSH1 0x22 PUSH1 0x4 MSTORE PUSH1 0x24 PUSH1 0x0 REVERT JUMPDEST SWAP2 PUSH1 0x7F AND SWAP2 PUSH2 0x1B35 JUMP JUMPDEST PUSH1 0x80 DUP2 ADD SWAP1 DUP2 LT PUSH1 0x1 PUSH1 0x1 PUSH1 0x40 SHL SUB DUP3 GT OR PUSH2 0x91B JUMPI PUSH1 0x40 MSTORE JUMP JUMPDEST SWAP1 PUSH1 0x1F DUP1 NOT SWAP2 ADD AND DUP2 ADD SWAP1 DUP2 LT PUSH1 0x1 PUSH1 0x1 PUSH1 0x40 SHL SUB DUP3 GT OR PUSH2 0x91B JUMPI PUSH1 0x40 MSTORE JUMP JUMPDEST SWAP1 PUSH1 0x40 MLOAD SWAP2 DUP3 PUSH1 0x0 DUP3 SLOAD SWAP3 PUSH2 0x1BB0 DUP5 PUSH2 0x1B26 JUMP JUMPDEST DUP1 DUP5 MSTORE SWAP4 PUSH1 0x1 DUP2 AND SWAP1 DUP2 ISZERO PUSH2 0x1C1E JUMPI POP PUSH1 0x1 EQ PUSH2 0x1BD7 JUMPI JUMPDEST POP PUSH2 0x1BD5 SWAP3 POP SUB DUP4 PUSH2 0x1B7B JUMP JUMPDEST JUMP JUMPDEST SWAP1 POP PUSH1 0x0 SWAP3 SWAP2 SWAP3 MSTORE PUSH1 0x20 PUSH1 0x0 KECCAK256 SWAP1 PUSH1 0x0 SWAP2 JUMPDEST DUP2 DUP4 LT PUSH2 0x1C02 JUMPI POP POP SWAP1 PUSH1 0x20 PUSH2 0x1BD5 SWAP3 DUP3 ADD ADD CODESIZE PUSH2 0x1BC8 JUMP JUMPDEST PUSH1 0x20 SWAP2 SWAP4 POP DUP1 PUSH1 0x1 SWAP2 SLOAD DUP4 DUP6 DUP10 ADD ADD MSTORE ADD SWAP2 ADD SWAP1 SWAP2 DUP5 SWAP3 PUSH2 0x1BE9 JUMP JUMPDEST SWAP1 POP PUSH1 0x20 SWAP3 POP PUSH2 0x1BD5 SWAP5 SWAP2 POP PUSH1 0xFF NOT AND DUP3 DUP5 ADD MSTORE ISZERO ISZERO PUSH1 0x5 SHL DUP3 ADD ADD CODESIZE PUSH2 0x1BC8 JUMP JUMPDEST SWAP2 SWAP1 DUP3 MLOAD SWAP3 DUP4 DUP3 MSTORE PUSH1 0x0 JUMPDEST DUP5 DUP2 LT PUSH2 0x1C6C JUMPI POP POP DUP3 PUSH1 0x0 PUSH1 0x20 DUP1 SWAP5 SWAP6 DUP5 ADD ADD MSTORE PUSH1 0x1F DUP1 NOT SWAP2 ADD AND ADD ADD SWAP1 JUMP JUMPDEST DUP1 PUSH1 0x20 DUP1 SWAP3 DUP5 ADD ADD MLOAD DUP3 DUP3 DUP7 ADD ADD MSTORE ADD PUSH2 0x1C4B JUMP JUMPDEST DUP2 PUSH1 0x1F DUP3 ADD SLT ISZERO PUSH2 0x17D JUMPI DUP1 CALLDATALOAD SWAP1 PUSH1 0x1 PUSH1 0x1 PUSH1 0x40 SHL SUB DUP3 GT PUSH2 0x91B JUMPI PUSH1 0x40 MLOAD SWAP3 PUSH2 0x1CB5 PUSH1 0x1F DUP5 ADD PUSH1 0x1F NOT AND PUSH1 0x20 ADD DUP6 PUSH2 0x1B7B JUMP JUMPDEST DUP3 DUP5 MSTORE PUSH1 0x20 DUP4 DUP4 ADD ADD GT PUSH2 0x17D JUMPI DUP2 PUSH1 0x0 SWAP3 PUSH1 0x20 DUP1 SWAP4 ADD DUP4 DUP7 ADD CALLDATACOPY DUP4 ADD ADD MSTORE SWAP1 JUMP JUMPDEST PUSH1 0x1 PUSH1 0x1 PUSH1 0x40 SHL SUB DUP2 GT PUSH2 0x91B JUMPI PUSH1 0x5 SHL PUSH1 0x20 ADD SWAP1 JUMP JUMPDEST SWAP1 PUSH1 0x3 DUP3 LT ISZERO PUSH2 0x54B JUMPI MSTORE JUMP JUMPDEST SWAP1 PUSH1 0x20 DUP1 DUP4 MLOAD SWAP3 DUP4 DUP2 MSTORE ADD SWAP3 ADD SWAP1 PUSH1 0x0 JUMPDEST DUP2 DUP2 LT PUSH2 0x1D19 JUMPI POP POP POP SWAP1 JUMP JUMPDEST DUP3 MLOAD DUP5 MSTORE PUSH1 0x20 SWAP4 DUP5 ADD SWAP4 SWAP1 SWAP3 ADD SWAP2 PUSH1 0x1 ADD PUSH2 0x1D0C JUMP JUMPDEST ISZERO PUSH2 0x1D36 JUMPI JUMP JUMPDEST PUSH1 0x40 MLOAD PUSH3 0x461BCD PUSH1 0xE5 SHL DUP2 MSTORE PUSH1 0x20 PUSH1 0x4 DUP3 ADD MSTORE PUSH1 0x16 PUSH1 0x24 DUP3 ADD MSTORE PUSH22 0x13DB9B1E481B595C98DA185B9D1CC8185B1B1BDDD959 PUSH1 0x52 SHL PUSH1 0x44 DUP3 ADD MSTORE PUSH1 0x64 SWAP1 REVERT JUMPDEST ISZERO PUSH2 0x1D7B JUMPI JUMP JUMPDEST PUSH1 0x40 MLOAD PUSH3 0x461BCD PUSH1 0xE5 SHL DUP2 MSTORE PUSH1 0x20 PUSH1 0x4 DUP3 ADD MSTORE PUSH1 0x10 PUSH1 0x24 DUP3 ADD MSTORE PUSH16 0x13985B59481A5CC81C995C5D5A5C9959 PUSH1 0x82 SHL PUSH1 0x44 DUP3 ADD MSTORE PUSH1 0x64 SWAP1 REVERT JUMPDEST DUP1 MLOAD DUP3 LT ISZERO PUSH2 0x1DC7 JUMPI PUSH1 0x20 SWAP2 PUSH1 0x5 SHL ADD ADD SWAP1 JUMP JUMPDEST PUSH4 0x4E487B71 PUSH1 0xE0 SHL PUSH1 0x0 MSTORE PUSH1 0x32 PUSH1 0x4 MSTORE PUSH1 0x24 PUSH1 0x0 REVERT JUMPDEST PUSH1 0x0 NOT DUP2 EQ PUSH2 0x1DEC JUMPI PUSH1 0x1 ADD SWAP1 JUMP JUMPDEST PUSH4 0x4E487B71 PUSH1 0xE0 SHL PUSH1 0x0 MSTORE PUSH1 0x11 PUSH1 0x4 MSTORE PUSH1 0x24 PUSH1 0x0 REVERT JUMPDEST DUP2 DUP2 LT PUSH2 0x1E0D JUMPI POP POP JUMP JUMPDEST PUSH1 0x0 DUP2 SSTORE PUSH1 0x1 ADD PUSH2 0x1E02 JUMP JUMPDEST ISZERO PUSH2 0x1E20 JUMPI JUMP JUMPDEST PUSH1 0x40 MLOAD PUSH3 0x461BCD PUSH1 0xE5 SHL DUP2 MSTORE PUSH1 0x20 PUSH1 0x4 DUP3 ADD MSTORE PUSH1 0x16 PUSH1 0x24 DUP3 ADD MSTORE PUSH22 0x141C9BD91D58DD08191BD95CC81B9BDD08195E1A5CDD PUSH1 0x52 SHL PUSH1 0x44 DUP3 ADD MSTORE PUSH1 0x64 SWAP1 REVERT JUMPDEST DUP1 SLOAD DUP3 LT ISZERO PUSH2 0x1DC7 JUMPI PUSH1 0x0 MSTORE PUSH1 0x20 PUSH1 0x0 KECCAK256 ADD SWAP1 PUSH1 0x0 SWAP1 JUMP JUMPDEST ISZERO PUSH2 0x1E7D JUMPI JUMP JUMPDEST PUSH1 0x40 MLOAD PUSH3 0x461BCD PUSH1 0xE5 SHL DUP2 MSTORE PUSH1 0x20 PUSH1 0x4 DUP3 ADD MSTORE PUSH1 0x19 PUSH1 0x24 DUP3 ADD MSTORE PUSH32 0x496E6772656469656E7420646F6573206E6F7420657869737400000000000000 PUSH1 0x44 DUP3 ADD MSTORE PUSH1 0x64 SWAP1 REVERT JUMPDEST SWAP1 PUSH2 0x1ECC DUP3 PUSH2 0x1CD7 JUMP JUMPDEST PUSH2 0x1ED9 PUSH1 0x40 MLOAD SWAP2 DUP3 PUSH2 0x1B7B JUMP JUMPDEST DUP3 DUP2 MSTORE DUP1 SWAP3 PUSH2 0x1EEA PUSH1 0x1F NOT SWAP2 PUSH2 0x1CD7 JUMP JUMPDEST ADD SWAP1 PUSH1 0x20 CALLDATASIZE SWAP2 ADD CALLDATACOPY JUMP JUMPDEST PUSH1 0x0 SLOAD PUSH1 0x1 PUSH1 0x1 PUSH1 0xA0 SHL SUB AND CALLER SUB PUSH2 0x1F08 JUMPI JUMP JUMPDEST PUSH4 0x118CDAA7 PUSH1 0xE0 SHL PUSH1 0x0 MSTORE CALLER PUSH1 0x4 MSTORE PUSH1 0x24 PUSH1 0x0 REVERT INVALID LOG2 PUSH5 0x6970667358 0x22 SLT KECCAK256 0xAF PUSH13 0x859D286C30052209026ACB0B2A ISZERO 0xC8 0xB0 DUP15 0xD CALLER PUSH16 0x8BCD076F99ABA0C10FC764736F6C6343 STOP ADDMOD SHR STOP CALLER "},"methodIdentifiers":{"createProduct(string,uint8,uint256[],uint256,string,string)":"4383b5c2","getAffectedProducts(uint256)":"bf18e0f6","getIngredientInfo(uint256)":"cf770e16","getProductInfo(uint256)":"79a85e6c","getUserRole(address)":"27820851","ingredientCounter()":"c5c0c5a9","ingredients(uint256)":"2d165382","initiateRecall(uint256,string)":"9a8c75f5","isUserRegistered(address)":"163f7522","owner()":"8da5cb5b","productCounter()":"1f16653b","products(uint256)":"7acc0b20","registerIngredient(string,string,int256,int256,uint256,uint256,uint256,uint256,string,string)":"94ddda00","registerUser(uint8)":"02b8c8cd","registeredUsers(address)":"0e50cee5","renounceOwnership()":"715018a6","transferOwnership(address)":"f2fde38b","userRoles(address)":"74d5e100","verifyProduct(uint256)":"524e8462"}}}}}