{"contracts/NutriGuard.sol":{"NutriGuard":{"abi":[{"inputs":[],"stateMutability":"nonpayable","type":"constructor"},{"inputs":[{"internalType":"address","name":"owner","type":"address"}],"name":"OwnableInvalidOwner","type":"error"},{"inputs":[{"internalType":"address","name":"account","type":"address"}],"name":"OwnableUnauthorizedAccount","type":"error"},{"inputs":[],"name":"ReentrancyGuardReentrantCall","type":"error"},{"anonymous":false,"inputs":[{"indexed":true,"internalType":"uint256","name":"productId","type":"uint256"},{"indexed":true,"internalType":"address","name":"consumer","type":"address"},{"indexed":false,"internalType":"string","name":"reason","type":"string"}],"name":"AlertEmailSent","type":"event"},{"anonymous":false,"inputs":[{"indexed":true,"internalType":"uint256","name":"feedbackId","type":"uint256"},{"indexed":true,"internalType":"uint256","name":"productId","type":"uint256"},{"indexed":true,"internalType":"address","name":"consumer","type":"address"}],"name":"ConsumerFeedbackSubmitted","type":"event"},{"anonymous":false,"inputs":[{"indexed":true,"internalType":"uint256","name":"productId","type":"uint256"},{"indexed":true,"internalType":"address","name":"consumer","type":"address"},{"indexed":false,"internalType":"string","name":"email","type":"string"}],"name":"ConsumerRegistered","type":"event"},{"anonymous":false,"inputs":[{"indexed":true,"internalType":"uint256","name":"feedbackId","type":"uint256"},{"indexed":true,"internalType":"address","name":"merchant","type":"address"},{"indexed":false,"internalType":"uint256","name":"timestamp","type":"uint256"}],"name":"FeedbackProcessed","type":"event"},{"anonymous":false,"inputs":[{"indexed":true,"internalType":"uint256","name":"ingredientId","type":"uint256"},{"indexed":true,"internalType":"address","name":"merchant","type":"address"},{"indexed":false,"internalType":"string","name":"name","type":"string"},{"indexed":false,"internalType":"string","name":"upc","type":"string"}],"name":"IngredientRegistered","type":"event"},{"anonymous":false,"inputs":[{"indexed":true,"internalType":"address","name":"previousOwner","type":"address"},{"indexed":true,"internalType":"address","name":"newOwner","type":"address"}],"name":"OwnershipTransferred","type":"event"},{"anonymous":false,"inputs":[{"indexed":true,"internalType":"uint256","name":"productId","type":"uint256"},{"indexed":true,"internalType":"address","name":"merchant","type":"address"},{"indexed":false,"internalType":"uint256[]","name":"ingredientIds","type":"uint256[]"}],"name":"ProductCreated","type":"event"},{"anonymous":false,"inputs":[{"indexed":true,"internalType":"uint256","name":"productId","type":"uint256"},{"indexed":true,"internalType":"address","name":"verifier","type":"address"},{"indexed":false,"internalType":"uint256","name":"timestamp","type":"uint256"}],"name":"ProductVerified","type":"event"},{"anonymous":false,"inputs":[{"indexed":true,"internalType":"uint256","name":"productId","type":"uint256"},{"indexed":true,"internalType":"address","name":"merchant","type":"address"},{"indexed":false,"internalType":"bool","name":"compliant","type":"bool"}],"name":"ProductionDataSubmitted","type":"event"},{"anonymous":false,"inputs":[{"indexed":true,"internalType":"uint256","name":"productId","type":"uint256"},{"indexed":false,"internalType":"string","name":"qrCodeHash","type":"string"}],"name":"QRCodeGenerated","type":"event"},{"anonymous":false,"inputs":[{"indexed":true,"internalType":"uint256","name":"ingredientId","type":"uint256"},{"indexed":false,"internalType":"string","name":"reason","type":"string"},{"indexed":false,"internalType":"uint256","name":"timestamp","type":"uint256"}],"name":"RecallInitiated","type":"event"},{"anonymous":false,"inputs":[{"indexed":true,"internalType":"uint256","name":"supplierId","type":"uint256"},{"indexed":true,"internalType":"address","name":"merchant","type":"address"},{"indexed":false,"internalType":"string","name":"name","type":"string"}],"name":"SupplierRegistered","type":"event"},{"inputs":[{"internalType":"address","name":"","type":"address"},{"internalType":"uint256","name":"","type":"uint256"}],"name":"consumerProductRegistered","outputs":[{"internalType":"bool","name":"","type":"bool"}],"stateMutability":"view","type":"function"},{"inputs":[{"internalType":"string","name":"_name","type":"string"},{"internalType":"string","name":"_description","type":"string"},{"internalType":"string","name":"_upc","type":"string"},{"internalType":"enum NutriGuard.ProductCategory","name":"_category","type":"uint8"},{"internalType":"uint256[]","name":"_ingredientIds","type":"uint256[]"},{"internalType":"string","name":"_ipfsHash","type":"string"},{"internalType":"int256","name":"_minTemp","type":"int256"},{"internalType":"int256","name":"_maxTemp","type":"int256"},{"internalType":"uint256","name":"_minHumidity","type":"uint256"},{"internalType":"uint256","name":"_maxHumidity","type":"uint256"},{"internalType":"uint256","name":"_minWeight","type":"uint256"},{"internalType":"uint256","name":"_maxWeight","type":"uint256"},{"internalType":"uint256","name":"_minPH","type":"uint256"},{"internalType":"uint256","name":"_maxPH","type":"uint256"}],"name":"createProduct","outputs":[{"internalType":"uint256","name":"","type":"uint256"}],"stateMutability":"nonpayable","type":"function"},{"inputs":[],"name":"feedbackCounter","outputs":[{"internalType":"uint256","name":"","type":"uint256"}],"stateMutability":"view","type":"function"},{"inputs":[{"internalType":"uint256","name":"","type":"uint256"}],"name":"feedbacks","outputs":[{"internalType":"uint256","name":"id","type":"uint256"},{"internalType":"uint256","name":"productId","type":"uint256"},{"internalType":"address","name":"consumer","type":"address"},{"internalType":"string","name":"feedbackText","type":"string"},{"internalType":"uint256","name":"rating","type":"uint256"},{"internalType":"uint256","name":"timestamp","type":"uint256"},{"internalType":"bool","name":"isProcessed","type":"bool"}],"stateMutability":"view","type":"function"},{"inputs":[{"internalType":"uint256","name":"_productId","type":"uint256"},{"internalType":"string","name":"_qrCodeHash","type":"string"}],"name":"generateQRCode","outputs":[],"stateMutability":"nonpayable","type":"function"},{"inputs":[{"internalType":"uint256","name":"_ingredientId","type":"uint256"}],"name":"getAffectedProducts","outputs":[{"internalType":"uint256[]","name":"","type":"uint256[]"}],"stateMutability":"view","type":"function"},{"inputs":[{"internalType":"address","name":"_consumer","type":"address"}],"name":"getConsumerFeedbacks","outputs":[{"internalType":"uint256[]","name":"","type":"uint256[]"}],"stateMutability":"view","type":"function"},{"inputs":[{"internalType":"address","name":"_consumer","type":"address"}],"name":"getConsumerProducts","outputs":[{"internalType":"uint256[]","name":"","type":"uint256[]"}],"stateMutability":"view","type":"function"},{"inputs":[{"internalType":"uint256","name":"_feedbackId","type":"uint256"}],"name":"getFeedback","outputs":[{"internalType":"uint256","name":"id","type":"uint256"},{"internalType":"uint256","name":"productId","type":"uint256"},{"internalType":"address","name":"consumer","type":"address"},{"internalType":"string","name":"feedbackText","type":"string"},{"internalType":"uint256","name":"rating","type":"uint256"},{"internalType":"uint256","name":"timestamp","type":"uint256"},{"internalType":"bool","name":"isProcessed","type":"bool"}],"stateMutability":"view","type":"function"},{"inputs":[{"internalType":"uint256","name":"_ingredientId","type":"uint256"}],"name":"getIngredientInfo","outputs":[{"internalType":"uint256","name":"id","type":"uint256"},{"internalType":"string","name":"name","type":"string"},{"internalType":"string","name":"category","type":"string"},{"internalType":"string","name":"upc","type":"string"},{"internalType":"uint256","name":"supplierId","type":"uint256"},{"internalType":"address","name":"merchant","type":"address"},{"internalType":"uint256","name":"createdAt","type":"uint256"},{"internalType":"uint256","name":"productionDate","type":"uint256"},{"internalType":"uint256","name":"expiryDate","type":"uint256"},{"internalType":"string","name":"batchNumber","type":"string"},{"internalType":"bool","name":"isRecalled","type":"bool"},{"internalType":"bool","name":"isContaminated","type":"bool"},{"internalType":"int256","name":"minTemp","type":"int256"},{"internalType":"int256","name":"maxTemp","type":"int256"},{"internalType":"uint256","name":"minHumidity","type":"uint256"},{"internalType":"uint256","name":"maxHumidity","type":"uint256"},{"internalType":"uint256","name":"weight","type":"uint256"},{"internalType":"string","name":"ipfsHash","type":"string"}],"stateMutability":"view","type":"function"},{"inputs":[{"internalType":"address","name":"_merchant","type":"address"}],"name":"getMerchantIngredients","outputs":[{"internalType":"uint256[]","name":"","type":"uint256[]"}],"stateMutability":"view","type":"function"},{"inputs":[{"internalType":"address","name":"_merchant","type":"address"}],"name":"getMerchantProducts","outputs":[{"internalType":"uint256[]","name":"","type":"uint256[]"}],"stateMutability":"view","type":"function"},{"inputs":[{"internalType":"address","name":"_merchant","type":"address"}],"name":"getMerchantSuppliers","outputs":[{"internalType":"uint256[]","name":"","type":"uint256[]"}],"stateMutability":"view","type":"function"},{"inputs":[{"internalType":"uint256","name":"_productId","type":"uint256"}],"name":"getProductConsumers","outputs":[{"internalType":"address[]","name":"consumers","type":"address[]"},{"internalType":"string[]","name":"emails","type":"string[]"},{"internalType":"uint256[]","name":"registeredTimes","type":"uint256[]"}],"stateMutability":"view","type":"function"},{"inputs":[{"internalType":"uint256","name":"_productId","type":"uint256"}],"name":"getProductFeedbacks","outputs":[{"internalType":"uint256[]","name":"","type":"uint256[]"}],"stateMutability":"view","type":"function"},{"inputs":[{"internalType":"uint256","name":"_productId","type":"uint256"}],"name":"getProductInfo","outputs":[{"internalType":"uint256","name":"id","type":"uint256"},{"internalType":"string","name":"name","type":"string"},{"internalType":"string","name":"description","type":"string"},{"internalType":"string","name":"upc","type":"string"},{"internalType":"enum NutriGuard.ProductCategory","name":"category","type":"uint8"},{"internalType":"enum NutriGuard.ProductStatus","name":"status","type":"uint8"},{"internalType":"address","name":"merchant","type":"address"},{"internalType":"uint256[]","name":"ingredientIds","type":"uint256[]"},{"internalType":"uint256","name":"createdAt","type":"uint256"},{"internalType":"uint256","name":"productionDate","type":"uint256"},{"internalType":"bool","name":"isValid","type":"bool"},{"internalType":"bool","name":"canGenerateQR","type":"bool"},{"internalType":"string","name":"qrCodeHash","type":"string"},{"internalType":"string","name":"ipfsHash","type":"string"}],"stateMutability":"view","type":"function"},{"inputs":[{"internalType":"uint256","name":"_productId","type":"uint256"}],"name":"getProductQualityRule","outputs":[{"internalType":"int256","name":"minTemperature","type":"int256"},{"internalType":"int256","name":"maxTemperature","type":"int256"},{"internalType":"uint256","name":"minHumidity","type":"uint256"},{"internalType":"uint256","name":"maxHumidity","type":"uint256"},{"internalType":"uint256","name":"minWeight","type":"uint256"},{"internalType":"uint256","name":"maxWeight","type":"uint256"},{"internalType":"uint256","name":"minPH","type":"uint256"},{"internalType":"uint256","name":"maxPH","type":"uint256"},{"internalType":"bool","name":"isActive","type":"bool"}],"stateMutability":"view","type":"function"},{"inputs":[{"internalType":"uint256","name":"_productId","type":"uint256"}],"name":"getProductionData","outputs":[{"internalType":"int256","name":"temperature","type":"int256"},{"internalType":"uint256","name":"humidity","type":"uint256"},{"internalType":"uint256","name":"weight","type":"uint256"},{"internalType":"uint256","name":"phValue","type":"uint256"},{"internalType":"uint256","name":"timestamp","type":"uint256"},{"internalType":"bool","name":"isCompliant","type":"bool"}],"stateMutability":"view","type":"function"},{"inputs":[{"internalType":"uint256","name":"_supplierId","type":"uint256"}],"name":"getSupplierInfo","outputs":[{"internalType":"uint256","name":"id","type":"uint256"},{"internalType":"string","name":"name","type":"string"},{"internalType":"string","name":"contactInfo","type":"string"},{"internalType":"address","name":"merchant","type":"address"},{"internalType":"uint256","name":"createdAt","type":"uint256"},{"internalType":"bool","name":"isActive","type":"bool"},{"internalType":"string","name":"certifications","type":"string"}],"stateMutability":"view","type":"function"},{"inputs":[{"internalType":"address","name":"_user","type":"address"}],"name":"getUserRole","outputs":[{"internalType":"enum NutriGuard.UserRole","name":"","type":"uint8"}],"stateMutability":"view","type":"function"},{"inputs":[],"name":"ingredientCounter","outputs":[{"internalType":"uint256","name":"","type":"uint256"}],"stateMutability":"view","type":"function"},{"inputs":[{"internalType":"uint256","name":"","type":"uint256"}],"name":"ingredients","outputs":[{"internalType":"uint256","name":"id","type":"uint256"},{"internalType":"string","name":"name","type":"string"},{"internalType":"string","name":"category","type":"string"},{"internalType":"string","name":"upc","type":"string"},{"internalType":"uint256","name":"supplierId","type":"uint256"},{"internalType":"address","name":"merchant","type":"address"},{"internalType":"uint256","name":"createdAt","type":"uint256"},{"internalType":"uint256","name":"productionDate","type":"uint256"},{"internalType":"uint256","name":"expiryDate","type":"uint256"},{"internalType":"string","name":"batchNumber","type":"string"},{"internalType":"bool","name":"isRecalled","type":"bool"},{"internalType":"bool","name":"isContaminated","type":"bool"},{"components":[{"internalType":"int256","name":"minTemperature","type":"int256"},{"internalType":"int256","name":"maxTemperature","type":"int256"},{"internalType":"uint256","name":"minHumidity","type":"uint256"},{"internalType":"uint256","name":"maxHumidity","type":"uint256"}],"internalType":"struct NutriGuard.StorageEnvironment","name":"storageEnv","type":"tuple"},{"internalType":"uint256","name":"weight","type":"uint256"},{"internalType":"string","name":"ipfsHash","type":"string"}],"stateMutability":"view","type":"function"},{"inputs":[{"internalType":"uint256","name":"_ingredientId","type":"uint256"},{"internalType":"string","name":"_reason","type":"string"}],"name":"initiateRecall","outputs":[],"stateMutability":"nonpayable","type":"function"},{"inputs":[{"internalType":"address","name":"_user","type":"address"}],"name":"isUserRegistered","outputs":[{"internalType":"bool","name":"","type":"bool"}],"stateMutability":"view","type":"function"},{"inputs":[{"internalType":"uint256","name":"_feedbackId","type":"uint256"}],"name":"markFeedbackAsProcessed","outputs":[{"internalType":"bool","name":"","type":"bool"}],"stateMutability":"nonpayable","type":"function"},{"inputs":[{"internalType":"uint256","name":"_ingredientId","type":"uint256"},{"internalType":"string","name":"_reason","type":"string"}],"name":"markIngredientContaminated","outputs":[],"stateMutability":"nonpayable","type":"function"},{"inputs":[],"name":"owner","outputs":[{"internalType":"address","name":"","type":"address"}],"stateMutability":"view","type":"function"},{"inputs":[{"internalType":"uint256","name":"","type":"uint256"},{"internalType":"uint256","name":"","type":"uint256"}],"name":"productConsumerRegistrations","outputs":[{"internalType":"address","name":"consumer","type":"address"},{"internalType":"uint256","name":"productId","type":"uint256"},{"internalType":"string","name":"email","type":"string"},{"internalType":"uint256","name":"registeredAt","type":"uint256"},{"internalType":"bool","name":"isActive","type":"bool"}],"stateMutability":"view","type":"function"},{"inputs":[],"name":"productCounter","outputs":[{"internalType":"uint256","name":"","type":"uint256"}],"stateMutability":"view","type":"function"},{"inputs":[{"internalType":"uint256","name":"","type":"uint256"}],"name":"products","outputs":[{"internalType":"uint256","name":"id","type":"uint256"},{"internalType":"string","name":"name","type":"string"},{"internalType":"string","name":"description","type":"string"},{"internalType":"string","name":"upc","type":"string"},{"internalType":"enum NutriGuard.ProductCategory","name":"category","type":"uint8"},{"internalType":"enum NutriGuard.ProductStatus","name":"status","type":"uint8"},{"internalType":"address","name":"merchant","type":"address"},{"internalType":"uint256","name":"createdAt","type":"uint256"},{"internalType":"uint256","name":"productionDate","type":"uint256"},{"internalType":"bool","name":"isValid","type":"bool"},{"internalType":"bool","name":"canGenerateQR","type":"bool"},{"internalType":"string","name":"qrCodeHash","type":"string"},{"internalType":"string","name":"ipfsHash","type":"string"},{"components":[{"internalType":"int256","name":"minTemperature","type":"int256"},{"internalType":"int256","name":"maxTemperature","type":"int256"},{"internalType":"uint256","name":"minHumidity","type":"uint256"},{"internalType":"uint256","name":"maxHumidity","type":"uint256"},{"internalType":"uint256","name":"minWeight","type":"uint256"},{"internalType":"uint256","name":"maxWeight","type":"uint256"},{"internalType":"uint256","name":"minPH","type":"uint256"},{"internalType":"uint256","name":"maxPH","type":"uint256"},{"internalType":"bool","name":"isActive","type":"bool"}],"internalType":"struct NutriGuard.QualityRule","name":"qualityRule","type":"tuple"},{"components":[{"internalType":"int256","name":"temperature","type":"int256"},{"internalType":"uint256","name":"humidity","type":"uint256"},{"internalType":"uint256","name":"weight","type":"uint256"},{"internalType":"uint256","name":"phValue","type":"uint256"},{"internalType":"uint256","name":"timestamp","type":"uint256"},{"internalType":"bool","name":"isCompliant","type":"bool"}],"internalType":"struct NutriGuard.ProductionData","name":"productionData","type":"tuple"}],"stateMutability":"view","type":"function"},{"inputs":[{"internalType":"uint256","name":"_productId","type":"uint256"},{"internalType":"string","name":"_email","type":"string"}],"name":"registerForProductAlerts","outputs":[],"stateMutability":"nonpayable","type":"function"},{"inputs":[{"internalType":"string","name":"_name","type":"string"},{"internalType":"string","name":"_category","type":"string"},{"internalType":"string","name":"_upc","type":"string"},{"internalType":"uint256","name":"_supplierId","type":"uint256"},{"internalType":"uint256","name":"_productionDate","type":"uint256"},{"internalType":"uint256","name":"_expiryDate","type":"uint256"},{"internalType":"string","name":"_batchNumber","type":"string"},{"internalType":"int256","name":"_minTemp","type":"int256"},{"internalType":"int256","name":"_maxTemp","type":"int256"},{"internalType":"uint256","name":"_minHumidity","type":"uint256"},{"internalType":"uint256","name":"_maxHumidity","type":"uint256"},{"internalType":"uint256","name":"_weight","type":"uint256"},{"internalType":"string","name":"_ipfsHash","type":"string"}],"name":"registerIngredient","outputs":[{"internalType":"uint256","name":"","type":"uint256"}],"stateMutability":"nonpayable","type":"function"},{"inputs":[{"internalType":"string","name":"_name","type":"string"},{"internalType":"string","name":"_contactInfo","type":"string"},{"internalType":"string","name":"_certifications","type":"string"}],"name":"registerSupplier","outputs":[{"internalType":"uint256","name":"","type":"uint256"}],"stateMutability":"nonpayable","type":"function"},{"inputs":[{"internalType":"enum NutriGuard.UserRole","name":"_role","type":"uint8"}],"name":"registerUser","outputs":[],"stateMutability":"nonpayable","type":"function"},{"inputs":[{"internalType":"address","name":"","type":"address"}],"name":"registeredUsers","outputs":[{"internalType":"bool","name":"","type":"bool"}],"stateMutability":"view","type":"function"},{"inputs":[],"name":"renounceOwnership","outputs":[],"stateMutability":"nonpayable","type":"function"},{"inputs":[{"internalType":"uint256","name":"_productId","type":"uint256"},{"internalType":"string","name":"_feedbackText","type":"string"},{"internalType":"uint256","name":"_rating","type":"uint256"}],"name":"submitFeedback","outputs":[{"internalType":"uint256","name":"","type":"uint256"}],"stateMutability":"nonpayable","type":"function"},{"inputs":[{"internalType":"uint256","name":"_productId","type":"uint256"},{"internalType":"int256","name":"_temperature","type":"int256"},{"internalType":"uint256","name":"_humidity","type":"uint256"},{"internalType":"uint256","name":"_weight","type":"uint256"},{"internalType":"uint256","name":"_phValue","type":"uint256"}],"name":"submitProductionData","outputs":[],"stateMutability":"nonpayable","type":"function"},{"inputs":[],"name":"supplierCounter","outputs":[{"internalType":"uint256","name":"","type":"uint256"}],"stateMutability":"view","type":"function"},{"inputs":[{"internalType":"uint256","name":"","type":"uint256"}],"name":"suppliers","outputs":[{"internalType":"uint256","name":"id","type":"uint256"},{"internalType":"string","name":"name","type":"string"},{"internalType":"string","name":"contactInfo","type":"string"},{"internalType":"address","name":"merchant","type":"address"},{"internalType":"uint256","name":"createdAt","type":"uint256"},{"internalType":"bool","name":"isActive","type":"bool"},{"internalType":"string","name":"certifications","type":"string"}],"stateMutability":"view","type":"function"},{"inputs":[{"internalType":"address","name":"newOwner","type":"address"}],"name":"transferOwnership","outputs":[],"stateMutability":"nonpayable","type":"function"},{"inputs":[{"internalType":"address","name":"","type":"address"}],"name":"userRoles","outputs":[{"internalType":"enum NutriGuard.UserRole","name":"","type":"uint8"}],"stateMutability":"view","type":"function"},{"inputs":[{"internalType":"uint256","name":"_productId","type":"uint256"}],"name":"verifyProduct","outputs":[{"internalType":"bool","name":"","type":"bool"}],"stateMutability":"nonpayable","type":"function"}],"evm":{"bytecode":{"linkReferences":{},"object":"60808060405234607957331560635760008054336001600160a01b0319821681178355916001600160a01b03909116907f8be0079c531659141344cd1fd0a4f28419497f9722a3daafe3b4186f6b6457e09080a360018055614c29908161007f8239f35b631e4fbdf760e01b600052600060045260246000fd5b600080fdfe610100604052600436101561001357600080fd5b60003560e01c80627af3021461419d57806302b8c8cd146140ee57806303d927101461405a578063043a34ce14613da75780630e50cee514613ce55780631106a38214613d24578063163f752214613ce55780631f16653b14613cc75780632782085114613c335780632bb8b0dc14613bcd5780632d16538214613a385780633051ee181461398e57806331f14804146139415780633551a3cd146137ad5780635036b4aa146136d15780635119eeca14612e27578063524e846214612cfd57806358af6bb514612c075780635f7a3dcd14612b7e5780636bfd79af146128b5578063715018a61461285c57806374d5e1001461281a57806379a85e6c146126595780637acc0b20146123b4578063813771551461205d57806386b083ce146113815780638da5cb5b146113585780639a8c75f514611279578063a0c79e20146111a0578063a1c2e79c14610d40578063ba0c2f2114610c6b578063bf18e0f614610b66578063c0e4fc6d14610ae1578063c5c0c5a914610ac3578063c99bc0fa146109d2578063cea231211461095e578063cf770e161461079b578063dd91fdfa1461077d578063e5c5961f1461075f578063ec6f567314610438578063f2fde38b146103af578063f5cf2b6f146102da5763f7f7aafa146101f557600080fd5b346102d55760203660031901126102d55761020e6146e5565b600c549061021b82614917565b916000916001600160a01b031660015b828111156102835750505061023f81614917565b9160005b828110610264576040516020808252819061026090820187614768565b0390f35b8061027160019284614949565b5161027c8287614949565b5201610243565b81600052600960205260406000208160005260205260ff604060002054166102b4575b6102af9061488f565b61022b565b926102cd81856102c76102af9489614949565b5261488f565b9390506102a6565b600080fd5b346102d55760203660031901126102d5576102f36146e5565b600d549061030082614917565b916000916001600160a01b031660015b828111156103645750505061032481614917565b9160005b828110610345576040516020808252819061026090820187614768565b8061035260019284614949565b5161035d8287614949565b5201610328565b6000818152600560205260409020600201546001600160a01b03168214610394575b61038f9061488f565b610310565b926103a781856102c761038f9489614949565b939050610386565b346102d55760203660031901126102d5576103c86146e5565b6103d0614b37565b6001600160a01b0316801561042257600080546001600160a01b03198116831782556001600160a01b0316907f8be0079c531659141344cd1fd0a4f28419497f9722a3daafe3b4186f6b6457e09080a3005b631e4fbdf760e01b600052600060045260246000fd5b346102d5576104463661479c565b9080151580610753575b6104599061484a565b81511561071a5733600052600960205260406000208160005260205260ff604060002054166106c95780600052600860205260406000206040519061049d82614502565b338252602082018381526040830185815260608401914283526080850193600185528054600160401b81101561069d576104dc91600182018155614594565b9590956106b3575185546001600160a01b0319166001600160a01b039190911617855551600185015551805160028501916001600160401b03821161069d5761052583546145c6565b601f8111610660575b50602090601f83116001146105f057918061058397969492600496946000926105e5575b50508160011b916000199060031b1c19161790555b51600384015551151591019060ff801983541691151516179055565b3360005260096020526040600020816000526020526040600020600160ff198254161790557fa0acb858904f6ea72907e2d435155ce1a199a6289fd70b61ebf8a7289e0223ae60405160208152806105e0339560208301906146a4565b0390a3005b015190508a80610552565b90601f1983169184600052816000209260005b8181106106485750926001928592600498966105839b9a98961061062f575b505050811b019055610567565b015160001960f88460031b161c191690558a8080610622565b92936020600181928786015181550195019301610603565b61068d90846000526020600020601f850160051c81019160208610610693575b601f0160051c01906148b4565b8861052e565b9091508190610680565b634e487b7160e01b600052604160045260246000fd5b634e487b7160e01b600052600060045260246000fd5b60405162461bcd60e51b815260206004820152602360248201527f416c7265616479207265676973746572656420666f7220746869732070726f646044820152621d58dd60ea1b6064820152608490fd5b60405162461bcd60e51b8152602060048201526011602482015270115b585a5b081a5cc81c995c5d5a5c9959607a1b6044820152606490fd5b50600c54811115610450565b346102d55760003660031901126102d5576020600a54604051908152f35b346102d55760003660031901126102d5576020600d54604051908152f35b346102d55760203660031901126102d55760043580151580610952575b6107c190614acf565b600052600360205260406000208054600482015460018060a01b036005840154169060068401549060078501549060ff6108ec600888015492600a89015498600b81015494600c82015496600d83015498600e8401549a6108b6600f8601549d61082d60018801614600565b60a05261083c60028801614600565b60e05261084b60038801614600565b90610864601061085d60098b01614600565b9901614600565b60805260405160c05260c05152610240602060c05101526108a461089061024060c0510160a0516146a4565b60c0518103604060c051015260e0516146a4565b9060c0518203606060c05101526146a4565b95608060c051015260a060c051015260c08051015260e060c051015261010060c051015260c051820361012060c05101526146a4565b96818116151561014060c051015260081c16151561016060c051015261018060c05101526101a060c05101526101c060c05101526101e060c051015261020060c051015260c051810361022060c051015261094c60c051916080516146a4565b0360c051f35b50600b548111156107b8565b346102d55760203660031901126102d55760043560005260026020526040600020805461026061099060018401614600565b9261099d60028201614600565b9060018060a01b036003820154166004820154906109c5600660ff6005860154169401614600565b93604051978897886147ef565b346102d5576109e03661479c565b81151580610ab7575b6109f290614acf565b6000828152600360205260409020600501546001600160a01b03163303610a7257610a6d7fdf0bbce374b20f3680002da1ecdfedb59f3b86436350b189779a215c75137d5591836000526003602052600a60406000200161010061ff0019825416179055610a5f84614b60565b604051918291429083614b1b565b0390a2005b60405162461bcd60e51b815260206004820152601d60248201527f43616e206f6e6c79206d61726b206f776e20696e6772656469656e74730000006044820152606490fd5b50600b548211156109e9565b346102d55760003660031901126102d5576020600b54604051908152f35b346102d55760203660031901126102d55760043580151580610b5a575b610b079061495d565b60005260026020526040600020805461026060018060a01b0360038401541692600481015460ff60058301541690610b4160018401614600565b956109c56006610b5360028701614600565b9501614600565b50600a54811115610afe565b346102d55760203660031901126102d55760043580151580610c5f575b610b8c90614acf565b600c54610b9881614917565b9160009160015b81811115610bf357505050610bb381614917565b9160005b828110610bd4576040516020808252819061026090820187614768565b80610be160019284614949565b51610bec8287614949565b5201610bb7565b60008181526004602052604081206005018054915b828110610c21575b505050610c1c9061488f565b610b9f565b85610c2c8284614ab7565b90549060031b1c14610c4057600101610c08565b50505092610c5681856102c7610c1c9489614949565b93908680610c10565b50600b54811115610b83565b346102d55760203660031901126102d557610c846146e5565b600b5490610c9182614917565b916000916001600160a01b031660015b82811115610cf557505050610cb581614917565b9160005b828110610cd6576040516020808252819061026090820187614768565b80610ce360019284614949565b51610cee8287614949565b5201610cb9565b6000818152600360205260409020600501546001600160a01b03168214610d25575b610d209061488f565b610ca1565b92610d3881856102c7610d209489614949565b939050610d17565b346102d55760603660031901126102d5576004356001600160401b0381116102d557610d7090369060040161453e565b6024356001600160401b0381116102d557610d8f90369060040161453e565b6044356001600160401b0381116102d557610dae90369060040161453e565b91610dbb815115156149a9565b610dc6600a5461488f565b9182600a5560405190610dd882614495565b83825260208201908382526040830190815260608301338152608084019142835260a08501936001855260c086019889528760005260026020526040600020955186556001860190518051906001600160401b03821161069d578190610e3e84546145c6565b601f811161116e575b50602090601f8311600114611109576000926110fe575b50508160011b916000199060031b1c19161790555b51805160028601916001600160401b03821161069d57610e9383546145c6565b601f81116110cc575b50602090601f831160011461105b579180610f19969492600699989694600092611050575b50508160011b916000199060031b1c19161790555b516003850180546001600160a01b039092166001600160a01b03199092169190911790555160048401555160058301805460ff191691151560ff16919091179055565b0192519283516001600160401b03811161069d5780602095610f3b84546145c6565b601f8111611020575b508690601f8311600114610fbc57600092610fb1575b50508160011b916000199060031b1c19161790555b817f5bbba1258dba0b54c29ef5ff084ae5ca65e7d37da43a361ea715f0a1a38a5e7060405185815280610fa63395888301906146a4565b0390a3604051908152f35b015190508680610f5a565b60008581528281209350601f198516905b8181106110095750908460019594939210610ff0575b505050811b019055610f6f565b015160001960f88460031b161c19169055868080610fe3565b929389600181928786015181550195019301610fcd565b61104a908560005288600020601f850160051c8101918a861061069357601f0160051c01906148b4565b87610f44565b015190508c80610ec1565b90601f1983169184600052816000209260005b8181106110b4575092600192859260069b9a9896610f199a98961061109b575b505050811b019055610ed6565b015160001960f88460031b161c191690558c808061108e565b9293602060018192878601518155019501930161106e565b6110f890846000526020600020601f850160051c8101916020861061069357601f0160051c01906148b4565b8a610e9c565b015190508b80610e5e565b60008581528281209350601f198516905b818110611156575090846001959493921061113d575b505050811b019055610e73565b015160001960f88460031b161c191690558b8080611130565b9293602060018192878601518155019501930161111a565b61119a90856000526020600020601f850160051c8101916020861061069357601f0160051c01906148b4565b8c610e47565b346102d55760203660031901126102d5576111b96146e5565b600c54906111c682614917565b916000916001600160a01b031660015b8281111561122a575050506111ea81614917565b9160005b82811061120b576040516020808252819061026090820187614768565b8061121860019284614949565b516112238287614949565b52016111ee565b6000818152600460208190526040909120015460101c6001600160a01b0316821461125e575b6112599061488f565b6111d6565b9261127181856102c76112599489614949565b939050611250565b346102d5576112873661479c565b8115158061134c575b61129990614acf565b6000828152600360205260409020600501546001600160a01b03163303611307576000828152600360205260409020600a01805461ffff19166101011790557fdf0bbce374b20f3680002da1ecdfedb59f3b86436350b189779a215c75137d5590610a6d90610a5f84614b60565b60405162461bcd60e51b815260206004820152601f60248201527f43616e206f6e6c7920726563616c6c206f776e20696e6772656469656e7473006044820152606490fd5b50600b54821115611290565b346102d55760003660031901126102d5576000546040516001600160a01b039091168152602090f35b346102d5576101c03660031901126102d5576004356001600160401b0381116102d5576113b290369060040161453e565b6024356001600160401b0381116102d5576113d190369060040161453e565b6044356001600160401b0381116102d5576113f090369060040161453e565b6064359260038410156102d557608435926001600160401b0384116102d557366023850112156102d557836004013593611429856147d8565b94611437604051968761451d565b8086526024602087019160051b830101913683116102d557602401905b82821061204d5750505060a4356001600160401b0381116102d55761147d90369060040161453e565b9160c4359160e4359261010435976101243596610144356101643561018435906101a435926114ae895115156149a9565b6114ba855115156149e8565b8c5115611ff6578c9d9c9b60009d8e600b549e5b511115611683578f8f8f91906114e391614949565b5111611646578f8f6114f491614949565b51600052600360205260ff600a6040600020015416611601578f8f61151891614949565b51600052600360205260ff600a6040600020015460081c166115b1578f8f61153f91614949565b5160005260036020523360018060a01b03600560406000200154160361156c578f9e6001019e8f906114ce565b60405162461bcd60e51b815260206004820152601c60248201527f43616e206f6e6c7920757365206f776e20696e6772656469656e7473000000006044820152606490fd5b60405162461bcd60e51b815260206004820152602260248201527f43616e6e6f742075736520636f6e74616d696e6174656420696e6772656469656044820152611b9d60f21b6064820152608490fd5b60405162461bcd60e51b815260206004820152601e60248201527f43616e6e6f742075736520726563616c6c656420696e6772656469656e7400006044820152606490fd5b60405162461bcd60e51b8152602060048201526015602482015274125b9d985b1a59081a5b99dc99591a595b9d081251605a1b6044820152606490fd5b8f9b9c9d506116948d8a1315614a26565b6116a082821115614a72565b838311611fba576116b0886147ce565b60028814611f38575b6116c4600c5461488f565b9c8d600c55604051996116d68b6144e6565b8a5260208a015260408901526060880152608087015260a086015260c085015260e0840152600161010084015260405193611710856144b0565b6000855260006020860152600060408601526000606086015260006080860152600060a08601526040519561020087018781106001600160401b0382111761069d57604052888752602087015260408601526060850152611770816147ce565b6080840152600060a08401523360c08401528360e0840152426101008401526000610120840152600161014084015260006101608401526020956040516117b7888261451d565b600081526101808501526101a08401526101c08301526101e082015282600052600484526040600020908051825560208101518051906001600160401b03821161069d57819061180a60018601546145c6565b601f8111611f05575b508790601f8311600114611e9457600092611e89575b50508160011b916000199060031b1c19161760018301555b60408101518051906001600160401b03821161069d57819061186660028601546145c6565b601f8111611e56575b508790601f8311600114611de557600092611dda575b50508160011b916000199060031b1c19161760028301555b6003820160608201518051906001600160401b03821161069d5781906118c384546145c6565b601f8111611daa575b508890601f8311600114611d4557600092611d3a575b50508160011b916000199060031b1c19161790555b600482016080820151611909816147ce565b611912816147ce565b60ff8019835416911617815560a082015161192c816147ce565b611935816147ce565b815460c0840151610100600160b01b031990911660089290921b61ff00169190911760109190911b62010000600160b01b031617905560e081015180519060058401906001600160401b03831161069d57600160401b831161069d5787908254848455808510611d1d575b5001906000528660002060005b838110611d0b575050505061010081015160068301556101208101516007830155600882016119ef6101408301511515829060ff801983541691151516179055565b610160820151815461ff00191690151560081b61ff0016179055610180810151805160098401916001600160401b03821161069d578190611a3084546145c6565b601f8111611cdb575b508890601f8311600114611c7657600092611c6b575b50508160011b916000199060031b1c19161790555b600a82016101a08201518051906001600160401b03821161069d57611a8983546145c6565b601f8111611c3b575b508790601f8311600114611bc757936019938360a0946101e094611b859998600092611bbc575b50508160011b916000199060031b1c19161790555b611b3e6101006101c08301518051600b8901558b810151600c8901556040810151600d8901556060810151600e8901556080810151600f89015585810151601089015560c0810151601189015560e0810151601289015501511515601387019060ff801983541691151516179055565b0151805160148501558781015160158501556040810151601685015560608101516017850155608081015160188501550151151591019060ff801983541691151516179055565b817f3fecc7f83ec2cca2fd6a1539b9d29aad3247929594ebe0da696afa1d4025cde760405185815280610fa6339588830190614768565b015190508c80611ab9565b90601f1983169184600052896000209260005b8b828210611c25575050846101e094611b859998946019989460a09860019510611c0c575b505050811b019055611ace565b015160001960f88460031b161c191690558c8080611bff565b6001859682939686015181550195019301611bda565b611c65908460005289600020601f850160051c8101918b861061069357601f0160051c01906148b4565b88611a92565b015190508880611a4f565b60008581528a81209350601f198516905b8b828210611cc5575050908460019594939210611cac575b505050811b019055611a64565b015160001960f88460031b161c19169055888080611c9f565b6001859682939686015181550195019301611c87565b611d0590856000528a600020601f850160051c8101918c861061069357601f0160051c01906148b4565b89611a39565b825182820155918801916001016119ad565b611d349084600052858460002091820191016148b4565b896119a0565b0151905088806118e2565b60008581528a81209350601f198516905b8b828210611d94575050908460019594939210611d7b575b505050811b0190556118f7565b015160001960f88460031b161c19169055888080611d6e565b6001859682939686015181550195019301611d56565b611dd490856000528a600020601f850160051c8101918c861061069357601f0160051c01906148b4565b896118cc565b015190508780611885565b92506002850160005287600020906000935b89601f1985168610611e3d57506001945083601f19811610611e24575b505050811b01600283015561189d565b015160001960f88460031b161c19169055878080611e14565b8282015184559485019460019093019290910190611df7565b611e83906002870160005289600020601f850160051c8101918b861061069357601f0160051c01906148b4565b8861186f565b015190508780611829565b92506001850160005287600020906000935b89601f1985168610611eec57506001945083601f19811610611ed3575b505050811b016001830155611841565b015160001960f88460031b161c19169055878080611ec3565b8282015184559485019460019093019290910190611ea6565b611f32906001870160005289600020601f850160051c8101918b861061069357601f0160051c01906148b4565b88611813565b858511611f82576105788611156116b95760405162461bcd60e51b81526020600482015260116024820152700e09040ecc2d8eaca40e8dede40d0d2ced607b1b6044820152606490fd5b60405162461bcd60e51b815260206004820152601060248201526f496e76616c69642070482072616e676560801b6044820152606490fd5b60405162461bcd60e51b8152602060048201526014602482015273496e76616c6964207765696768742072616e676560601b6044820152606490fd5b60405162461bcd60e51b815260206004820152602960248201527f50726f64756374206d7573742068617665206174206c65617374206f6e6520696044820152681b99dc99591a595b9d60ba1b6064820152608490fd5b8135815260209182019101611454565b346102d55760203660031901126102d557600435801515806123a8575b6120839061484a565b6000818152600460208190526040909120015460101c6001600160a01b03163303612357576000526008602052604060002080546120c0816147d8565b916120ce604051938461451d565b818352602083019060005260206000206000915b8383106122f957846000805b82518110156121275760806121038285614949565b510151612113575b6001016120ee565b9061211f60019161488f565b91905061210b565b50612131816147d8565b61213e604051918261451d565b81815261214a826147d8565b602082019290601f1901368437612160816147d8565b9061216e604051928361451d565b808252601f1961217d826147d8565b0160005b8181106122e857505061219390614917565b600091825b865181101561222b5760806121ad8289614949565b5101516121bd575b600101612198565b92600190612223906001600160a01b036121d7878b614949565b5151166121e48289614949565b5260406121f1878b614949565b5101516121fe8286614949565b526122098185614949565b506060612216878b614949565b5101516102c78287614949565b9390506121b5565b506040516060808252945194810185905293608085019350849290869060005b8181106122c6575050508284036020840152815180855260208501946020808360051b8301019401956000915b83831061229357868061026088888382036040850152614768565b9193955091936020806122b2600193601f198682030187528a516146a4565b980193019301909287959396949296612278565b82516001600160a01b031687526020968701968896509092019160010161224b565b806060602080938701015201612181565b6005602060019260405161230c81614502565b848060a01b038654168152848601548382015261232b60028701614600565b60408201526003860154606082015260ff600487015416151560808201528152019201920191906120e2565b60405162461bcd60e51b815260206004820152602360248201527f43616e206f6e6c792076696577206f776e2070726f6475637420636f6e73756d60448201526265727360e81b6064820152608490fd5b50600c5481111561207a565b346102d55760203660031901126102d557600435600052600460205260406000208054600182016123e490614600565b916123f160028201614600565b906123fe60038201614600565b600482015460068301549060078401546008850154906009860161242190614600565b9361242e600a8801614600565b956040519861243c8a6144e6565b600b8901548a52600c89015460208b0152600d89015460408b0152600e89015460608b0152600f89015460808b0152601089015460a08b0152601189015460c08b0152601289015460e08b0152601389015460ff1615156101008b0152604051986124a68a6144b0565b60148101548a52601581015460208b0152601681015460408b0152601781015460608b0152601881015460808b01526019015460ff16151560a08a01526040519b8c9b8c5260208c0161038090526103808c01612502916146a4565b8b810360408d0152612513916146a4565b8a810360608c0152612524916146a4565b9361253160ff82166147ce565b60ff811660808b01528060081c60ff1661254a906147ce565b8060081c60ff1660a08b0152600160a01b600190039060101c1660c08a015260e089015261010088015260ff8116151561012088015260081c60ff1615156101408701528581036101608701526125a0916146a4565b8481036101808601526125b2916146a4565b9180516101a085015260208101516101c085015260408101516101e08501526060810151610200850152608081015161022085015260a081015161024085015260c081015161026085015260e0810151610280850152610100015115156102a084015280516102c084015260208101516102e084015260408101516103008401526060810151610320840152608081015161034084015260a0015115156103608301520390f35b346102d55760203660031901126102d5576004358015158061280e575b61267f9061484a565b60005260046020526040600020805460048201549160ff83169060ff8460081c169160058201906006830154916007840154906008850154926126c460018701614600565b986126d160028801614600565b976126de60038901614600565b604051809586916020825491828152019160005260206000209060005b8181106127f55750505003612710908661451d565b61271c60098a01614600565b98600a0161272990614600565b996040519c8d9c8d5260208d016101c090526101c08d01612749916146a4565b8c810360408e015261275a916146a4565b8b810360608d015261276b916146a4565b92612775816147ce565b60808b0152612783816147ce565b60a08a015260101c6001600160a01b031660c089015287810360e08901526127aa91614768565b9261010087015261012086015260ff8116151561014086015260081c60ff1615156101608501528381036101808501526127e3916146a4565b8281036101a0840152610260916146a4565b82548452899450602090930192600192830192016126fb565b50600c54811115612676565b346102d55760203660031901126102d5576001600160a01b0361283b6146e5565b16600052600660205261026060ff604060002054166040519182918261473f565b346102d55760003660031901126102d557612875614b37565b600080546001600160a01b0319811682556001600160a01b03167f8be0079c531659141344cd1fd0a4f28419497f9722a3daafe3b4186f6b6457e08280a3005b346102d5576128c33661479c565b9080151580612b72575b6128d69061484a565b6000818152600460208190526040909120015460101c6001600160a01b03163303612b1f5780600052600460205260ff60086040600020015460081c1615612aca57815115612a85578060005260046020526009604060002001918051926001600160401b03841161069d5761294c81546145c6565b601f8111612a53575b50602093601f81116001146129c9579081610a6d93927fe041a16e704f07ecadcc3a2adc4fee6dc8f69789a538d1ebaaed3ca699e3f96d95966000916129be575b508160011b916000199060031b1c19161790555b6040519182916020835260208301906146a4565b905083015187612996565b601f19811682600052856000209060005b818110612a3b5750916001917fe041a16e704f07ecadcc3a2adc4fee6dc8f69789a538d1ebaaed3ca699e3f96d969782610a6d97969510612a22575b5050811b0190556129aa565b85015160001960f88460031b161c191690558780612a16565b858801518355602097880197600190930192016129da565b612a7f90826000526020600020601f870160051c8101916020881061069357601f0160051c01906148b4565b84612955565b60405162461bcd60e51b815260206004820152601860248201527f515220636f6465206861736820697320726571756972656400000000000000006044820152606490fd5b60405162461bcd60e51b815260206004820152602760248201527f50726f6475637420646f6573206e6f74206d656574207175616c697479207374604482015266616e646172647360c81b6064820152608490fd5b60405162461bcd60e51b815260206004820152602560248201527f43616e206f6e6c792067656e657261746520515220666f72206f776e2070726f604482015264647563747360d81b6064820152608490fd5b50600c548111156128cd565b346102d55760203660031901126102d55760043580151580612bfb575b612ba49061484a565b600052600460205260c06040600020601481015490601581015490601681015460178201549060ff6019601885015494015416936040519586526020860152604085015260608401526080830152151560a0820152f35b50600c54811115612b9b565b346102d55760203660031901126102d557612c206146e5565b600a5490612c2d82614917565b916000916001600160a01b031660015b82811115612c9157505050612c5181614917565b9160005b828110612c72576040516020808252819061026090820187614768565b80612c7f60019284614949565b51612c8a8287614949565b5201612c55565b6000818152600260205260409020600301546001600160a01b0316821480612ce2575b612cc7575b612cc29061488f565b612c3d565b92612cda81856102c7612cc29489614949565b939050612cb9565b5080600052600260205260ff60056040600020015416612cb4565b346102d55760203660031901126102d55760043580151580612e1b575b612d239061484a565b806000526004602052604060002060009160058201925b8354811015612e0b57612d4d8185614ab7565b90549060031b1c600052600360205260ff600a60406000200154168015612ddd575b612d7b57600101612d3a565b506008808301805460ff1916905560048301805461ff0019166102001790556020935060ff9290915b604051904282527fa913def5e0a2f15c60fa63fe23979256a1ff8d6d893238336fa0683b9951266d863393a30154166040519015158152f35b50612de88185614ab7565b90549060031b1c600052600360205260ff600a6040600020015460081c16612d6f565b506020925060ff91600891612da4565b50600c54811115612d1a565b346102d5576101a03660031901126102d5576004356001600160401b0381116102d557612e5890369060040161453e565b6024356001600160401b0381116102d557612e7790369060040161453e565b6044356001600160401b0381116102d557612e9690369060040161453e565b60c4356001600160401b0381116102d557612eb590369060040161453e565b91610184356001600160401b0381116102d557612ed690369060040161453e565b906064351515806136c3575b612eeb9061495d565b612ef7855115156149a9565b612f03835115156149e8565b6064356000908152600260205260409020600301546001600160a01b0316330361367e57612f386101043560e4351315614a26565b612f4a61014435610124351115614a72565b6101643515613639574260a43511156135ea57426084351161359557612f71600b5461488f565b9384600b5584600052600360205260406000209185835586516001600160401b03811161069d57612fa560018501546145c6565b601f8111613560575b50806020601f82116001146134f3576000916134e8575b508160011b916000199060031b1c19161760018401555b805160028401916001600160401b03821161069d578190612ffd84546145c6565b601f81116134b6575b50602090601f831160011461345157600092613446575b50508160011b916000199060031b1c19161790555b83516001600160401b03811161069d5761304f60038401546145c6565b601f8111613411575b50806020601f82116001146133a55760009161339a575b508160011b916000199060031b1c19161760038301555b60643560048301556005820180546001600160a01b03191633179055426006830155608435600783015560a43560088301558051906001600160401b03821161069d576130d660098401546145c6565b601f8111613365575b50602090601f83116001146132f3576010939291600091836132e8575b50508160011b916000199060031b1c19161760098201555b600a8101805461ffff1916905560405161312d816144cb565b60e435815261010435602082015261012435604082015260606101443591015260e435600b82015561010435600c82015561012435600d82015561014435600e82015561016435600f82015501938151946001600160401b03861161069d57602095859361319b83546145c6565b601f81116132b8575b508790601f831160011461322957918061321094927fd209280f842e49729bb7555af5c53111162dfc60e94b51245e99acf699354f8d969460009261321e575b50508160011b916000199060031b1c19161790555b610fa66040519283926040845260408401906146a4565b8281038984015233966146a4565b015190508a806131e4565b90601f1983169184600052816000209260005b81811061329e57509260019285927fd209280f842e49729bb7555af5c53111162dfc60e94b51245e99acf699354f8d9896613210989610613285575b505050811b0190556131f9565b015160001960f88460031b161c191690558a8080613278565b8284015185558a9850600190940193928b01928b0161323c565b6132e2908460005289600020601f850160051c8101918b861061069357601f0160051c01906148b4565b886131a4565b0151905088806130fc565b9060098401600052806000209160005b601f198516811061334d575091839160019360109695601f19811610613334575b505050811b016009820155613114565b015160001960f88460031b161c19169055888080613324565b91926020600181928685015181550194019201613303565b61339490600985016000526020600020601f850160051c8101916020861061069357601f0160051c01906148b4565b876130df565b90508501518861306f565b915060038401600052816000206000925b601f19831684106133f9576001935082601f198116106133e0575b5050811b016003830155613086565b87015160001960f88460031b161c1916905588806133d1565b878101518255602093840193600190920191016133b6565b61344090600385016000526020600020601f840160051c8101916020851061069357601f0160051c01906148b4565b87613058565b01519050898061301d565b60008581528281209350601f198516905b81811061349e5750908460019594939210613485575b505050811b019055613032565b015160001960f88460031b161c19169055898080613478565b92936020600181928786015181550195019301613462565b6134e290856000526020600020601f850160051c8101916020861061069357601f0160051c01906148b4565b8a613006565b905088015189612fc5565b915060018501600052816000206000925b8a601f198416851061354957506001935082601f19811610613530575b5050811b016001840155612fdc565b8a015160001960f88460031b161c191690558980613521565b810151825560209384019360019092019101613504565b61358f90600186016000526020600020601f840160051c8101916020851061069357601f0160051c01906148b4565b88612fae565b60405162461bcd60e51b815260206004820152602760248201527f50726f64756374696f6e20646174652063616e6e6f7420626520696e207468656044820152662066757475726560c81b6064820152608490fd5b60405162461bcd60e51b815260206004820152602160248201527f4578706972792064617465206d75737420626520696e207468652066757475726044820152606560f81b6064820152608490fd5b60405162461bcd60e51b815260206004820152601d60248201527f576569676874206d7573742062652067726561746572207468616e20300000006044820152606490fd5b60405162461bcd60e51b815260206004820152601a60248201527f43616e206f6e6c7920757365206f776e20737570706c696572730000000000006044820152606490fd5b50600a546064351115612ee2565b346102d55760203660031901126102d557600435801515806137a1575b6136f79061484a565b600d549061370482614917565b9160009160015b8281111561375f5750505061371f81614917565b9160005b828110613740576040516020808252819061026090820187614768565b8061374d60019284614949565b516137588287614949565b5201613723565b8060005260056020528160016040600020015414613786575b6137819061488f565b61370b565b9261379981856102c76137819489614949565b939050613778565b50600c548111156136ee565b346102d55760203660031901126102d55760043580151580613935575b6137d3906148cb565b80600052600560205260406000208054156138fb576001810154600052600460205260018060a01b0360046040600020015460101c1633036138a357600601805460ff811661385e5760019060ff1916179055604051904282527fcf3be6b092d2546d9eeac237826965f35c31d31050dbb0e370433d6d321580de60203393a3602060405160018152f35b60405162461bcd60e51b815260206004820152601a60248201527f466565646261636b20616c72656164792070726f6365737365640000000000006044820152606490fd5b60405162461bcd60e51b815260206004820152602a60248201527f4f6e6c792070726f64756374206d65726368616e742063616e2070726f6365736044820152697320666565646261636b60b01b6064820152608490fd5b60405162461bcd60e51b815260206004820152601260248201527111995959189858dac81b9bdd08199bdd5b9960721b6044820152606490fd5b50600d548111156137ca565b346102d55760403660031901126102d5576001600160a01b036139626146e5565b1660005260096020526040600020602435600052602052602060ff604060002054166040519015158152f35b346102d55760203660031901126102d55760043580151580613a2c575b6139b49061484a565b60005260046020526101206040600020600b81015490600c81015490600d810154600e820154600f83015460108401549160118501549360ff601360128801549701541696604051988952602089015260408801526060870152608086015260a085015260c084015260e08301521515610100820152f35b50600c548111156139ab565b346102d55760203660031901126102d55760043560005260036020526040600020805460018201613a6890614600565b91613a7560028201614600565b90613a8260038201614600565b600482015460058301546006840154600785015460088601546001600160a01b03909316959493919290613ab860098701614600565b93600a8701549760405196613acc886144cb565b600b8901548852600c8901546020890152600d8901546040890152600e8901546060890152600f89015498601001613b0390614600565b9a6040519d8e9d8e528d60208101610240905261024001613b23916146a4565b8d810360408f0152613b34916146a4565b8c810360608e0152613b45916146a4565b9460808c015260a08b015260c08a015260e0890152610100880152868103610120880152613b72916146a4565b9260ff8116151561014087015260081c60ff161515610160860152805161018086015260208101516101a086015260408101516101c0860152606001516101e0850152610200840152828103610220840152610260916146a4565b346102d55760203660031901126102d55760043560005260056020526040600020805461026060018301549260018060a01b0360028201541690613c1360038201614600565b60048201549060ff600660058501549401541693604051978897886146fb565b346102d55760203660031901126102d5576001600160a01b03613c546146e5565b1680600052600760205260ff6040600020541615613c8c57600052600660205261026060ff604060002054166040519182918261473f565b60405162461bcd60e51b8152602060048201526013602482015272155cd95c881b9bdd081c9959da5cdd195c9959606a1b6044820152606490fd5b346102d55760003660031901126102d5576020600c54604051908152f35b346102d55760203660031901126102d5576001600160a01b03613d066146e5565b166000526007602052602060ff604060002054166040519015158152f35b346102d55760203660031901126102d55760043580151580613d9b575b613d4a906148cb565b60005260056020526040600020805461026060018301549260018060a01b036002820154166004820154600583015491613d8e600360ff6006870154169501614600565b90604051978897886146fb565b50600d54811115613d41565b346102d55760a03660031901126102d5576044356004356084356064356024358315158061404e575b613dd99061484a565b6000848152600460208190526040909120015460101c6001600160a01b0316330361400957836000526004602052601860406000200154613fba5760a094600893856000526004602052604060002093600192600b86015485128015613fad575b613fa4575b600d86015481108015613f97575b613f8e575b600f86015482108015613f81575b613f78575b6004860194600260ff875416613e7a816147ce565b14613f4f575b604051613e8c816144b0565b8181528260208201528360408201528460608201524260808201528515159a8b9101526014870155601586015560168501556017840155426018840155613ee286601985019060ff801983541691151516179055565b42600784015515613f335761ff001981541690550161010061ff00198254161790555b6040519182527f1e6689d39c5a105eeec31a95da87d87184a3f65513002a033ccfbedbad05560460203393a3005b61010061ff00198254161790550161ff00198154169055613f05565b601187015484108015613f6b575b15613e805760009450613e80565b5060128701548411613f5d565b60009350613e65565b5060108601548211613e60565b60009350613e52565b50600e8601548111613e4d565b60009350613e3f565b50600c8601548513613e3a565b60405162461bcd60e51b815260206004820152602160248201527f50726f64756374696f6e206461746120616c7265616479207375626d697474656044820152601960fa1b6064820152608490fd5b60405162461bcd60e51b815260206004820152601c60248201527f43616e206f6e6c7920757064617465206f776e2070726f6475637473000000006044820152606490fd5b50600c54841115613dd0565b346102d55760403660031901126102d557602435600435600052600860205260406000209081548110156102d55761409191614594565b5060018060a01b038154166001820154916140ae60028201614600565b6140dd60ff6004600385015494015416916040519586958652602086015260a0604086015260a08501906146a4565b916060840152151560808301520390f35b346102d55760203660031901126102d55760043560028110156102d55733600052600760205260ff6040600020541661415857336000526006602052604060002060009160ff80198354169116179055338152600760205260408120600160ff1982541617905580f35b60405162461bcd60e51b815260206004820152601760248201527f5573657220616c726561647920726567697374657265640000000000000000006044820152606490fd5b346102d55760603660031901126102d5576004356024356001600160401b0381116102d5576141d090369060040161453e565b9060443581151580614489575b6141e69061484a565b82511561444457600181101580614439575b156143f457614208600d5461488f565b9081600d556040519061421a82614495565b82825260208201908482526040830190338252606084019687526080840190815260a084019142835260c08501936000855286600052600560205260406000209551865551600186015560018060a01b03905116600285019060018060a01b03166bffffffffffffffffffffffff60a01b8254161790556003840196519687516001600160401b03811161069d576020986142b583546145c6565b601f81116143c4575b508990601f8311600114614354579180600696949261431999989694600092614349575b50508160011b916000199060031b1c19161790555b51600485015551600584015551151591019060ff801983541691151516179055565b604051913390827f78a0ce2ca2705728dd73e6c8043e1d0b7938405c6f9f8fe5e41ec3831a552fa0600080a48152f35b015190508c806142e2565b90601f1983169184600052816000209260005b8181106143ad57509260019285926143199b9a989660069a989610614394575b505050811b0190556142f7565b015160001960f88460031b161c191690558c8080614387565b92938d600181928786015181550195019301614367565b6143ee90846000528b600020601f850160051c8101918d861061069357601f0160051c01906148b4565b8a6142be565b60405162461bcd60e51b815260206004820152601e60248201527f526174696e67206d757374206265206265747765656e203120616e64203500006044820152606490fd5b5060058111156141f8565b60405162461bcd60e51b815260206004820152601960248201527f466565646261636b2074657874206973207265717569726564000000000000006044820152606490fd5b50600c548211156141dd565b60e081019081106001600160401b0382111761069d57604052565b60c081019081106001600160401b0382111761069d57604052565b608081019081106001600160401b0382111761069d57604052565b61012081019081106001600160401b0382111761069d57604052565b60a081019081106001600160401b0382111761069d57604052565b90601f801991011681019081106001600160401b0382111761069d57604052565b81601f820112156102d5578035906001600160401b03821161069d5760405192614572601f8401601f19166020018561451d565b828452602083830101116102d557816000926020809301838601378301015290565b80548210156145b0576000526005602060002091020190600090565b634e487b7160e01b600052603260045260246000fd5b90600182811c921680156145f6575b60208310146145e057565b634e487b7160e01b600052602260045260246000fd5b91607f16916145d5565b9060405191826000825492614614846145c6565b8084529360018116908115614682575060011461463b575b506146399250038361451d565b565b90506000929192526020600020906000915b818310614666575050906020614639928201013861462c565b602091935080600191548385890101520191019091849261464d565b90506020925061463994915060ff191682840152151560051b8201013861462c565b919082519283825260005b8481106146d0575050826000602080949584010152601f8019910116010190565b806020809284010151828286010152016146af565b600435906001600160a01b03821682036102d557565b959261472d9260c096999895928852602088015260018060a01b0316604087015260e0606087015260e08601906146a4565b95608085015260a08401521515910152565b9190602083019260028210156147525752565b634e487b7160e01b600052602160045260246000fd5b906020808351928381520192019060005b8181106147865750505090565b8251845260209384019390920191600101614779565b9060406003198301126102d55760043591602435906001600160401b0382116102d5576147cb9160040161453e565b90565b6003111561475257565b6001600160401b03811161069d5760051b60200190565b9395926148126147cb98969361482093875260e0602088015260e08701906146a4565b9085820360408701526146a4565b6001600160a01b0390951660608401526080830152151560a082015280830360c0909101526146a4565b1561485157565b60405162461bcd60e51b8152602060048201526016602482015275141c9bd91d58dd08191bd95cc81b9bdd08195e1a5cdd60521b6044820152606490fd5b600019811461489e5760010190565b634e487b7160e01b600052601160045260246000fd5b8181106148bf575050565b600081556001016148b4565b156148d257565b60405162461bcd60e51b815260206004820152601760248201527f466565646261636b20646f6573206e6f742065786973740000000000000000006044820152606490fd5b90614921826147d8565b61492e604051918261451d565b828152809261493f601f19916147d8565b0190602036910137565b80518210156145b05760209160051b010190565b1561496457565b60405162461bcd60e51b815260206004820152601760248201527f537570706c69657220646f6573206e6f742065786973740000000000000000006044820152606490fd5b156149b057565b60405162461bcd60e51b815260206004820152601060248201526f13985b59481a5cc81c995c5d5a5c995960821b6044820152606490fd5b156149ef57565b60405162461bcd60e51b815260206004820152600f60248201526e155410c81a5cc81c995c5d5a5c9959608a1b6044820152606490fd5b15614a2d57565b60405162461bcd60e51b815260206004820152601960248201527f496e76616c69642074656d70657261747572652072616e6765000000000000006044820152606490fd5b15614a7957565b60405162461bcd60e51b8152602060048201526016602482015275496e76616c69642068756d69646974792072616e676560501b6044820152606490fd5b80548210156145b05760005260206000200190600090565b15614ad657565b60405162461bcd60e51b815260206004820152601960248201527f496e6772656469656e7420646f6573206e6f74206578697374000000000000006044820152606490fd5b929190614b326020916040865260408601906146a4565b930152565b6000546001600160a01b03163303614b4b57565b63118cdaa760e01b6000523360045260246000fd5b9060015b600c548111614bee5780600052600460205260406000209260009260058501935b8454811015614be05782614b998287614ab7565b90549060031b1c14614bad57600101614b85565b5060048501805461ff0019166102001790556008909401805461ffff191690559150614bd89061488f565b919091614b64565b5093509150614bd89061488f565b50905056fea2646970667358221220d270ac390e2de59b62e0c04162b36cb272929ee449ef3c76723931d5d6b5aae764736f6c634300081c0033","opcodes":"PUSH1 0x80 DUP1 PUSH1 0x40 MSTORE CALLVALUE PUSH1 0x79 JUMPI CALLER ISZERO PUSH1 0x63 JUMPI PUSH1 0x0 DUP1 SLOAD CALLER PUSH1 0x1 PUSH1 0x1 PUSH1 0xA0 SHL SUB NOT DUP3 AND DUP2 OR DUP4 SSTORE SWAP2 PUSH1 0x1 PUSH1 0x1 PUSH1 0xA0 SHL SUB SWAP1 SWAP2 AND SWAP1 PUSH32 0x8BE0079C531659141344CD1FD0A4F28419497F9722A3DAAFE3B4186F6B6457E0 SWAP1 DUP1 LOG3 PUSH1 0x1 DUP1 SSTORE PUSH2 0x4C29 SWAP1 DUP2 PUSH2 0x7F DUP3 CODECOPY RETURN JUMPDEST PUSH4 0x1E4FBDF7 PUSH1 0xE0 SHL PUSH1 0x0 MSTORE PUSH1 0x0 PUSH1 0x4 MSTORE PUSH1 0x24 PUSH1 0x0 REVERT JUMPDEST PUSH1 0x0 DUP1 REVERT INVALID PUSH2 0x100 PUSH1 0x40 MSTORE PUSH1 0x4 CALLDATASIZE LT ISZERO PUSH2 0x13 JUMPI PUSH1 0x0 DUP1 REVERT JUMPDEST PUSH1 0x0 CALLDATALOAD PUSH1 0xE0 SHR DUP1 PUSH3 0x7AF302 EQ PUSH2 0x419D JUMPI DUP1 PUSH4 0x2B8C8CD EQ PUSH2 0x40EE JUMPI DUP1 PUSH4 0x3D92710 EQ PUSH2 0x405A JUMPI DUP1 PUSH4 0x43A34CE EQ PUSH2 0x3DA7 JUMPI DUP1 PUSH4 0xE50CEE5 EQ PUSH2 0x3CE5 JUMPI DUP1 PUSH4 0x1106A382 EQ PUSH2 0x3D24 JUMPI DUP1 PUSH4 0x163F7522 EQ PUSH2 0x3CE5 JUMPI DUP1 PUSH4 0x1F16653B EQ PUSH2 0x3CC7 JUMPI DUP1 PUSH4 0x27820851 EQ PUSH2 0x3C33 JUMPI DUP1 PUSH4 0x2BB8B0DC EQ PUSH2 0x3BCD JUMPI DUP1 PUSH4 0x2D165382 EQ PUSH2 0x3A38 JUMPI DUP1 PUSH4 0x3051EE18 EQ PUSH2 0x398E JUMPI DUP1 PUSH4 0x31F14804 EQ PUSH2 0x3941 JUMPI DUP1 PUSH4 0x3551A3CD EQ PUSH2 0x37AD JUMPI DUP1 PUSH4 0x5036B4AA EQ PUSH2 0x36D1 JUMPI DUP1 PUSH4 0x5119EECA EQ PUSH2 0x2E27 JUMPI DUP1 PUSH4 0x524E8462 EQ PUSH2 0x2CFD JUMPI DUP1 PUSH4 0x58AF6BB5 EQ PUSH2 0x2C07 JUMPI DUP1 PUSH4 0x5F7A3DCD EQ PUSH2 0x2B7E JUMPI DUP1 PUSH4 0x6BFD79AF EQ PUSH2 0x28B5 JUMPI DUP1 PUSH4 0x715018A6 EQ PUSH2 0x285C JUMPI DUP1 PUSH4 0x74D5E100 EQ PUSH2 0x281A JUMPI DUP1 PUSH4 0x79A85E6C EQ PUSH2 0x2659 JUMPI DUP1 PUSH4 0x7ACC0B20 EQ PUSH2 0x23B4 JUMPI DUP1 PUSH4 0x81377155 EQ PUSH2 0x205D JUMPI DUP1 PUSH4 0x86B083CE EQ PUSH2 0x1381 JUMPI DUP1 PUSH4 0x8DA5CB5B EQ PUSH2 0x1358 JUMPI DUP1 PUSH4 0x9A8C75F5 EQ PUSH2 0x1279 JUMPI DUP1 PUSH4 0xA0C79E20 EQ PUSH2 0x11A0 JUMPI DUP1 PUSH4 0xA1C2E79C EQ PUSH2 0xD40 JUMPI DUP1 PUSH4 0xBA0C2F21 EQ PUSH2 0xC6B JUMPI DUP1 PUSH4 0xBF18E0F6 EQ PUSH2 0xB66 JUMPI DUP1 PUSH4 0xC0E4FC6D EQ PUSH2 0xAE1 JUMPI DUP1 PUSH4 0xC5C0C5A9 EQ PUSH2 0xAC3 JUMPI DUP1 PUSH4 0xC99BC0FA EQ PUSH2 0x9D2 JUMPI DUP1 PUSH4 0xCEA23121 EQ PUSH2 0x95E JUMPI DUP1 PUSH4 0xCF770E16 EQ PUSH2 0x79B JUMPI DUP1 PUSH4 0xDD91FDFA EQ PUSH2 0x77D JUMPI DUP1 PUSH4 0xE5C5961F EQ PUSH2 0x75F JUMPI DUP1 PUSH4 0xEC6F5673 EQ PUSH2 0x438 JUMPI DUP1 PUSH4 0xF2FDE38B EQ PUSH2 0x3AF JUMPI DUP1 PUSH4 0xF5CF2B6F EQ PUSH2 0x2DA JUMPI PUSH4 0xF7F7AAFA EQ PUSH2 0x1F5 JUMPI PUSH1 0x0 DUP1 REVERT JUMPDEST CALLVALUE PUSH2 0x2D5 JUMPI PUSH1 0x20 CALLDATASIZE PUSH1 0x3 NOT ADD SLT PUSH2 0x2D5 JUMPI PUSH2 0x20E PUSH2 0x46E5 JUMP JUMPDEST PUSH1 0xC SLOAD SWAP1 PUSH2 0x21B DUP3 PUSH2 0x4917 JUMP JUMPDEST SWAP2 PUSH1 0x0 SWAP2 PUSH1 0x1 PUSH1 0x1 PUSH1 0xA0 SHL SUB AND PUSH1 0x1 JUMPDEST DUP3 DUP2 GT ISZERO PUSH2 0x283 JUMPI POP POP POP PUSH2 0x23F DUP2 PUSH2 0x4917 JUMP JUMPDEST SWAP2 PUSH1 0x0 JUMPDEST DUP3 DUP2 LT PUSH2 0x264 JUMPI PUSH1 0x40 MLOAD PUSH1 0x20 DUP1 DUP3 MSTORE DUP2 SWAP1 PUSH2 0x260 SWAP1 DUP3 ADD DUP8 PUSH2 0x4768 JUMP JUMPDEST SUB SWAP1 RETURN JUMPDEST DUP1 PUSH2 0x271 PUSH1 0x1 SWAP3 DUP5 PUSH2 0x4949 JUMP JUMPDEST MLOAD PUSH2 0x27C DUP3 DUP8 PUSH2 0x4949 JUMP JUMPDEST MSTORE ADD PUSH2 0x243 JUMP JUMPDEST DUP2 PUSH1 0x0 MSTORE PUSH1 0x9 PUSH1 0x20 MSTORE PUSH1 0x40 PUSH1 0x0 KECCAK256 DUP2 PUSH1 0x0 MSTORE PUSH1 0x20 MSTORE PUSH1 0xFF PUSH1 0x40 PUSH1 0x0 KECCAK256 SLOAD AND PUSH2 0x2B4 JUMPI JUMPDEST PUSH2 0x2AF SWAP1 PUSH2 0x488F JUMP JUMPDEST PUSH2 0x22B JUMP JUMPDEST SWAP3 PUSH2 0x2CD DUP2 DUP6 PUSH2 0x2C7 PUSH2 0x2AF SWAP5 DUP10 PUSH2 0x4949 JUMP JUMPDEST MSTORE PUSH2 0x488F JUMP JUMPDEST SWAP4 SWAP1 POP PUSH2 0x2A6 JUMP JUMPDEST PUSH1 0x0 DUP1 REVERT JUMPDEST CALLVALUE PUSH2 0x2D5 JUMPI PUSH1 0x20 CALLDATASIZE PUSH1 0x3 NOT ADD SLT PUSH2 0x2D5 JUMPI PUSH2 0x2F3 PUSH2 0x46E5 JUMP JUMPDEST PUSH1 0xD SLOAD SWAP1 PUSH2 0x300 DUP3 PUSH2 0x4917 JUMP JUMPDEST SWAP2 PUSH1 0x0 SWAP2 PUSH1 0x1 PUSH1 0x1 PUSH1 0xA0 SHL SUB AND PUSH1 0x1 JUMPDEST DUP3 DUP2 GT ISZERO PUSH2 0x364 JUMPI POP POP POP PUSH2 0x324 DUP2 PUSH2 0x4917 JUMP JUMPDEST SWAP2 PUSH1 0x0 JUMPDEST DUP3 DUP2 LT PUSH2 0x345 JUMPI PUSH1 0x40 MLOAD PUSH1 0x20 DUP1 DUP3 MSTORE DUP2 SWAP1 PUSH2 0x260 SWAP1 DUP3 ADD DUP8 PUSH2 0x4768 JUMP JUMPDEST DUP1 PUSH2 0x352 PUSH1 0x1 SWAP3 DUP5 PUSH2 0x4949 JUMP JUMPDEST MLOAD PUSH2 0x35D DUP3 DUP8 PUSH2 0x4949 JUMP JUMPDEST MSTORE ADD PUSH2 0x328 JUMP JUMPDEST PUSH1 0x0 DUP2 DUP2 MSTORE PUSH1 0x5 PUSH1 0x20 MSTORE PUSH1 0x40 SWAP1 KECCAK256 PUSH1 0x2 ADD SLOAD PUSH1 0x1 PUSH1 0x1 PUSH1 0xA0 SHL SUB AND DUP3 EQ PUSH2 0x394 JUMPI JUMPDEST PUSH2 0x38F SWAP1 PUSH2 0x488F JUMP JUMPDEST PUSH2 0x310 JUMP JUMPDEST SWAP3 PUSH2 0x3A7 DUP2 DUP6 PUSH2 0x2C7 PUSH2 0x38F SWAP5 DUP10 PUSH2 0x4949 JUMP JUMPDEST SWAP4 SWAP1 POP PUSH2 0x386 JUMP JUMPDEST CALLVALUE PUSH2 0x2D5 JUMPI PUSH1 0x20 CALLDATASIZE PUSH1 0x3 NOT ADD SLT PUSH2 0x2D5 JUMPI PUSH2 0x3C8 PUSH2 0x46E5 JUMP JUMPDEST PUSH2 0x3D0 PUSH2 0x4B37 JUMP JUMPDEST PUSH1 0x1 PUSH1 0x1 PUSH1 0xA0 SHL SUB AND DUP1 ISZERO PUSH2 0x422 JUMPI PUSH1 0x0 DUP1 SLOAD PUSH1 0x1 PUSH1 0x1 PUSH1 0xA0 SHL SUB NOT DUP2 AND DUP4 OR DUP3 SSTORE PUSH1 0x1 PUSH1 0x1 PUSH1 0xA0 SHL SUB AND SWAP1 PUSH32 0x8BE0079C531659141344CD1FD0A4F28419497F9722A3DAAFE3B4186F6B6457E0 SWAP1 DUP1 LOG3 STOP JUMPDEST PUSH4 0x1E4FBDF7 PUSH1 0xE0 SHL PUSH1 0x0 MSTORE PUSH1 0x0 PUSH1 0x4 MSTORE PUSH1 0x24 PUSH1 0x0 REVERT JUMPDEST CALLVALUE PUSH2 0x2D5 JUMPI PUSH2 0x446 CALLDATASIZE PUSH2 0x479C JUMP JUMPDEST SWAP1 DUP1 ISZERO ISZERO DUP1 PUSH2 0x753 JUMPI JUMPDEST PUSH2 0x459 SWAP1 PUSH2 0x484A JUMP JUMPDEST DUP2 MLOAD ISZERO PUSH2 0x71A JUMPI CALLER PUSH1 0x0 MSTORE PUSH1 0x9 PUSH1 0x20 MSTORE PUSH1 0x40 PUSH1 0x0 KECCAK256 DUP2 PUSH1 0x0 MSTORE PUSH1 0x20 MSTORE PUSH1 0xFF PUSH1 0x40 PUSH1 0x0 KECCAK256 SLOAD AND PUSH2 0x6C9 JUMPI DUP1 PUSH1 0x0 MSTORE PUSH1 0x8 PUSH1 0x20 MSTORE PUSH1 0x40 PUSH1 0x0 KECCAK256 PUSH1 0x40 MLOAD SWAP1 PUSH2 0x49D DUP3 PUSH2 0x4502 JUMP JUMPDEST CALLER DUP3 MSTORE PUSH1 0x20 DUP3 ADD DUP4 DUP2 MSTORE PUSH1 0x40 DUP4 ADD DUP6 DUP2 MSTORE PUSH1 0x60 DUP5 ADD SWAP2 TIMESTAMP DUP4 MSTORE PUSH1 0x80 DUP6 ADD SWAP4 PUSH1 0x1 DUP6 MSTORE DUP1 SLOAD PUSH1 0x1 PUSH1 0x40 SHL DUP2 LT ISZERO PUSH2 0x69D JUMPI PUSH2 0x4DC SWAP2 PUSH1 0x1 DUP3 ADD DUP2 SSTORE PUSH2 0x4594 JUMP JUMPDEST SWAP6 SWAP1 SWAP6 PUSH2 0x6B3 JUMPI MLOAD DUP6 SLOAD PUSH1 0x1 PUSH1 0x1 PUSH1 0xA0 SHL SUB NOT AND PUSH1 0x1 PUSH1 0x1 PUSH1 0xA0 SHL SUB SWAP2 SWAP1 SWAP2 AND OR DUP6 SSTORE MLOAD PUSH1 0x1 DUP6 ADD SSTORE MLOAD DUP1 MLOAD PUSH1 0x2 DUP6 ADD SWAP2 PUSH1 0x1 PUSH1 0x1 PUSH1 0x40 SHL SUB DUP3 GT PUSH2 0x69D JUMPI PUSH2 0x525 DUP4 SLOAD PUSH2 0x45C6 JUMP JUMPDEST PUSH1 0x1F DUP2 GT PUSH2 0x660 JUMPI JUMPDEST POP PUSH1 0x20 SWAP1 PUSH1 0x1F DUP4 GT PUSH1 0x1 EQ PUSH2 0x5F0 JUMPI SWAP2 DUP1 PUSH2 0x583 SWAP8 SWAP7 SWAP5 SWAP3 PUSH1 0x4 SWAP7 SWAP5 PUSH1 0x0 SWAP3 PUSH2 0x5E5 JUMPI JUMPDEST POP POP DUP2 PUSH1 0x1 SHL SWAP2 PUSH1 0x0 NOT SWAP1 PUSH1 0x3 SHL SHR NOT AND OR SWAP1 SSTORE JUMPDEST MLOAD PUSH1 0x3 DUP5 ADD SSTORE MLOAD ISZERO ISZERO SWAP2 ADD SWAP1 PUSH1 0xFF DUP1 NOT DUP4 SLOAD AND SWAP2 ISZERO ISZERO AND OR SWAP1 SSTORE JUMP JUMPDEST CALLER PUSH1 0x0 MSTORE PUSH1 0x9 PUSH1 0x20 MSTORE PUSH1 0x40 PUSH1 0x0 KECCAK256 DUP2 PUSH1 0x0 MSTORE PUSH1 0x20 MSTORE PUSH1 0x40 PUSH1 0x0 KECCAK256 PUSH1 0x1 PUSH1 0xFF NOT DUP3 SLOAD AND OR SWAP1 SSTORE PUSH32 0xA0ACB858904F6EA72907E2D435155CE1A199A6289FD70B61EBF8A7289E0223AE PUSH1 0x40 MLOAD PUSH1 0x20 DUP2 MSTORE DUP1 PUSH2 0x5E0 CALLER SWAP6 PUSH1 0x20 DUP4 ADD SWAP1 PUSH2 0x46A4 JUMP JUMPDEST SUB SWAP1 LOG3 STOP JUMPDEST ADD MLOAD SWAP1 POP DUP11 DUP1 PUSH2 0x552 JUMP JUMPDEST SWAP1 PUSH1 0x1F NOT DUP4 AND SWAP2 DUP5 PUSH1 0x0 MSTORE DUP2 PUSH1 0x0 KECCAK256 SWAP3 PUSH1 0x0 JUMPDEST DUP2 DUP2 LT PUSH2 0x648 JUMPI POP SWAP3 PUSH1 0x1 SWAP3 DUP6 SWAP3 PUSH1 0x4 SWAP9 SWAP7 PUSH2 0x583 SWAP12 SWAP11 SWAP9 SWAP7 LT PUSH2 0x62F JUMPI JUMPDEST POP POP POP DUP2 SHL ADD SWAP1 SSTORE PUSH2 0x567 JUMP JUMPDEST ADD MLOAD PUSH1 0x0 NOT PUSH1 0xF8 DUP5 PUSH1 0x3 SHL AND SHR NOT AND SWAP1 SSTORE DUP11 DUP1 DUP1 PUSH2 0x622 JUMP JUMPDEST SWAP3 SWAP4 PUSH1 0x20 PUSH1 0x1 DUP2 SWAP3 DUP8 DUP7 ADD MLOAD DUP2 SSTORE ADD SWAP6 ADD SWAP4 ADD PUSH2 0x603 JUMP JUMPDEST PUSH2 0x68D SWAP1 DUP5 PUSH1 0x0 MSTORE PUSH1 0x20 PUSH1 0x0 KECCAK256 PUSH1 0x1F DUP6 ADD PUSH1 0x5 SHR DUP2 ADD SWAP2 PUSH1 0x20 DUP7 LT PUSH2 0x693 JUMPI JUMPDEST PUSH1 0x1F ADD PUSH1 0x5 SHR ADD SWAP1 PUSH2 0x48B4 JUMP JUMPDEST DUP9 PUSH2 0x52E JUMP JUMPDEST SWAP1 SWAP2 POP DUP2 SWAP1 PUSH2 0x680 JUMP JUMPDEST PUSH4 0x4E487B71 PUSH1 0xE0 SHL PUSH1 0x0 MSTORE PUSH1 0x41 PUSH1 0x4 MSTORE PUSH1 0x24 PUSH1 0x0 REVERT JUMPDEST PUSH4 0x4E487B71 PUSH1 0xE0 SHL PUSH1 0x0 MSTORE PUSH1 0x0 PUSH1 0x4 MSTORE PUSH1 0x24 PUSH1 0x0 REVERT JUMPDEST PUSH1 0x40 MLOAD PUSH3 0x461BCD PUSH1 0xE5 SHL DUP2 MSTORE PUSH1 0x20 PUSH1 0x4 DUP3 ADD MSTORE PUSH1 0x23 PUSH1 0x24 DUP3 ADD MSTORE PUSH32 0x416C7265616479207265676973746572656420666F7220746869732070726F64 PUSH1 0x44 DUP3 ADD MSTORE PUSH3 0x1D58DD PUSH1 0xEA SHL PUSH1 0x64 DUP3 ADD MSTORE PUSH1 0x84 SWAP1 REVERT JUMPDEST PUSH1 0x40 MLOAD PUSH3 0x461BCD PUSH1 0xE5 SHL DUP2 MSTORE PUSH1 0x20 PUSH1 0x4 DUP3 ADD MSTORE PUSH1 0x11 PUSH1 0x24 DUP3 ADD MSTORE PUSH17 0x115B585A5B081A5CC81C995C5D5A5C9959 PUSH1 0x7A SHL PUSH1 0x44 DUP3 ADD MSTORE PUSH1 0x64 SWAP1 REVERT JUMPDEST POP PUSH1 0xC SLOAD DUP2 GT ISZERO PUSH2 0x450 JUMP JUMPDEST CALLVALUE PUSH2 0x2D5 JUMPI PUSH1 0x0 CALLDATASIZE PUSH1 0x3 NOT ADD SLT PUSH2 0x2D5 JUMPI PUSH1 0x20 PUSH1 0xA SLOAD PUSH1 0x40 MLOAD SWAP1 DUP2 MSTORE RETURN JUMPDEST CALLVALUE PUSH2 0x2D5 JUMPI PUSH1 0x0 CALLDATASIZE PUSH1 0x3 NOT ADD SLT PUSH2 0x2D5 JUMPI PUSH1 0x20 PUSH1 0xD SLOAD PUSH1 0x40 MLOAD SWAP1 DUP2 MSTORE RETURN JUMPDEST CALLVALUE PUSH2 0x2D5 JUMPI PUSH1 0x20 CALLDATASIZE PUSH1 0x3 NOT ADD SLT PUSH2 0x2D5 JUMPI PUSH1 0x4 CALLDATALOAD DUP1 ISZERO ISZERO DUP1 PUSH2 0x952 JUMPI JUMPDEST PUSH2 0x7C1 SWAP1 PUSH2 0x4ACF JUMP JUMPDEST PUSH1 0x0 MSTORE PUSH1 0x3 PUSH1 0x20 MSTORE PUSH1 0x40 PUSH1 0x0 KECCAK256 DUP1 SLOAD PUSH1 0x4 DUP3 ADD SLOAD PUSH1 0x1 DUP1 PUSH1 0xA0 SHL SUB PUSH1 0x5 DUP5 ADD SLOAD AND SWAP1 PUSH1 0x6 DUP5 ADD SLOAD SWAP1 PUSH1 0x7 DUP6 ADD SLOAD SWAP1 PUSH1 0xFF PUSH2 0x8EC PUSH1 0x8 DUP9 ADD SLOAD SWAP3 PUSH1 0xA DUP10 ADD SLOAD SWAP9 PUSH1 0xB DUP2 ADD SLOAD SWAP5 PUSH1 0xC DUP3 ADD SLOAD SWAP7 PUSH1 0xD DUP4 ADD SLOAD SWAP9 PUSH1 0xE DUP5 ADD SLOAD SWAP11 PUSH2 0x8B6 PUSH1 0xF DUP7 ADD SLOAD SWAP14 PUSH2 0x82D PUSH1 0x1 DUP9 ADD PUSH2 0x4600 JUMP JUMPDEST PUSH1 0xA0 MSTORE PUSH2 0x83C PUSH1 0x2 DUP9 ADD PUSH2 0x4600 JUMP JUMPDEST PUSH1 0xE0 MSTORE PUSH2 0x84B PUSH1 0x3 DUP9 ADD PUSH2 0x4600 JUMP JUMPDEST SWAP1 PUSH2 0x864 PUSH1 0x10 PUSH2 0x85D PUSH1 0x9 DUP12 ADD PUSH2 0x4600 JUMP JUMPDEST SWAP10 ADD PUSH2 0x4600 JUMP JUMPDEST PUSH1 0x80 MSTORE PUSH1 0x40 MLOAD PUSH1 0xC0 MSTORE PUSH1 0xC0 MLOAD MSTORE PUSH2 0x240 PUSH1 0x20 PUSH1 0xC0 MLOAD ADD MSTORE PUSH2 0x8A4 PUSH2 0x890 PUSH2 0x240 PUSH1 0xC0 MLOAD ADD PUSH1 0xA0 MLOAD PUSH2 0x46A4 JUMP JUMPDEST PUSH1 0xC0 MLOAD DUP2 SUB PUSH1 0x40 PUSH1 0xC0 MLOAD ADD MSTORE PUSH1 0xE0 MLOAD PUSH2 0x46A4 JUMP JUMPDEST SWAP1 PUSH1 0xC0 MLOAD DUP3 SUB PUSH1 0x60 PUSH1 0xC0 MLOAD ADD MSTORE PUSH2 0x46A4 JUMP JUMPDEST SWAP6 PUSH1 0x80 PUSH1 0xC0 MLOAD ADD MSTORE PUSH1 0xA0 PUSH1 0xC0 MLOAD ADD MSTORE PUSH1 0xC0 DUP1 MLOAD ADD MSTORE PUSH1 0xE0 PUSH1 0xC0 MLOAD ADD MSTORE PUSH2 0x100 PUSH1 0xC0 MLOAD ADD MSTORE PUSH1 0xC0 MLOAD DUP3 SUB PUSH2 0x120 PUSH1 0xC0 MLOAD ADD MSTORE PUSH2 0x46A4 JUMP JUMPDEST SWAP7 DUP2 DUP2 AND ISZERO ISZERO PUSH2 0x140 PUSH1 0xC0 MLOAD ADD MSTORE PUSH1 0x8 SHR AND ISZERO ISZERO PUSH2 0x160 PUSH1 0xC0 MLOAD ADD MSTORE PUSH2 0x180 PUSH1 0xC0 MLOAD ADD MSTORE PUSH2 0x1A0 PUSH1 0xC0 MLOAD ADD MSTORE PUSH2 0x1C0 PUSH1 0xC0 MLOAD ADD MSTORE PUSH2 0x1E0 PUSH1 0xC0 MLOAD ADD MSTORE PUSH2 0x200 PUSH1 0xC0 MLOAD ADD MSTORE PUSH1 0xC0 MLOAD DUP2 SUB PUSH2 0x220 PUSH1 0xC0 MLOAD ADD MSTORE PUSH2 0x94C PUSH1 0xC0 MLOAD SWAP2 PUSH1 0x80 MLOAD PUSH2 0x46A4 JUMP JUMPDEST SUB PUSH1 0xC0 MLOAD RETURN JUMPDEST POP PUSH1 0xB SLOAD DUP2 GT ISZERO PUSH2 0x7B8 JUMP JUMPDEST CALLVALUE PUSH2 0x2D5 JUMPI PUSH1 0x20 CALLDATASIZE PUSH1 0x3 NOT ADD SLT PUSH2 0x2D5 JUMPI PUSH1 0x4 CALLDATALOAD PUSH1 0x0 MSTORE PUSH1 0x2 PUSH1 0x20 MSTORE PUSH1 0x40 PUSH1 0x0 KECCAK256 DUP1 SLOAD PUSH2 0x260 PUSH2 0x990 PUSH1 0x1 DUP5 ADD PUSH2 0x4600 JUMP JUMPDEST SWAP3 PUSH2 0x99D PUSH1 0x2 DUP3 ADD PUSH2 0x4600 JUMP JUMPDEST SWAP1 PUSH1 0x1 DUP1 PUSH1 0xA0 SHL SUB PUSH1 0x3 DUP3 ADD SLOAD AND PUSH1 0x4 DUP3 ADD SLOAD SWAP1 PUSH2 0x9C5 PUSH1 0x6 PUSH1 0xFF PUSH1 0x5 DUP7 ADD SLOAD AND SWAP5 ADD PUSH2 0x4600 JUMP JUMPDEST SWAP4 PUSH1 0x40 MLOAD SWAP8 DUP9 SWAP8 DUP9 PUSH2 0x47EF JUMP JUMPDEST CALLVALUE PUSH2 0x2D5 JUMPI PUSH2 0x9E0 CALLDATASIZE PUSH2 0x479C JUMP JUMPDEST DUP2 ISZERO ISZERO DUP1 PUSH2 0xAB7 JUMPI JUMPDEST PUSH2 0x9F2 SWAP1 PUSH2 0x4ACF JUMP JUMPDEST PUSH1 0x0 DUP3 DUP2 MSTORE PUSH1 0x3 PUSH1 0x20 MSTORE PUSH1 0x40 SWAP1 KECCAK256 PUSH1 0x5 ADD SLOAD PUSH1 0x1 PUSH1 0x1 PUSH1 0xA0 SHL SUB AND CALLER SUB PUSH2 0xA72 JUMPI PUSH2 0xA6D PUSH32 0xDF0BBCE374B20F3680002DA1ECDFEDB59F3B86436350B189779A215C75137D55 SWAP2 DUP4 PUSH1 0x0 MSTORE PUSH1 0x3 PUSH1 0x20 MSTORE PUSH1 0xA PUSH1 0x40 PUSH1 0x0 KECCAK256 ADD PUSH2 0x100 PUSH2 0xFF00 NOT DUP3 SLOAD AND OR SWAP1 SSTORE PUSH2 0xA5F DUP5 PUSH2 0x4B60 JUMP JUMPDEST PUSH1 0x40 MLOAD SWAP2 DUP3 SWAP2 TIMESTAMP SWAP1 DUP4 PUSH2 0x4B1B JUMP JUMPDEST SUB SWAP1 LOG2 STOP JUMPDEST PUSH1 0x40 MLOAD PUSH3 0x461BCD PUSH1 0xE5 SHL DUP2 MSTORE PUSH1 0x20 PUSH1 0x4 DUP3 ADD MSTORE PUSH1 0x1D PUSH1 0x24 DUP3 ADD MSTORE PUSH32 0x43616E206F6E6C79206D61726B206F776E20696E6772656469656E7473000000 PUSH1 0x44 DUP3 ADD MSTORE PUSH1 0x64 SWAP1 REVERT JUMPDEST POP PUSH1 0xB SLOAD DUP3 GT ISZERO PUSH2 0x9E9 JUMP JUMPDEST CALLVALUE PUSH2 0x2D5 JUMPI PUSH1 0x0 CALLDATASIZE PUSH1 0x3 NOT ADD SLT PUSH2 0x2D5 JUMPI PUSH1 0x20 PUSH1 0xB SLOAD PUSH1 0x40 MLOAD SWAP1 DUP2 MSTORE RETURN JUMPDEST CALLVALUE PUSH2 0x2D5 JUMPI PUSH1 0x20 CALLDATASIZE PUSH1 0x3 NOT ADD SLT PUSH2 0x2D5 JUMPI PUSH1 0x4 CALLDATALOAD DUP1 ISZERO ISZERO DUP1 PUSH2 0xB5A JUMPI JUMPDEST PUSH2 0xB07 SWAP1 PUSH2 0x495D JUMP JUMPDEST PUSH1 0x0 MSTORE PUSH1 0x2 PUSH1 0x20 MSTORE PUSH1 0x40 PUSH1 0x0 KECCAK256 DUP1 SLOAD PUSH2 0x260 PUSH1 0x1 DUP1 PUSH1 0xA0 SHL SUB PUSH1 0x3 DUP5 ADD SLOAD AND SWAP3 PUSH1 0x4 DUP2 ADD SLOAD PUSH1 0xFF PUSH1 0x5 DUP4 ADD SLOAD AND SWAP1 PUSH2 0xB41 PUSH1 0x1 DUP5 ADD PUSH2 0x4600 JUMP JUMPDEST SWAP6 PUSH2 0x9C5 PUSH1 0x6 PUSH2 0xB53 PUSH1 0x2 DUP8 ADD PUSH2 0x4600 JUMP JUMPDEST SWAP6 ADD PUSH2 0x4600 JUMP JUMPDEST POP PUSH1 0xA SLOAD DUP2 GT ISZERO PUSH2 0xAFE JUMP JUMPDEST CALLVALUE PUSH2 0x2D5 JUMPI PUSH1 0x20 CALLDATASIZE PUSH1 0x3 NOT ADD SLT PUSH2 0x2D5 JUMPI PUSH1 0x4 CALLDATALOAD DUP1 ISZERO ISZERO DUP1 PUSH2 0xC5F JUMPI JUMPDEST PUSH2 0xB8C SWAP1 PUSH2 0x4ACF JUMP JUMPDEST PUSH1 0xC SLOAD PUSH2 0xB98 DUP2 PUSH2 0x4917 JUMP JUMPDEST SWAP2 PUSH1 0x0 SWAP2 PUSH1 0x1 JUMPDEST DUP2 DUP2 GT ISZERO PUSH2 0xBF3 JUMPI POP POP POP PUSH2 0xBB3 DUP2 PUSH2 0x4917 JUMP JUMPDEST SWAP2 PUSH1 0x0 JUMPDEST DUP3 DUP2 LT PUSH2 0xBD4 JUMPI PUSH1 0x40 MLOAD PUSH1 0x20 DUP1 DUP3 MSTORE DUP2 SWAP1 PUSH2 0x260 SWAP1 DUP3 ADD DUP8 PUSH2 0x4768 JUMP JUMPDEST DUP1 PUSH2 0xBE1 PUSH1 0x1 SWAP3 DUP5 PUSH2 0x4949 JUMP JUMPDEST MLOAD PUSH2 0xBEC DUP3 DUP8 PUSH2 0x4949 JUMP JUMPDEST MSTORE ADD PUSH2 0xBB7 JUMP JUMPDEST PUSH1 0x0 DUP2 DUP2 MSTORE PUSH1 0x4 PUSH1 0x20 MSTORE PUSH1 0x40 DUP2 KECCAK256 PUSH1 0x5 ADD DUP1 SLOAD SWAP2 JUMPDEST DUP3 DUP2 LT PUSH2 0xC21 JUMPI JUMPDEST POP POP POP PUSH2 0xC1C SWAP1 PUSH2 0x488F JUMP JUMPDEST PUSH2 0xB9F JUMP JUMPDEST DUP6 PUSH2 0xC2C DUP3 DUP5 PUSH2 0x4AB7 JUMP JUMPDEST SWAP1 SLOAD SWAP1 PUSH1 0x3 SHL SHR EQ PUSH2 0xC40 JUMPI PUSH1 0x1 ADD PUSH2 0xC08 JUMP JUMPDEST POP POP POP SWAP3 PUSH2 0xC56 DUP2 DUP6 PUSH2 0x2C7 PUSH2 0xC1C SWAP5 DUP10 PUSH2 0x4949 JUMP JUMPDEST SWAP4 SWAP1 DUP7 DUP1 PUSH2 0xC10 JUMP JUMPDEST POP PUSH1 0xB SLOAD DUP2 GT ISZERO PUSH2 0xB83 JUMP JUMPDEST CALLVALUE PUSH2 0x2D5 JUMPI PUSH1 0x20 CALLDATASIZE PUSH1 0x3 NOT ADD SLT PUSH2 0x2D5 JUMPI PUSH2 0xC84 PUSH2 0x46E5 JUMP JUMPDEST PUSH1 0xB SLOAD SWAP1 PUSH2 0xC91 DUP3 PUSH2 0x4917 JUMP JUMPDEST SWAP2 PUSH1 0x0 SWAP2 PUSH1 0x1 PUSH1 0x1 PUSH1 0xA0 SHL SUB AND PUSH1 0x1 JUMPDEST DUP3 DUP2 GT ISZERO PUSH2 0xCF5 JUMPI POP POP POP PUSH2 0xCB5 DUP2 PUSH2 0x4917 JUMP JUMPDEST SWAP2 PUSH1 0x0 JUMPDEST DUP3 DUP2 LT PUSH2 0xCD6 JUMPI PUSH1 0x40 MLOAD PUSH1 0x20 DUP1 DUP3 MSTORE DUP2 SWAP1 PUSH2 0x260 SWAP1 DUP3 ADD DUP8 PUSH2 0x4768 JUMP JUMPDEST DUP1 PUSH2 0xCE3 PUSH1 0x1 SWAP3 DUP5 PUSH2 0x4949 JUMP JUMPDEST MLOAD PUSH2 0xCEE DUP3 DUP8 PUSH2 0x4949 JUMP JUMPDEST MSTORE ADD PUSH2 0xCB9 JUMP JUMPDEST PUSH1 0x0 DUP2 DUP2 MSTORE PUSH1 0x3 PUSH1 0x20 MSTORE PUSH1 0x40 SWAP1 KECCAK256 PUSH1 0x5 ADD SLOAD PUSH1 0x1 PUSH1 0x1 PUSH1 0xA0 SHL SUB AND DUP3 EQ PUSH2 0xD25 JUMPI JUMPDEST PUSH2 0xD20 SWAP1 PUSH2 0x488F JUMP JUMPDEST PUSH2 0xCA1 JUMP JUMPDEST SWAP3 PUSH2 0xD38 DUP2 DUP6 PUSH2 0x2C7 PUSH2 0xD20 SWAP5 DUP10 PUSH2 0x4949 JUMP JUMPDEST SWAP4 SWAP1 POP PUSH2 0xD17 JUMP JUMPDEST CALLVALUE PUSH2 0x2D5 JUMPI PUSH1 0x60 CALLDATASIZE PUSH1 0x3 NOT ADD SLT PUSH2 0x2D5 JUMPI PUSH1 0x4 CALLDATALOAD PUSH1 0x1 PUSH1 0x1 PUSH1 0x40 SHL SUB DUP2 GT PUSH2 0x2D5 JUMPI PUSH2 0xD70 SWAP1 CALLDATASIZE SWAP1 PUSH1 0x4 ADD PUSH2 0x453E JUMP JUMPDEST PUSH1 0x24 CALLDATALOAD PUSH1 0x1 PUSH1 0x1 PUSH1 0x40 SHL SUB DUP2 GT PUSH2 0x2D5 JUMPI PUSH2 0xD8F SWAP1 CALLDATASIZE SWAP1 PUSH1 0x4 ADD PUSH2 0x453E JUMP JUMPDEST PUSH1 0x44 CALLDATALOAD PUSH1 0x1 PUSH1 0x1 PUSH1 0x40 SHL SUB DUP2 GT PUSH2 0x2D5 JUMPI PUSH2 0xDAE SWAP1 CALLDATASIZE SWAP1 PUSH1 0x4 ADD PUSH2 0x453E JUMP JUMPDEST SWAP2 PUSH2 0xDBB DUP2 MLOAD ISZERO ISZERO PUSH2 0x49A9 JUMP JUMPDEST PUSH2 0xDC6 PUSH1 0xA SLOAD PUSH2 0x488F JUMP JUMPDEST SWAP2 DUP3 PUSH1 0xA SSTORE PUSH1 0x40 MLOAD SWAP1 PUSH2 0xDD8 DUP3 PUSH2 0x4495 JUMP JUMPDEST DUP4 DUP3 MSTORE PUSH1 0x20 DUP3 ADD SWAP1 DUP4 DUP3 MSTORE PUSH1 0x40 DUP4 ADD SWAP1 DUP2 MSTORE PUSH1 0x60 DUP4 ADD CALLER DUP2 MSTORE PUSH1 0x80 DUP5 ADD SWAP2 TIMESTAMP DUP4 MSTORE PUSH1 0xA0 DUP6 ADD SWAP4 PUSH1 0x1 DUP6 MSTORE PUSH1 0xC0 DUP7 ADD SWAP9 DUP10 MSTORE DUP8 PUSH1 0x0 MSTORE PUSH1 0x2 PUSH1 0x20 MSTORE PUSH1 0x40 PUSH1 0x0 KECCAK256 SWAP6 MLOAD DUP7 SSTORE PUSH1 0x1 DUP7 ADD SWAP1 MLOAD DUP1 MLOAD SWAP1 PUSH1 0x1 PUSH1 0x1 PUSH1 0x40 SHL SUB DUP3 GT PUSH2 0x69D JUMPI DUP2 SWAP1 PUSH2 0xE3E DUP5 SLOAD PUSH2 0x45C6 JUMP JUMPDEST PUSH1 0x1F DUP2 GT PUSH2 0x116E JUMPI JUMPDEST POP PUSH1 0x20 SWAP1 PUSH1 0x1F DUP4 GT PUSH1 0x1 EQ PUSH2 0x1109 JUMPI PUSH1 0x0 SWAP3 PUSH2 0x10FE JUMPI JUMPDEST POP POP DUP2 PUSH1 0x1 SHL SWAP2 PUSH1 0x0 NOT SWAP1 PUSH1 0x3 SHL SHR NOT AND OR SWAP1 SSTORE JUMPDEST MLOAD DUP1 MLOAD PUSH1 0x2 DUP7 ADD SWAP2 PUSH1 0x1 PUSH1 0x1 PUSH1 0x40 SHL SUB DUP3 GT PUSH2 0x69D JUMPI PUSH2 0xE93 DUP4 SLOAD PUSH2 0x45C6 JUMP JUMPDEST PUSH1 0x1F DUP2 GT PUSH2 0x10CC JUMPI JUMPDEST POP PUSH1 0x20 SWAP1 PUSH1 0x1F DUP4 GT PUSH1 0x1 EQ PUSH2 0x105B JUMPI SWAP2 DUP1 PUSH2 0xF19 SWAP7 SWAP5 SWAP3 PUSH1 0x6 SWAP10 SWAP9 SWAP7 SWAP5 PUSH1 0x0 SWAP3 PUSH2 0x1050 JUMPI JUMPDEST POP POP DUP2 PUSH1 0x1 SHL SWAP2 PUSH1 0x0 NOT SWAP1 PUSH1 0x3 SHL SHR NOT AND OR SWAP1 SSTORE JUMPDEST MLOAD PUSH1 0x3 DUP6 ADD DUP1 SLOAD PUSH1 0x1 PUSH1 0x1 PUSH1 0xA0 SHL SUB SWAP1 SWAP3 AND PUSH1 0x1 PUSH1 0x1 PUSH1 0xA0 SHL SUB NOT SWAP1 SWAP3 AND SWAP2 SWAP1 SWAP2 OR SWAP1 SSTORE MLOAD PUSH1 0x4 DUP5 ADD SSTORE MLOAD PUSH1 0x5 DUP4 ADD DUP1 SLOAD PUSH1 0xFF NOT AND SWAP2 ISZERO ISZERO PUSH1 0xFF AND SWAP2 SWAP1 SWAP2 OR SWAP1 SSTORE JUMP JUMPDEST ADD SWAP3 MLOAD SWAP3 DUP4 MLOAD PUSH1 0x1 PUSH1 0x1 PUSH1 0x40 SHL SUB DUP2 GT PUSH2 0x69D JUMPI DUP1 PUSH1 0x20 SWAP6 PUSH2 0xF3B DUP5 SLOAD PUSH2 0x45C6 JUMP JUMPDEST PUSH1 0x1F DUP2 GT PUSH2 0x1020 JUMPI JUMPDEST POP DUP7 SWAP1 PUSH1 0x1F DUP4 GT PUSH1 0x1 EQ PUSH2 0xFBC JUMPI PUSH1 0x0 SWAP3 PUSH2 0xFB1 JUMPI JUMPDEST POP POP DUP2 PUSH1 0x1 SHL SWAP2 PUSH1 0x0 NOT SWAP1 PUSH1 0x3 SHL SHR NOT AND OR SWAP1 SSTORE JUMPDEST DUP2 PUSH32 0x5BBBA1258DBA0B54C29EF5FF084AE5CA65E7D37DA43A361EA715F0A1A38A5E70 PUSH1 0x40 MLOAD DUP6 DUP2 MSTORE DUP1 PUSH2 0xFA6 CALLER SWAP6 DUP9 DUP4 ADD SWAP1 PUSH2 0x46A4 JUMP JUMPDEST SUB SWAP1 LOG3 PUSH1 0x40 MLOAD SWAP1 DUP2 MSTORE RETURN JUMPDEST ADD MLOAD SWAP1 POP DUP7 DUP1 PUSH2 0xF5A JUMP JUMPDEST PUSH1 0x0 DUP6 DUP2 MSTORE DUP3 DUP2 KECCAK256 SWAP4 POP PUSH1 0x1F NOT DUP6 AND SWAP1 JUMPDEST DUP2 DUP2 LT PUSH2 0x1009 JUMPI POP SWAP1 DUP5 PUSH1 0x1 SWAP6 SWAP5 SWAP4 SWAP3 LT PUSH2 0xFF0 JUMPI JUMPDEST POP POP POP DUP2 SHL ADD SWAP1 SSTORE PUSH2 0xF6F JUMP JUMPDEST ADD MLOAD PUSH1 0x0 NOT PUSH1 0xF8 DUP5 PUSH1 0x3 SHL AND SHR NOT AND SWAP1 SSTORE DUP7 DUP1 DUP1 PUSH2 0xFE3 JUMP JUMPDEST SWAP3 SWAP4 DUP10 PUSH1 0x1 DUP2 SWAP3 DUP8 DUP7 ADD MLOAD DUP2 SSTORE ADD SWAP6 ADD SWAP4 ADD PUSH2 0xFCD JUMP JUMPDEST PUSH2 0x104A SWAP1 DUP6 PUSH1 0x0 MSTORE DUP9 PUSH1 0x0 KECCAK256 PUSH1 0x1F DUP6 ADD PUSH1 0x5 SHR DUP2 ADD SWAP2 DUP11 DUP7 LT PUSH2 0x693 JUMPI PUSH1 0x1F ADD PUSH1 0x5 SHR ADD SWAP1 PUSH2 0x48B4 JUMP JUMPDEST DUP8 PUSH2 0xF44 JUMP JUMPDEST ADD MLOAD SWAP1 POP DUP13 DUP1 PUSH2 0xEC1 JUMP JUMPDEST SWAP1 PUSH1 0x1F NOT DUP4 AND SWAP2 DUP5 PUSH1 0x0 MSTORE DUP2 PUSH1 0x0 KECCAK256 SWAP3 PUSH1 0x0 JUMPDEST DUP2 DUP2 LT PUSH2 0x10B4 JUMPI POP SWAP3 PUSH1 0x1 SWAP3 DUP6 SWAP3 PUSH1 0x6 SWAP12 SWAP11 SWAP9 SWAP7 PUSH2 0xF19 SWAP11 SWAP9 SWAP7 LT PUSH2 0x109B JUMPI JUMPDEST POP POP POP DUP2 SHL ADD SWAP1 SSTORE PUSH2 0xED6 JUMP JUMPDEST ADD MLOAD PUSH1 0x0 NOT PUSH1 0xF8 DUP5 PUSH1 0x3 SHL AND SHR NOT AND SWAP1 SSTORE DUP13 DUP1 DUP1 PUSH2 0x108E JUMP JUMPDEST SWAP3 SWAP4 PUSH1 0x20 PUSH1 0x1 DUP2 SWAP3 DUP8 DUP7 ADD MLOAD DUP2 SSTORE ADD SWAP6 ADD SWAP4 ADD PUSH2 0x106E JUMP JUMPDEST PUSH2 0x10F8 SWAP1 DUP5 PUSH1 0x0 MSTORE PUSH1 0x20 PUSH1 0x0 KECCAK256 PUSH1 0x1F DUP6 ADD PUSH1 0x5 SHR DUP2 ADD SWAP2 PUSH1 0x20 DUP7 LT PUSH2 0x693 JUMPI PUSH1 0x1F ADD PUSH1 0x5 SHR ADD SWAP1 PUSH2 0x48B4 JUMP JUMPDEST DUP11 PUSH2 0xE9C JUMP JUMPDEST ADD MLOAD SWAP1 POP DUP12 DUP1 PUSH2 0xE5E JUMP JUMPDEST PUSH1 0x0 DUP6 DUP2 MSTORE DUP3 DUP2 KECCAK256 SWAP4 POP PUSH1 0x1F NOT DUP6 AND SWAP1 JUMPDEST DUP2 DUP2 LT PUSH2 0x1156 JUMPI POP SWAP1 DUP5 PUSH1 0x1 SWAP6 SWAP5 SWAP4 SWAP3 LT PUSH2 0x113D JUMPI JUMPDEST POP POP POP DUP2 SHL ADD SWAP1 SSTORE PUSH2 0xE73 JUMP JUMPDEST ADD MLOAD PUSH1 0x0 NOT PUSH1 0xF8 DUP5 PUSH1 0x3 SHL AND SHR NOT AND SWAP1 SSTORE DUP12 DUP1 DUP1 PUSH2 0x1130 JUMP JUMPDEST SWAP3 SWAP4 PUSH1 0x20 PUSH1 0x1 DUP2 SWAP3 DUP8 DUP7 ADD MLOAD DUP2 SSTORE ADD SWAP6 ADD SWAP4 ADD PUSH2 0x111A JUMP JUMPDEST PUSH2 0x119A SWAP1 DUP6 PUSH1 0x0 MSTORE PUSH1 0x20 PUSH1 0x0 KECCAK256 PUSH1 0x1F DUP6 ADD PUSH1 0x5 SHR DUP2 ADD SWAP2 PUSH1 0x20 DUP7 LT PUSH2 0x693 JUMPI PUSH1 0x1F ADD PUSH1 0x5 SHR ADD SWAP1 PUSH2 0x48B4 JUMP JUMPDEST DUP13 PUSH2 0xE47 JUMP JUMPDEST CALLVALUE PUSH2 0x2D5 JUMPI PUSH1 0x20 CALLDATASIZE PUSH1 0x3 NOT ADD SLT PUSH2 0x2D5 JUMPI PUSH2 0x11B9 PUSH2 0x46E5 JUMP JUMPDEST PUSH1 0xC SLOAD SWAP1 PUSH2 0x11C6 DUP3 PUSH2 0x4917 JUMP JUMPDEST SWAP2 PUSH1 0x0 SWAP2 PUSH1 0x1 PUSH1 0x1 PUSH1 0xA0 SHL SUB AND PUSH1 0x1 JUMPDEST DUP3 DUP2 GT ISZERO PUSH2 0x122A JUMPI POP POP POP PUSH2 0x11EA DUP2 PUSH2 0x4917 JUMP JUMPDEST SWAP2 PUSH1 0x0 JUMPDEST DUP3 DUP2 LT PUSH2 0x120B JUMPI PUSH1 0x40 MLOAD PUSH1 0x20 DUP1 DUP3 MSTORE DUP2 SWAP1 PUSH2 0x260 SWAP1 DUP3 ADD DUP8 PUSH2 0x4768 JUMP JUMPDEST DUP1 PUSH2 0x1218 PUSH1 0x1 SWAP3 DUP5 PUSH2 0x4949 JUMP JUMPDEST MLOAD PUSH2 0x1223 DUP3 DUP8 PUSH2 0x4949 JUMP JUMPDEST MSTORE ADD PUSH2 0x11EE JUMP JUMPDEST PUSH1 0x0 DUP2 DUP2 MSTORE PUSH1 0x4 PUSH1 0x20 DUP2 SWAP1 MSTORE PUSH1 0x40 SWAP1 SWAP2 KECCAK256 ADD SLOAD PUSH1 0x10 SHR PUSH1 0x1 PUSH1 0x1 PUSH1 0xA0 SHL SUB AND DUP3 EQ PUSH2 0x125E JUMPI JUMPDEST PUSH2 0x1259 SWAP1 PUSH2 0x488F JUMP JUMPDEST PUSH2 0x11D6 JUMP JUMPDEST SWAP3 PUSH2 0x1271 DUP2 DUP6 PUSH2 0x2C7 PUSH2 0x1259 SWAP5 DUP10 PUSH2 0x4949 JUMP JUMPDEST SWAP4 SWAP1 POP PUSH2 0x1250 JUMP JUMPDEST CALLVALUE PUSH2 0x2D5 JUMPI PUSH2 0x1287 CALLDATASIZE PUSH2 0x479C JUMP JUMPDEST DUP2 ISZERO ISZERO DUP1 PUSH2 0x134C JUMPI JUMPDEST PUSH2 0x1299 SWAP1 PUSH2 0x4ACF JUMP JUMPDEST PUSH1 0x0 DUP3 DUP2 MSTORE PUSH1 0x3 PUSH1 0x20 MSTORE PUSH1 0x40 SWAP1 KECCAK256 PUSH1 0x5 ADD SLOAD PUSH1 0x1 PUSH1 0x1 PUSH1 0xA0 SHL SUB AND CALLER SUB PUSH2 0x1307 JUMPI PUSH1 0x0 DUP3 DUP2 MSTORE PUSH1 0x3 PUSH1 0x20 MSTORE PUSH1 0x40 SWAP1 KECCAK256 PUSH1 0xA ADD DUP1 SLOAD PUSH2 0xFFFF NOT AND PUSH2 0x101 OR SWAP1 SSTORE PUSH32 0xDF0BBCE374B20F3680002DA1ECDFEDB59F3B86436350B189779A215C75137D55 SWAP1 PUSH2 0xA6D SWAP1 PUSH2 0xA5F DUP5 PUSH2 0x4B60 JUMP JUMPDEST PUSH1 0x40 MLOAD PUSH3 0x461BCD PUSH1 0xE5 SHL DUP2 MSTORE PUSH1 0x20 PUSH1 0x4 DUP3 ADD MSTORE PUSH1 0x1F PUSH1 0x24 DUP3 ADD MSTORE PUSH32 0x43616E206F6E6C7920726563616C6C206F776E20696E6772656469656E747300 PUSH1 0x44 DUP3 ADD MSTORE PUSH1 0x64 SWAP1 REVERT JUMPDEST POP PUSH1 0xB SLOAD DUP3 GT ISZERO PUSH2 0x1290 JUMP JUMPDEST CALLVALUE PUSH2 0x2D5 JUMPI PUSH1 0x0 CALLDATASIZE PUSH1 0x3 NOT ADD SLT PUSH2 0x2D5 JUMPI PUSH1 0x0 SLOAD PUSH1 0x40 MLOAD PUSH1 0x1 PUSH1 0x1 PUSH1 0xA0 SHL SUB SWAP1 SWAP2 AND DUP2 MSTORE PUSH1 0x20 SWAP1 RETURN JUMPDEST CALLVALUE PUSH2 0x2D5 JUMPI PUSH2 0x1C0 CALLDATASIZE PUSH1 0x3 NOT ADD SLT PUSH2 0x2D5 JUMPI PUSH1 0x4 CALLDATALOAD PUSH1 0x1 PUSH1 0x1 PUSH1 0x40 SHL SUB DUP2 GT PUSH2 0x2D5 JUMPI PUSH2 0x13B2 SWAP1 CALLDATASIZE SWAP1 PUSH1 0x4 ADD PUSH2 0x453E JUMP JUMPDEST PUSH1 0x24 CALLDATALOAD PUSH1 0x1 PUSH1 0x1 PUSH1 0x40 SHL SUB DUP2 GT PUSH2 0x2D5 JUMPI PUSH2 0x13D1 SWAP1 CALLDATASIZE SWAP1 PUSH1 0x4 ADD PUSH2 0x453E JUMP JUMPDEST PUSH1 0x44 CALLDATALOAD PUSH1 0x1 PUSH1 0x1 PUSH1 0x40 SHL SUB DUP2 GT PUSH2 0x2D5 JUMPI PUSH2 0x13F0 SWAP1 CALLDATASIZE SWAP1 PUSH1 0x4 ADD PUSH2 0x453E JUMP JUMPDEST PUSH1 0x64 CALLDATALOAD SWAP3 PUSH1 0x3 DUP5 LT ISZERO PUSH2 0x2D5 JUMPI PUSH1 0x84 CALLDATALOAD SWAP3 PUSH1 0x1 PUSH1 0x1 PUSH1 0x40 SHL SUB DUP5 GT PUSH2 0x2D5 JUMPI CALLDATASIZE PUSH1 0x23 DUP6 ADD SLT ISZERO PUSH2 0x2D5 JUMPI DUP4 PUSH1 0x4 ADD CALLDATALOAD SWAP4 PUSH2 0x1429 DUP6 PUSH2 0x47D8 JUMP JUMPDEST SWAP5 PUSH2 0x1437 PUSH1 0x40 MLOAD SWAP7 DUP8 PUSH2 0x451D JUMP JUMPDEST DUP1 DUP7 MSTORE PUSH1 0x24 PUSH1 0x20 DUP8 ADD SWAP2 PUSH1 0x5 SHL DUP4 ADD ADD SWAP2 CALLDATASIZE DUP4 GT PUSH2 0x2D5 JUMPI PUSH1 0x24 ADD SWAP1 JUMPDEST DUP3 DUP3 LT PUSH2 0x204D JUMPI POP POP POP PUSH1 0xA4 CALLDATALOAD PUSH1 0x1 PUSH1 0x1 PUSH1 0x40 SHL SUB DUP2 GT PUSH2 0x2D5 JUMPI PUSH2 0x147D SWAP1 CALLDATASIZE SWAP1 PUSH1 0x4 ADD PUSH2 0x453E JUMP JUMPDEST SWAP2 PUSH1 0xC4 CALLDATALOAD SWAP2 PUSH1 0xE4 CALLDATALOAD SWAP3 PUSH2 0x104 CALLDATALOAD SWAP8 PUSH2 0x124 CALLDATALOAD SWAP7 PUSH2 0x144 CALLDATALOAD PUSH2 0x164 CALLDATALOAD PUSH2 0x184 CALLDATALOAD SWAP1 PUSH2 0x1A4 CALLDATALOAD SWAP3 PUSH2 0x14AE DUP10 MLOAD ISZERO ISZERO PUSH2 0x49A9 JUMP JUMPDEST PUSH2 0x14BA DUP6 MLOAD ISZERO ISZERO PUSH2 0x49E8 JUMP JUMPDEST DUP13 MLOAD ISZERO PUSH2 0x1FF6 JUMPI DUP13 SWAP14 SWAP13 SWAP12 PUSH1 0x0 SWAP14 DUP15 PUSH1 0xB SLOAD SWAP15 JUMPDEST MLOAD GT ISZERO PUSH2 0x1683 JUMPI DUP16 DUP16 DUP16 SWAP2 SWAP1 PUSH2 0x14E3 SWAP2 PUSH2 0x4949 JUMP JUMPDEST MLOAD GT PUSH2 0x1646 JUMPI DUP16 DUP16 PUSH2 0x14F4 SWAP2 PUSH2 0x4949 JUMP JUMPDEST MLOAD PUSH1 0x0 MSTORE PUSH1 0x3 PUSH1 0x20 MSTORE PUSH1 0xFF PUSH1 0xA PUSH1 0x40 PUSH1 0x0 KECCAK256 ADD SLOAD AND PUSH2 0x1601 JUMPI DUP16 DUP16 PUSH2 0x1518 SWAP2 PUSH2 0x4949 JUMP JUMPDEST MLOAD PUSH1 0x0 MSTORE PUSH1 0x3 PUSH1 0x20 MSTORE PUSH1 0xFF PUSH1 0xA PUSH1 0x40 PUSH1 0x0 KECCAK256 ADD SLOAD PUSH1 0x8 SHR AND PUSH2 0x15B1 JUMPI DUP16 DUP16 PUSH2 0x153F SWAP2 PUSH2 0x4949 JUMP JUMPDEST MLOAD PUSH1 0x0 MSTORE PUSH1 0x3 PUSH1 0x20 MSTORE CALLER PUSH1 0x1 DUP1 PUSH1 0xA0 SHL SUB PUSH1 0x5 PUSH1 0x40 PUSH1 0x0 KECCAK256 ADD SLOAD AND SUB PUSH2 0x156C JUMPI DUP16 SWAP15 PUSH1 0x1 ADD SWAP15 DUP16 SWAP1 PUSH2 0x14CE JUMP JUMPDEST PUSH1 0x40 MLOAD PUSH3 0x461BCD PUSH1 0xE5 SHL DUP2 MSTORE PUSH1 0x20 PUSH1 0x4 DUP3 ADD MSTORE PUSH1 0x1C PUSH1 0x24 DUP3 ADD MSTORE PUSH32 0x43616E206F6E6C7920757365206F776E20696E6772656469656E747300000000 PUSH1 0x44 DUP3 ADD MSTORE PUSH1 0x64 SWAP1 REVERT JUMPDEST PUSH1 0x40 MLOAD PUSH3 0x461BCD PUSH1 0xE5 SHL DUP2 MSTORE PUSH1 0x20 PUSH1 0x4 DUP3 ADD MSTORE PUSH1 0x22 PUSH1 0x24 DUP3 ADD MSTORE PUSH32 0x43616E6E6F742075736520636F6E74616D696E6174656420696E677265646965 PUSH1 0x44 DUP3 ADD MSTORE PUSH2 0x1B9D PUSH1 0xF2 SHL PUSH1 0x64 DUP3 ADD MSTORE PUSH1 0x84 SWAP1 REVERT JUMPDEST PUSH1 0x40 MLOAD PUSH3 0x461BCD PUSH1 0xE5 SHL DUP2 MSTORE PUSH1 0x20 PUSH1 0x4 DUP3 ADD MSTORE PUSH1 0x1E PUSH1 0x24 DUP3 ADD MSTORE PUSH32 0x43616E6E6F742075736520726563616C6C656420696E6772656469656E740000 PUSH1 0x44 DUP3 ADD MSTORE PUSH1 0x64 SWAP1 REVERT JUMPDEST PUSH1 0x40 MLOAD PUSH3 0x461BCD PUSH1 0xE5 SHL DUP2 MSTORE PUSH1 0x20 PUSH1 0x4 DUP3 ADD MSTORE PUSH1 0x15 PUSH1 0x24 DUP3 ADD MSTORE PUSH21 0x125B9D985B1A59081A5B99DC99591A595B9D081251 PUSH1 0x5A SHL PUSH1 0x44 DUP3 ADD MSTORE PUSH1 0x64 SWAP1 REVERT JUMPDEST DUP16 SWAP12 SWAP13 SWAP14 POP PUSH2 0x1694 DUP14 DUP11 SGT ISZERO PUSH2 0x4A26 JUMP JUMPDEST PUSH2 0x16A0 DUP3 DUP3 GT ISZERO PUSH2 0x4A72 JUMP JUMPDEST DUP4 DUP4 GT PUSH2 0x1FBA JUMPI PUSH2 0x16B0 DUP9 PUSH2 0x47CE JUMP JUMPDEST PUSH1 0x2 DUP9 EQ PUSH2 0x1F38 JUMPI JUMPDEST PUSH2 0x16C4 PUSH1 0xC SLOAD PUSH2 0x488F JUMP JUMPDEST SWAP13 DUP14 PUSH1 0xC SSTORE PUSH1 0x40 MLOAD SWAP10 PUSH2 0x16D6 DUP12 PUSH2 0x44E6 JUMP JUMPDEST DUP11 MSTORE PUSH1 0x20 DUP11 ADD MSTORE PUSH1 0x40 DUP10 ADD MSTORE PUSH1 0x60 DUP9 ADD MSTORE PUSH1 0x80 DUP8 ADD MSTORE PUSH1 0xA0 DUP7 ADD MSTORE PUSH1 0xC0 DUP6 ADD MSTORE PUSH1 0xE0 DUP5 ADD MSTORE PUSH1 0x1 PUSH2 0x100 DUP5 ADD MSTORE PUSH1 0x40 MLOAD SWAP4 PUSH2 0x1710 DUP6 PUSH2 0x44B0 JUMP JUMPDEST PUSH1 0x0 DUP6 MSTORE PUSH1 0x0 PUSH1 0x20 DUP7 ADD MSTORE PUSH1 0x0 PUSH1 0x40 DUP7 ADD MSTORE PUSH1 0x0 PUSH1 0x60 DUP7 ADD MSTORE PUSH1 0x0 PUSH1 0x80 DUP7 ADD MSTORE PUSH1 0x0 PUSH1 0xA0 DUP7 ADD MSTORE PUSH1 0x40 MLOAD SWAP6 PUSH2 0x200 DUP8 ADD DUP8 DUP2 LT PUSH1 0x1 PUSH1 0x1 PUSH1 0x40 SHL SUB DUP3 GT OR PUSH2 0x69D JUMPI PUSH1 0x40 MSTORE DUP9 DUP8 MSTORE PUSH1 0x20 DUP8 ADD MSTORE PUSH1 0x40 DUP7 ADD MSTORE PUSH1 0x60 DUP6 ADD MSTORE PUSH2 0x1770 DUP2 PUSH2 0x47CE JUMP JUMPDEST PUSH1 0x80 DUP5 ADD MSTORE PUSH1 0x0 PUSH1 0xA0 DUP5 ADD MSTORE CALLER PUSH1 0xC0 DUP5 ADD MSTORE DUP4 PUSH1 0xE0 DUP5 ADD MSTORE TIMESTAMP PUSH2 0x100 DUP5 ADD MSTORE PUSH1 0x0 PUSH2 0x120 DUP5 ADD MSTORE PUSH1 0x1 PUSH2 0x140 DUP5 ADD MSTORE PUSH1 0x0 PUSH2 0x160 DUP5 ADD MSTORE PUSH1 0x20 SWAP6 PUSH1 0x40 MLOAD PUSH2 0x17B7 DUP9 DUP3 PUSH2 0x451D JUMP JUMPDEST PUSH1 0x0 DUP2 MSTORE PUSH2 0x180 DUP6 ADD MSTORE PUSH2 0x1A0 DUP5 ADD MSTORE PUSH2 0x1C0 DUP4 ADD MSTORE PUSH2 0x1E0 DUP3 ADD MSTORE DUP3 PUSH1 0x0 MSTORE PUSH1 0x4 DUP5 MSTORE PUSH1 0x40 PUSH1 0x0 KECCAK256 SWAP1 DUP1 MLOAD DUP3 SSTORE PUSH1 0x20 DUP2 ADD MLOAD DUP1 MLOAD SWAP1 PUSH1 0x1 PUSH1 0x1 PUSH1 0x40 SHL SUB DUP3 GT PUSH2 0x69D JUMPI DUP2 SWAP1 PUSH2 0x180A PUSH1 0x1 DUP7 ADD SLOAD PUSH2 0x45C6 JUMP JUMPDEST PUSH1 0x1F DUP2 GT PUSH2 0x1F05 JUMPI JUMPDEST POP DUP8 SWAP1 PUSH1 0x1F DUP4 GT PUSH1 0x1 EQ PUSH2 0x1E94 JUMPI PUSH1 0x0 SWAP3 PUSH2 0x1E89 JUMPI JUMPDEST POP POP DUP2 PUSH1 0x1 SHL SWAP2 PUSH1 0x0 NOT SWAP1 PUSH1 0x3 SHL SHR NOT AND OR PUSH1 0x1 DUP4 ADD SSTORE JUMPDEST PUSH1 0x40 DUP2 ADD MLOAD DUP1 MLOAD SWAP1 PUSH1 0x1 PUSH1 0x1 PUSH1 0x40 SHL SUB DUP3 GT PUSH2 0x69D JUMPI DUP2 SWAP1 PUSH2 0x1866 PUSH1 0x2 DUP7 ADD SLOAD PUSH2 0x45C6 JUMP JUMPDEST PUSH1 0x1F DUP2 GT PUSH2 0x1E56 JUMPI JUMPDEST POP DUP8 SWAP1 PUSH1 0x1F DUP4 GT PUSH1 0x1 EQ PUSH2 0x1DE5 JUMPI PUSH1 0x0 SWAP3 PUSH2 0x1DDA JUMPI JUMPDEST POP POP DUP2 PUSH1 0x1 SHL SWAP2 PUSH1 0x0 NOT SWAP1 PUSH1 0x3 SHL SHR NOT AND OR PUSH1 0x2 DUP4 ADD SSTORE JUMPDEST PUSH1 0x3 DUP3 ADD PUSH1 0x60 DUP3 ADD MLOAD DUP1 MLOAD SWAP1 PUSH1 0x1 PUSH1 0x1 PUSH1 0x40 SHL SUB DUP3 GT PUSH2 0x69D JUMPI DUP2 SWAP1 PUSH2 0x18C3 DUP5 SLOAD PUSH2 0x45C6 JUMP JUMPDEST PUSH1 0x1F DUP2 GT PUSH2 0x1DAA JUMPI JUMPDEST POP DUP9 SWAP1 PUSH1 0x1F DUP4 GT PUSH1 0x1 EQ PUSH2 0x1D45 JUMPI PUSH1 0x0 SWAP3 PUSH2 0x1D3A JUMPI JUMPDEST POP POP DUP2 PUSH1 0x1 SHL SWAP2 PUSH1 0x0 NOT SWAP1 PUSH1 0x3 SHL SHR NOT AND OR SWAP1 SSTORE JUMPDEST PUSH1 0x4 DUP3 ADD PUSH1 0x80 DUP3 ADD MLOAD PUSH2 0x1909 DUP2 PUSH2 0x47CE JUMP JUMPDEST PUSH2 0x1912 DUP2 PUSH2 0x47CE JUMP JUMPDEST PUSH1 0xFF DUP1 NOT DUP4 SLOAD AND SWAP2 AND OR DUP2 SSTORE PUSH1 0xA0 DUP3 ADD MLOAD PUSH2 0x192C DUP2 PUSH2 0x47CE JUMP JUMPDEST PUSH2 0x1935 DUP2 PUSH2 0x47CE JUMP JUMPDEST DUP2 SLOAD PUSH1 0xC0 DUP5 ADD MLOAD PUSH2 0x100 PUSH1 0x1 PUSH1 0xB0 SHL SUB NOT SWAP1 SWAP2 AND PUSH1 0x8 SWAP3 SWAP1 SWAP3 SHL PUSH2 0xFF00 AND SWAP2 SWAP1 SWAP2 OR PUSH1 0x10 SWAP2 SWAP1 SWAP2 SHL PUSH3 0x10000 PUSH1 0x1 PUSH1 0xB0 SHL SUB AND OR SWAP1 SSTORE PUSH1 0xE0 DUP2 ADD MLOAD DUP1 MLOAD SWAP1 PUSH1 0x5 DUP5 ADD SWAP1 PUSH1 0x1 PUSH1 0x1 PUSH1 0x40 SHL SUB DUP4 GT PUSH2 0x69D JUMPI PUSH1 0x1 PUSH1 0x40 SHL DUP4 GT PUSH2 0x69D JUMPI DUP8 SWAP1 DUP3 SLOAD DUP5 DUP5 SSTORE DUP1 DUP6 LT PUSH2 0x1D1D JUMPI JUMPDEST POP ADD SWAP1 PUSH1 0x0 MSTORE DUP7 PUSH1 0x0 KECCAK256 PUSH1 0x0 JUMPDEST DUP4 DUP2 LT PUSH2 0x1D0B JUMPI POP POP POP POP PUSH2 0x100 DUP2 ADD MLOAD PUSH1 0x6 DUP4 ADD SSTORE PUSH2 0x120 DUP2 ADD MLOAD PUSH1 0x7 DUP4 ADD SSTORE PUSH1 0x8 DUP3 ADD PUSH2 0x19EF PUSH2 0x140 DUP4 ADD MLOAD ISZERO ISZERO DUP3 SWAP1 PUSH1 0xFF DUP1 NOT DUP4 SLOAD AND SWAP2 ISZERO ISZERO AND OR SWAP1 SSTORE JUMP JUMPDEST PUSH2 0x160 DUP3 ADD MLOAD DUP2 SLOAD PUSH2 0xFF00 NOT AND SWAP1 ISZERO ISZERO PUSH1 0x8 SHL PUSH2 0xFF00 AND OR SWAP1 SSTORE PUSH2 0x180 DUP2 ADD MLOAD DUP1 MLOAD PUSH1 0x9 DUP5 ADD SWAP2 PUSH1 0x1 PUSH1 0x1 PUSH1 0x40 SHL SUB DUP3 GT PUSH2 0x69D JUMPI DUP2 SWAP1 PUSH2 0x1A30 DUP5 SLOAD PUSH2 0x45C6 JUMP JUMPDEST PUSH1 0x1F DUP2 GT PUSH2 0x1CDB JUMPI JUMPDEST POP DUP9 SWAP1 PUSH1 0x1F DUP4 GT PUSH1 0x1 EQ PUSH2 0x1C76 JUMPI PUSH1 0x0 SWAP3 PUSH2 0x1C6B JUMPI JUMPDEST POP POP DUP2 PUSH1 0x1 SHL SWAP2 PUSH1 0x0 NOT SWAP1 PUSH1 0x3 SHL SHR NOT AND OR SWAP1 SSTORE JUMPDEST PUSH1 0xA DUP3 ADD PUSH2 0x1A0 DUP3 ADD MLOAD DUP1 MLOAD SWAP1 PUSH1 0x1 PUSH1 0x1 PUSH1 0x40 SHL SUB DUP3 GT PUSH2 0x69D JUMPI PUSH2 0x1A89 DUP4 SLOAD PUSH2 0x45C6 JUMP JUMPDEST PUSH1 0x1F DUP2 GT PUSH2 0x1C3B JUMPI JUMPDEST POP DUP8 SWAP1 PUSH1 0x1F DUP4 GT PUSH1 0x1 EQ PUSH2 0x1BC7 JUMPI SWAP4 PUSH1 0x19 SWAP4 DUP4 PUSH1 0xA0 SWAP5 PUSH2 0x1E0 SWAP5 PUSH2 0x1B85 SWAP10 SWAP9 PUSH1 0x0 SWAP3 PUSH2 0x1BBC JUMPI JUMPDEST POP POP DUP2 PUSH1 0x1 SHL SWAP2 PUSH1 0x0 NOT SWAP1 PUSH1 0x3 SHL SHR NOT AND OR SWAP1 SSTORE JUMPDEST PUSH2 0x1B3E PUSH2 0x100 PUSH2 0x1C0 DUP4 ADD MLOAD DUP1 MLOAD PUSH1 0xB DUP10 ADD SSTORE DUP12 DUP2 ADD MLOAD PUSH1 0xC DUP10 ADD SSTORE PUSH1 0x40 DUP2 ADD MLOAD PUSH1 0xD DUP10 ADD SSTORE PUSH1 0x60 DUP2 ADD MLOAD PUSH1 0xE DUP10 ADD SSTORE PUSH1 0x80 DUP2 ADD MLOAD PUSH1 0xF DUP10 ADD SSTORE DUP6 DUP2 ADD MLOAD PUSH1 0x10 DUP10 ADD SSTORE PUSH1 0xC0 DUP2 ADD MLOAD PUSH1 0x11 DUP10 ADD SSTORE PUSH1 0xE0 DUP2 ADD MLOAD PUSH1 0x12 DUP10 ADD SSTORE ADD MLOAD ISZERO ISZERO PUSH1 0x13 DUP8 ADD SWAP1 PUSH1 0xFF DUP1 NOT DUP4 SLOAD AND SWAP2 ISZERO ISZERO AND OR SWAP1 SSTORE JUMP JUMPDEST ADD MLOAD DUP1 MLOAD PUSH1 0x14 DUP6 ADD SSTORE DUP8 DUP2 ADD MLOAD PUSH1 0x15 DUP6 ADD SSTORE PUSH1 0x40 DUP2 ADD MLOAD PUSH1 0x16 DUP6 ADD SSTORE PUSH1 0x60 DUP2 ADD MLOAD PUSH1 0x17 DUP6 ADD SSTORE PUSH1 0x80 DUP2 ADD MLOAD PUSH1 0x18 DUP6 ADD SSTORE ADD MLOAD ISZERO ISZERO SWAP2 ADD SWAP1 PUSH1 0xFF DUP1 NOT DUP4 SLOAD AND SWAP2 ISZERO ISZERO AND OR SWAP1 SSTORE JUMP JUMPDEST DUP2 PUSH32 0x3FECC7F83EC2CCA2FD6A1539B9D29AAD3247929594EBE0DA696AFA1D4025CDE7 PUSH1 0x40 MLOAD DUP6 DUP2 MSTORE DUP1 PUSH2 0xFA6 CALLER SWAP6 DUP9 DUP4 ADD SWAP1 PUSH2 0x4768 JUMP JUMPDEST ADD MLOAD SWAP1 POP DUP13 DUP1 PUSH2 0x1AB9 JUMP JUMPDEST SWAP1 PUSH1 0x1F NOT DUP4 AND SWAP2 DUP5 PUSH1 0x0 MSTORE DUP10 PUSH1 0x0 KECCAK256 SWAP3 PUSH1 0x0 JUMPDEST DUP12 DUP3 DUP3 LT PUSH2 0x1C25 JUMPI POP POP DUP5 PUSH2 0x1E0 SWAP5 PUSH2 0x1B85 SWAP10 SWAP9 SWAP5 PUSH1 0x19 SWAP9 SWAP5 PUSH1 0xA0 SWAP9 PUSH1 0x1 SWAP6 LT PUSH2 0x1C0C JUMPI JUMPDEST POP POP POP DUP2 SHL ADD SWAP1 SSTORE PUSH2 0x1ACE JUMP JUMPDEST ADD MLOAD PUSH1 0x0 NOT PUSH1 0xF8 DUP5 PUSH1 0x3 SHL AND SHR NOT AND SWAP1 SSTORE DUP13 DUP1 DUP1 PUSH2 0x1BFF JUMP JUMPDEST PUSH1 0x1 DUP6 SWAP7 DUP3 SWAP4 SWAP7 DUP7 ADD MLOAD DUP2 SSTORE ADD SWAP6 ADD SWAP4 ADD PUSH2 0x1BDA JUMP JUMPDEST PUSH2 0x1C65 SWAP1 DUP5 PUSH1 0x0 MSTORE DUP10 PUSH1 0x0 KECCAK256 PUSH1 0x1F DUP6 ADD PUSH1 0x5 SHR DUP2 ADD SWAP2 DUP12 DUP7 LT PUSH2 0x693 JUMPI PUSH1 0x1F ADD PUSH1 0x5 SHR ADD SWAP1 PUSH2 0x48B4 JUMP JUMPDEST DUP9 PUSH2 0x1A92 JUMP JUMPDEST ADD MLOAD SWAP1 POP DUP9 DUP1 PUSH2 0x1A4F JUMP JUMPDEST PUSH1 0x0 DUP6 DUP2 MSTORE DUP11 DUP2 KECCAK256 SWAP4 POP PUSH1 0x1F NOT DUP6 AND SWAP1 JUMPDEST DUP12 DUP3 DUP3 LT PUSH2 0x1CC5 JUMPI POP POP SWAP1 DUP5 PUSH1 0x1 SWAP6 SWAP5 SWAP4 SWAP3 LT PUSH2 0x1CAC JUMPI JUMPDEST POP POP POP DUP2 SHL ADD SWAP1 SSTORE PUSH2 0x1A64 JUMP JUMPDEST ADD MLOAD PUSH1 0x0 NOT PUSH1 0xF8 DUP5 PUSH1 0x3 SHL AND SHR NOT AND SWAP1 SSTORE DUP9 DUP1 DUP1 PUSH2 0x1C9F JUMP JUMPDEST PUSH1 0x1 DUP6 SWAP7 DUP3 SWAP4 SWAP7 DUP7 ADD MLOAD DUP2 SSTORE ADD SWAP6 ADD SWAP4 ADD PUSH2 0x1C87 JUMP JUMPDEST PUSH2 0x1D05 SWAP1 DUP6 PUSH1 0x0 MSTORE DUP11 PUSH1 0x0 KECCAK256 PUSH1 0x1F DUP6 ADD PUSH1 0x5 SHR DUP2 ADD SWAP2 DUP13 DUP7 LT PUSH2 0x693 JUMPI PUSH1 0x1F ADD PUSH1 0x5 SHR ADD SWAP1 PUSH2 0x48B4 JUMP JUMPDEST DUP10 PUSH2 0x1A39 JUMP JUMPDEST DUP3 MLOAD DUP3 DUP3 ADD SSTORE SWAP2 DUP9 ADD SWAP2 PUSH1 0x1 ADD PUSH2 0x19AD JUMP JUMPDEST PUSH2 0x1D34 SWAP1 DUP5 PUSH1 0x0 MSTORE DUP6 DUP5 PUSH1 0x0 KECCAK256 SWAP2 DUP3 ADD SWAP2 ADD PUSH2 0x48B4 JUMP JUMPDEST DUP10 PUSH2 0x19A0 JUMP JUMPDEST ADD MLOAD SWAP1 POP DUP9 DUP1 PUSH2 0x18E2 JUMP JUMPDEST PUSH1 0x0 DUP6 DUP2 MSTORE DUP11 DUP2 KECCAK256 SWAP4 POP PUSH1 0x1F NOT DUP6 AND SWAP1 JUMPDEST DUP12 DUP3 DUP3 LT PUSH2 0x1D94 JUMPI POP POP SWAP1 DUP5 PUSH1 0x1 SWAP6 SWAP5 SWAP4 SWAP3 LT PUSH2 0x1D7B JUMPI JUMPDEST POP POP POP DUP2 SHL ADD SWAP1 SSTORE PUSH2 0x18F7 JUMP JUMPDEST ADD MLOAD PUSH1 0x0 NOT PUSH1 0xF8 DUP5 PUSH1 0x3 SHL AND SHR NOT AND SWAP1 SSTORE DUP9 DUP1 DUP1 PUSH2 0x1D6E JUMP JUMPDEST PUSH1 0x1 DUP6 SWAP7 DUP3 SWAP4 SWAP7 DUP7 ADD MLOAD DUP2 SSTORE ADD SWAP6 ADD SWAP4 ADD PUSH2 0x1D56 JUMP JUMPDEST PUSH2 0x1DD4 SWAP1 DUP6 PUSH1 0x0 MSTORE DUP11 PUSH1 0x0 KECCAK256 PUSH1 0x1F DUP6 ADD PUSH1 0x5 SHR DUP2 ADD SWAP2 DUP13 DUP7 LT PUSH2 0x693 JUMPI PUSH1 0x1F ADD PUSH1 0x5 SHR ADD SWAP1 PUSH2 0x48B4 JUMP JUMPDEST DUP10 PUSH2 0x18CC JUMP JUMPDEST ADD MLOAD SWAP1 POP DUP8 DUP1 PUSH2 0x1885 JUMP JUMPDEST SWAP3 POP PUSH1 0x2 DUP6 ADD PUSH1 0x0 MSTORE DUP8 PUSH1 0x0 KECCAK256 SWAP1 PUSH1 0x0 SWAP4 JUMPDEST DUP10 PUSH1 0x1F NOT DUP6 AND DUP7 LT PUSH2 0x1E3D JUMPI POP PUSH1 0x1 SWAP5 POP DUP4 PUSH1 0x1F NOT DUP2 AND LT PUSH2 0x1E24 JUMPI JUMPDEST POP POP POP DUP2 SHL ADD PUSH1 0x2 DUP4 ADD SSTORE PUSH2 0x189D JUMP JUMPDEST ADD MLOAD PUSH1 0x0 NOT PUSH1 0xF8 DUP5 PUSH1 0x3 SHL AND SHR NOT AND SWAP1 SSTORE DUP8 DUP1 DUP1 PUSH2 0x1E14 JUMP JUMPDEST DUP3 DUP3 ADD MLOAD DUP5 SSTORE SWAP5 DUP6 ADD SWAP5 PUSH1 0x1 SWAP1 SWAP4 ADD SWAP3 SWAP1 SWAP2 ADD SWAP1 PUSH2 0x1DF7 JUMP JUMPDEST PUSH2 0x1E83 SWAP1 PUSH1 0x2 DUP8 ADD PUSH1 0x0 MSTORE DUP10 PUSH1 0x0 KECCAK256 PUSH1 0x1F DUP6 ADD PUSH1 0x5 SHR DUP2 ADD SWAP2 DUP12 DUP7 LT PUSH2 0x693 JUMPI PUSH1 0x1F ADD PUSH1 0x5 SHR ADD SWAP1 PUSH2 0x48B4 JUMP JUMPDEST DUP9 PUSH2 0x186F JUMP JUMPDEST ADD MLOAD SWAP1 POP DUP8 DUP1 PUSH2 0x1829 JUMP JUMPDEST SWAP3 POP PUSH1 0x1 DUP6 ADD PUSH1 0x0 MSTORE DUP8 PUSH1 0x0 KECCAK256 SWAP1 PUSH1 0x0 SWAP4 JUMPDEST DUP10 PUSH1 0x1F NOT DUP6 AND DUP7 LT PUSH2 0x1EEC JUMPI POP PUSH1 0x1 SWAP5 POP DUP4 PUSH1 0x1F NOT DUP2 AND LT PUSH2 0x1ED3 JUMPI JUMPDEST POP POP POP DUP2 SHL ADD PUSH1 0x1 DUP4 ADD SSTORE PUSH2 0x1841 JUMP JUMPDEST ADD MLOAD PUSH1 0x0 NOT PUSH1 0xF8 DUP5 PUSH1 0x3 SHL AND SHR NOT AND SWAP1 SSTORE DUP8 DUP1 DUP1 PUSH2 0x1EC3 JUMP JUMPDEST DUP3 DUP3 ADD MLOAD DUP5 SSTORE SWAP5 DUP6 ADD SWAP5 PUSH1 0x1 SWAP1 SWAP4 ADD SWAP3 SWAP1 SWAP2 ADD SWAP1 PUSH2 0x1EA6 JUMP JUMPDEST PUSH2 0x1F32 SWAP1 PUSH1 0x1 DUP8 ADD PUSH1 0x0 MSTORE DUP10 PUSH1 0x0 KECCAK256 PUSH1 0x1F DUP6 ADD PUSH1 0x5 SHR DUP2 ADD SWAP2 DUP12 DUP7 LT PUSH2 0x693 JUMPI PUSH1 0x1F ADD PUSH1 0x5 SHR ADD SWAP1 PUSH2 0x48B4 JUMP JUMPDEST DUP9 PUSH2 0x1813 JUMP JUMPDEST DUP6 DUP6 GT PUSH2 0x1F82 JUMPI PUSH2 0x578 DUP7 GT ISZERO PUSH2 0x16B9 JUMPI PUSH1 0x40 MLOAD PUSH3 0x461BCD PUSH1 0xE5 SHL DUP2 MSTORE PUSH1 0x20 PUSH1 0x4 DUP3 ADD MSTORE PUSH1 0x11 PUSH1 0x24 DUP3 ADD MSTORE PUSH17 0xE09040ECC2D8EACA40E8DEDE40D0D2CED PUSH1 0x7B SHL PUSH1 0x44 DUP3 ADD MSTORE PUSH1 0x64 SWAP1 REVERT JUMPDEST PUSH1 0x40 MLOAD PUSH3 0x461BCD PUSH1 0xE5 SHL DUP2 MSTORE PUSH1 0x20 PUSH1 0x4 DUP3 ADD MSTORE PUSH1 0x10 PUSH1 0x24 DUP3 ADD MSTORE PUSH16 0x496E76616C69642070482072616E6765 PUSH1 0x80 SHL PUSH1 0x44 DUP3 ADD MSTORE PUSH1 0x64 SWAP1 REVERT JUMPDEST PUSH1 0x40 MLOAD PUSH3 0x461BCD PUSH1 0xE5 SHL DUP2 MSTORE PUSH1 0x20 PUSH1 0x4 DUP3 ADD MSTORE PUSH1 0x14 PUSH1 0x24 DUP3 ADD MSTORE PUSH20 0x496E76616C6964207765696768742072616E6765 PUSH1 0x60 SHL PUSH1 0x44 DUP3 ADD MSTORE PUSH1 0x64 SWAP1 REVERT JUMPDEST PUSH1 0x40 MLOAD PUSH3 0x461BCD PUSH1 0xE5 SHL DUP2 MSTORE PUSH1 0x20 PUSH1 0x4 DUP3 ADD MSTORE PUSH1 0x29 PUSH1 0x24 DUP3 ADD MSTORE PUSH32 0x50726F64756374206D7573742068617665206174206C65617374206F6E652069 PUSH1 0x44 DUP3 ADD MSTORE PUSH9 0x1B99DC99591A595B9D PUSH1 0xBA SHL PUSH1 0x64 DUP3 ADD MSTORE PUSH1 0x84 SWAP1 REVERT JUMPDEST DUP2 CALLDATALOAD DUP2 MSTORE PUSH1 0x20 SWAP2 DUP3 ADD SWAP2 ADD PUSH2 0x1454 JUMP JUMPDEST CALLVALUE PUSH2 0x2D5 JUMPI PUSH1 0x20 CALLDATASIZE PUSH1 0x3 NOT ADD SLT PUSH2 0x2D5 JUMPI PUSH1 0x4 CALLDATALOAD DUP1 ISZERO ISZERO DUP1 PUSH2 0x23A8 JUMPI JUMPDEST PUSH2 0x2083 SWAP1 PUSH2 0x484A JUMP JUMPDEST PUSH1 0x0 DUP2 DUP2 MSTORE PUSH1 0x4 PUSH1 0x20 DUP2 SWAP1 MSTORE PUSH1 0x40 SWAP1 SWAP2 KECCAK256 ADD SLOAD PUSH1 0x10 SHR PUSH1 0x1 PUSH1 0x1 PUSH1 0xA0 SHL SUB AND CALLER SUB PUSH2 0x2357 JUMPI PUSH1 0x0 MSTORE PUSH1 0x8 PUSH1 0x20 MSTORE PUSH1 0x40 PUSH1 0x0 KECCAK256 DUP1 SLOAD PUSH2 0x20C0 DUP2 PUSH2 0x47D8 JUMP JUMPDEST SWAP2 PUSH2 0x20CE PUSH1 0x40 MLOAD SWAP4 DUP5 PUSH2 0x451D JUMP JUMPDEST DUP2 DUP4 MSTORE PUSH1 0x20 DUP4 ADD SWAP1 PUSH1 0x0 MSTORE PUSH1 0x20 PUSH1 0x0 KECCAK256 PUSH1 0x0 SWAP2 JUMPDEST DUP4 DUP4 LT PUSH2 0x22F9 JUMPI DUP5 PUSH1 0x0 DUP1 JUMPDEST DUP3 MLOAD DUP2 LT ISZERO PUSH2 0x2127 JUMPI PUSH1 0x80 PUSH2 0x2103 DUP3 DUP6 PUSH2 0x4949 JUMP JUMPDEST MLOAD ADD MLOAD PUSH2 0x2113 JUMPI JUMPDEST PUSH1 0x1 ADD PUSH2 0x20EE JUMP JUMPDEST SWAP1 PUSH2 0x211F PUSH1 0x1 SWAP2 PUSH2 0x488F JUMP JUMPDEST SWAP2 SWAP1 POP PUSH2 0x210B JUMP JUMPDEST POP PUSH2 0x2131 DUP2 PUSH2 0x47D8 JUMP JUMPDEST PUSH2 0x213E PUSH1 0x40 MLOAD SWAP2 DUP3 PUSH2 0x451D JUMP JUMPDEST DUP2 DUP2 MSTORE PUSH2 0x214A DUP3 PUSH2 0x47D8 JUMP JUMPDEST PUSH1 0x20 DUP3 ADD SWAP3 SWAP1 PUSH1 0x1F NOT ADD CALLDATASIZE DUP5 CALLDATACOPY PUSH2 0x2160 DUP2 PUSH2 0x47D8 JUMP JUMPDEST SWAP1 PUSH2 0x216E PUSH1 0x40 MLOAD SWAP3 DUP4 PUSH2 0x451D JUMP JUMPDEST DUP1 DUP3 MSTORE PUSH1 0x1F NOT PUSH2 0x217D DUP3 PUSH2 0x47D8 JUMP JUMPDEST ADD PUSH1 0x0 JUMPDEST DUP2 DUP2 LT PUSH2 0x22E8 JUMPI POP POP PUSH2 0x2193 SWAP1 PUSH2 0x4917 JUMP JUMPDEST PUSH1 0x0 SWAP2 DUP3 JUMPDEST DUP7 MLOAD DUP2 LT ISZERO PUSH2 0x222B JUMPI PUSH1 0x80 PUSH2 0x21AD DUP3 DUP10 PUSH2 0x4949 JUMP JUMPDEST MLOAD ADD MLOAD PUSH2 0x21BD JUMPI JUMPDEST PUSH1 0x1 ADD PUSH2 0x2198 JUMP JUMPDEST SWAP3 PUSH1 0x1 SWAP1 PUSH2 0x2223 SWAP1 PUSH1 0x1 PUSH1 0x1 PUSH1 0xA0 SHL SUB PUSH2 0x21D7 DUP8 DUP12 PUSH2 0x4949 JUMP JUMPDEST MLOAD MLOAD AND PUSH2 0x21E4 DUP3 DUP10 PUSH2 0x4949 JUMP JUMPDEST MSTORE PUSH1 0x40 PUSH2 0x21F1 DUP8 DUP12 PUSH2 0x4949 JUMP JUMPDEST MLOAD ADD MLOAD PUSH2 0x21FE DUP3 DUP7 PUSH2 0x4949 JUMP JUMPDEST MSTORE PUSH2 0x2209 DUP2 DUP6 PUSH2 0x4949 JUMP JUMPDEST POP PUSH1 0x60 PUSH2 0x2216 DUP8 DUP12 PUSH2 0x4949 JUMP JUMPDEST MLOAD ADD MLOAD PUSH2 0x2C7 DUP3 DUP8 PUSH2 0x4949 JUMP JUMPDEST SWAP4 SWAP1 POP PUSH2 0x21B5 JUMP JUMPDEST POP PUSH1 0x40 MLOAD PUSH1 0x60 DUP1 DUP3 MSTORE SWAP5 MLOAD SWAP5 DUP2 ADD DUP6 SWAP1 MSTORE SWAP4 PUSH1 0x80 DUP6 ADD SWAP4 POP DUP5 SWAP3 SWAP1 DUP7 SWAP1 PUSH1 0x0 JUMPDEST DUP2 DUP2 LT PUSH2 0x22C6 JUMPI POP POP POP DUP3 DUP5 SUB PUSH1 0x20 DUP5 ADD MSTORE DUP2 MLOAD DUP1 DUP6 MSTORE PUSH1 0x20 DUP6 ADD SWAP5 PUSH1 0x20 DUP1 DUP4 PUSH1 0x5 SHL DUP4 ADD ADD SWAP5 ADD SWAP6 PUSH1 0x0 SWAP2 JUMPDEST DUP4 DUP4 LT PUSH2 0x2293 JUMPI DUP7 DUP1 PUSH2 0x260 DUP9 DUP9 DUP4 DUP3 SUB PUSH1 0x40 DUP6 ADD MSTORE PUSH2 0x4768 JUMP JUMPDEST SWAP2 SWAP4 SWAP6 POP SWAP2 SWAP4 PUSH1 0x20 DUP1 PUSH2 0x22B2 PUSH1 0x1 SWAP4 PUSH1 0x1F NOT DUP7 DUP3 SUB ADD DUP8 MSTORE DUP11 MLOAD PUSH2 0x46A4 JUMP JUMPDEST SWAP9 ADD SWAP4 ADD SWAP4 ADD SWAP1 SWAP3 DUP8 SWAP6 SWAP4 SWAP7 SWAP5 SWAP3 SWAP7 PUSH2 0x2278 JUMP JUMPDEST DUP3 MLOAD PUSH1 0x1 PUSH1 0x1 PUSH1 0xA0 SHL SUB AND DUP8 MSTORE PUSH1 0x20 SWAP7 DUP8 ADD SWAP7 DUP9 SWAP7 POP SWAP1 SWAP3 ADD SWAP2 PUSH1 0x1 ADD PUSH2 0x224B JUMP JUMPDEST DUP1 PUSH1 0x60 PUSH1 0x20 DUP1 SWAP4 DUP8 ADD ADD MSTORE ADD PUSH2 0x2181 JUMP JUMPDEST PUSH1 0x5 PUSH1 0x20 PUSH1 0x1 SWAP3 PUSH1 0x40 MLOAD PUSH2 0x230C DUP2 PUSH2 0x4502 JUMP JUMPDEST DUP5 DUP1 PUSH1 0xA0 SHL SUB DUP7 SLOAD AND DUP2 MSTORE DUP5 DUP7 ADD SLOAD DUP4 DUP3 ADD MSTORE PUSH2 0x232B PUSH1 0x2 DUP8 ADD PUSH2 0x4600 JUMP JUMPDEST PUSH1 0x40 DUP3 ADD MSTORE PUSH1 0x3 DUP7 ADD SLOAD PUSH1 0x60 DUP3 ADD MSTORE PUSH1 0xFF PUSH1 0x4 DUP8 ADD SLOAD AND ISZERO ISZERO PUSH1 0x80 DUP3 ADD MSTORE DUP2 MSTORE ADD SWAP3 ADD SWAP3 ADD SWAP2 SWAP1 PUSH2 0x20E2 JUMP JUMPDEST PUSH1 0x40 MLOAD PUSH3 0x461BCD PUSH1 0xE5 SHL DUP2 MSTORE PUSH1 0x20 PUSH1 0x4 DUP3 ADD MSTORE PUSH1 0x23 PUSH1 0x24 DUP3 ADD MSTORE PUSH32 0x43616E206F6E6C792076696577206F776E2070726F6475637420636F6E73756D PUSH1 0x44 DUP3 ADD MSTORE PUSH3 0x657273 PUSH1 0xE8 SHL PUSH1 0x64 DUP3 ADD MSTORE PUSH1 0x84 SWAP1 REVERT JUMPDEST POP PUSH1 0xC SLOAD DUP2 GT ISZERO PUSH2 0x207A JUMP JUMPDEST CALLVALUE PUSH2 0x2D5 JUMPI PUSH1 0x20 CALLDATASIZE PUSH1 0x3 NOT ADD SLT PUSH2 0x2D5 JUMPI PUSH1 0x4 CALLDATALOAD PUSH1 0x0 MSTORE PUSH1 0x4 PUSH1 0x20 MSTORE PUSH1 0x40 PUSH1 0x0 KECCAK256 DUP1 SLOAD PUSH1 0x1 DUP3 ADD PUSH2 0x23E4 SWAP1 PUSH2 0x4600 JUMP JUMPDEST SWAP2 PUSH2 0x23F1 PUSH1 0x2 DUP3 ADD PUSH2 0x4600 JUMP JUMPDEST SWAP1 PUSH2 0x23FE PUSH1 0x3 DUP3 ADD PUSH2 0x4600 JUMP JUMPDEST PUSH1 0x4 DUP3 ADD SLOAD PUSH1 0x6 DUP4 ADD SLOAD SWAP1 PUSH1 0x7 DUP5 ADD SLOAD PUSH1 0x8 DUP6 ADD SLOAD SWAP1 PUSH1 0x9 DUP7 ADD PUSH2 0x2421 SWAP1 PUSH2 0x4600 JUMP JUMPDEST SWAP4 PUSH2 0x242E PUSH1 0xA DUP9 ADD PUSH2 0x4600 JUMP JUMPDEST SWAP6 PUSH1 0x40 MLOAD SWAP9 PUSH2 0x243C DUP11 PUSH2 0x44E6 JUMP JUMPDEST PUSH1 0xB DUP10 ADD SLOAD DUP11 MSTORE PUSH1 0xC DUP10 ADD SLOAD PUSH1 0x20 DUP12 ADD MSTORE PUSH1 0xD DUP10 ADD SLOAD PUSH1 0x40 DUP12 ADD MSTORE PUSH1 0xE DUP10 ADD SLOAD PUSH1 0x60 DUP12 ADD MSTORE PUSH1 0xF DUP10 ADD SLOAD PUSH1 0x80 DUP12 ADD MSTORE PUSH1 0x10 DUP10 ADD SLOAD PUSH1 0xA0 DUP12 ADD MSTORE PUSH1 0x11 DUP10 ADD SLOAD PUSH1 0xC0 DUP12 ADD MSTORE PUSH1 0x12 DUP10 ADD SLOAD PUSH1 0xE0 DUP12 ADD MSTORE PUSH1 0x13 DUP10 ADD SLOAD PUSH1 0xFF AND ISZERO ISZERO PUSH2 0x100 DUP12 ADD MSTORE PUSH1 0x40 MLOAD SWAP9 PUSH2 0x24A6 DUP11 PUSH2 0x44B0 JUMP JUMPDEST PUSH1 0x14 DUP2 ADD SLOAD DUP11 MSTORE PUSH1 0x15 DUP2 ADD SLOAD PUSH1 0x20 DUP12 ADD MSTORE PUSH1 0x16 DUP2 ADD SLOAD PUSH1 0x40 DUP12 ADD MSTORE PUSH1 0x17 DUP2 ADD SLOAD PUSH1 0x60 DUP12 ADD MSTORE PUSH1 0x18 DUP2 ADD SLOAD PUSH1 0x80 DUP12 ADD MSTORE PUSH1 0x19 ADD SLOAD PUSH1 0xFF AND ISZERO ISZERO PUSH1 0xA0 DUP11 ADD MSTORE PUSH1 0x40 MLOAD SWAP12 DUP13 SWAP12 DUP13 MSTORE PUSH1 0x20 DUP13 ADD PUSH2 0x380 SWAP1 MSTORE PUSH2 0x380 DUP13 ADD PUSH2 0x2502 SWAP2 PUSH2 0x46A4 JUMP JUMPDEST DUP12 DUP2 SUB PUSH1 0x40 DUP14 ADD MSTORE PUSH2 0x2513 SWAP2 PUSH2 0x46A4 JUMP JUMPDEST DUP11 DUP2 SUB PUSH1 0x60 DUP13 ADD MSTORE PUSH2 0x2524 SWAP2 PUSH2 0x46A4 JUMP JUMPDEST SWAP4 PUSH2 0x2531 PUSH1 0xFF DUP3 AND PUSH2 0x47CE JUMP JUMPDEST PUSH1 0xFF DUP2 AND PUSH1 0x80 DUP12 ADD MSTORE DUP1 PUSH1 0x8 SHR PUSH1 0xFF AND PUSH2 0x254A SWAP1 PUSH2 0x47CE JUMP JUMPDEST DUP1 PUSH1 0x8 SHR PUSH1 0xFF AND PUSH1 0xA0 DUP12 ADD MSTORE PUSH1 0x1 PUSH1 0xA0 SHL PUSH1 0x1 SWAP1 SUB SWAP1 PUSH1 0x10 SHR AND PUSH1 0xC0 DUP11 ADD MSTORE PUSH1 0xE0 DUP10 ADD MSTORE PUSH2 0x100 DUP9 ADD MSTORE PUSH1 0xFF DUP2 AND ISZERO ISZERO PUSH2 0x120 DUP9 ADD MSTORE PUSH1 0x8 SHR PUSH1 0xFF AND ISZERO ISZERO PUSH2 0x140 DUP8 ADD MSTORE DUP6 DUP2 SUB PUSH2 0x160 DUP8 ADD MSTORE PUSH2 0x25A0 SWAP2 PUSH2 0x46A4 JUMP JUMPDEST DUP5 DUP2 SUB PUSH2 0x180 DUP7 ADD MSTORE PUSH2 0x25B2 SWAP2 PUSH2 0x46A4 JUMP JUMPDEST SWAP2 DUP1 MLOAD PUSH2 0x1A0 DUP6 ADD MSTORE PUSH1 0x20 DUP2 ADD MLOAD PUSH2 0x1C0 DUP6 ADD MSTORE PUSH1 0x40 DUP2 ADD MLOAD PUSH2 0x1E0 DUP6 ADD MSTORE PUSH1 0x60 DUP2 ADD MLOAD PUSH2 0x200 DUP6 ADD MSTORE PUSH1 0x80 DUP2 ADD MLOAD PUSH2 0x220 DUP6 ADD MSTORE PUSH1 0xA0 DUP2 ADD MLOAD PUSH2 0x240 DUP6 ADD MSTORE PUSH1 0xC0 DUP2 ADD MLOAD PUSH2 0x260 DUP6 ADD MSTORE PUSH1 0xE0 DUP2 ADD MLOAD PUSH2 0x280 DUP6 ADD MSTORE PUSH2 0x100 ADD MLOAD ISZERO ISZERO PUSH2 0x2A0 DUP5 ADD MSTORE DUP1 MLOAD PUSH2 0x2C0 DUP5 ADD MSTORE PUSH1 0x20 DUP2 ADD MLOAD PUSH2 0x2E0 DUP5 ADD MSTORE PUSH1 0x40 DUP2 ADD MLOAD PUSH2 0x300 DUP5 ADD MSTORE PUSH1 0x60 DUP2 ADD MLOAD PUSH2 0x320 DUP5 ADD MSTORE PUSH1 0x80 DUP2 ADD MLOAD PUSH2 0x340 DUP5 ADD MSTORE PUSH1 0xA0 ADD MLOAD ISZERO ISZERO PUSH2 0x360 DUP4 ADD MSTORE SUB SWAP1 RETURN JUMPDEST CALLVALUE PUSH2 0x2D5 JUMPI PUSH1 0x20 CALLDATASIZE PUSH1 0x3 NOT ADD SLT PUSH2 0x2D5 JUMPI PUSH1 0x4 CALLDATALOAD DUP1 ISZERO ISZERO DUP1 PUSH2 0x280E JUMPI JUMPDEST PUSH2 0x267F SWAP1 PUSH2 0x484A JUMP JUMPDEST PUSH1 0x0 MSTORE PUSH1 0x4 PUSH1 0x20 MSTORE PUSH1 0x40 PUSH1 0x0 KECCAK256 DUP1 SLOAD PUSH1 0x4 DUP3 ADD SLOAD SWAP2 PUSH1 0xFF DUP4 AND SWAP1 PUSH1 0xFF DUP5 PUSH1 0x8 SHR AND SWAP2 PUSH1 0x5 DUP3 ADD SWAP1 PUSH1 0x6 DUP4 ADD SLOAD SWAP2 PUSH1 0x7 DUP5 ADD SLOAD SWAP1 PUSH1 0x8 DUP6 ADD SLOAD SWAP3 PUSH2 0x26C4 PUSH1 0x1 DUP8 ADD PUSH2 0x4600 JUMP JUMPDEST SWAP9 PUSH2 0x26D1 PUSH1 0x2 DUP9 ADD PUSH2 0x4600 JUMP JUMPDEST SWAP8 PUSH2 0x26DE PUSH1 0x3 DUP10 ADD PUSH2 0x4600 JUMP JUMPDEST PUSH1 0x40 MLOAD DUP1 SWAP6 DUP7 SWAP2 PUSH1 0x20 DUP3 SLOAD SWAP2 DUP3 DUP2 MSTORE ADD SWAP2 PUSH1 0x0 MSTORE PUSH1 0x20 PUSH1 0x0 KECCAK256 SWAP1 PUSH1 0x0 JUMPDEST DUP2 DUP2 LT PUSH2 0x27F5 JUMPI POP POP POP SUB PUSH2 0x2710 SWAP1 DUP7 PUSH2 0x451D JUMP JUMPDEST PUSH2 0x271C PUSH1 0x9 DUP11 ADD PUSH2 0x4600 JUMP JUMPDEST SWAP9 PUSH1 0xA ADD PUSH2 0x2729 SWAP1 PUSH2 0x4600 JUMP JUMPDEST SWAP10 PUSH1 0x40 MLOAD SWAP13 DUP14 SWAP13 DUP14 MSTORE PUSH1 0x20 DUP14 ADD PUSH2 0x1C0 SWAP1 MSTORE PUSH2 0x1C0 DUP14 ADD PUSH2 0x2749 SWAP2 PUSH2 0x46A4 JUMP JUMPDEST DUP13 DUP2 SUB PUSH1 0x40 DUP15 ADD MSTORE PUSH2 0x275A SWAP2 PUSH2 0x46A4 JUMP JUMPDEST DUP12 DUP2 SUB PUSH1 0x60 DUP14 ADD MSTORE PUSH2 0x276B SWAP2 PUSH2 0x46A4 JUMP JUMPDEST SWAP3 PUSH2 0x2775 DUP2 PUSH2 0x47CE JUMP JUMPDEST PUSH1 0x80 DUP12 ADD MSTORE PUSH2 0x2783 DUP2 PUSH2 0x47CE JUMP JUMPDEST PUSH1 0xA0 DUP11 ADD MSTORE PUSH1 0x10 SHR PUSH1 0x1 PUSH1 0x1 PUSH1 0xA0 SHL SUB AND PUSH1 0xC0 DUP10 ADD MSTORE DUP8 DUP2 SUB PUSH1 0xE0 DUP10 ADD MSTORE PUSH2 0x27AA SWAP2 PUSH2 0x4768 JUMP JUMPDEST SWAP3 PUSH2 0x100 DUP8 ADD MSTORE PUSH2 0x120 DUP7 ADD MSTORE PUSH1 0xFF DUP2 AND ISZERO ISZERO PUSH2 0x140 DUP7 ADD MSTORE PUSH1 0x8 SHR PUSH1 0xFF AND ISZERO ISZERO PUSH2 0x160 DUP6 ADD MSTORE DUP4 DUP2 SUB PUSH2 0x180 DUP6 ADD MSTORE PUSH2 0x27E3 SWAP2 PUSH2 0x46A4 JUMP JUMPDEST DUP3 DUP2 SUB PUSH2 0x1A0 DUP5 ADD MSTORE PUSH2 0x260 SWAP2 PUSH2 0x46A4 JUMP JUMPDEST DUP3 SLOAD DUP5 MSTORE DUP10 SWAP5 POP PUSH1 0x20 SWAP1 SWAP4 ADD SWAP3 PUSH1 0x1 SWAP3 DUP4 ADD SWAP3 ADD PUSH2 0x26FB JUMP JUMPDEST POP PUSH1 0xC SLOAD DUP2 GT ISZERO PUSH2 0x2676 JUMP JUMPDEST CALLVALUE PUSH2 0x2D5 JUMPI PUSH1 0x20 CALLDATASIZE PUSH1 0x3 NOT ADD SLT PUSH2 0x2D5 JUMPI PUSH1 0x1 PUSH1 0x1 PUSH1 0xA0 SHL SUB PUSH2 0x283B PUSH2 0x46E5 JUMP JUMPDEST AND PUSH1 0x0 MSTORE PUSH1 0x6 PUSH1 0x20 MSTORE PUSH2 0x260 PUSH1 0xFF PUSH1 0x40 PUSH1 0x0 KECCAK256 SLOAD AND PUSH1 0x40 MLOAD SWAP2 DUP3 SWAP2 DUP3 PUSH2 0x473F JUMP JUMPDEST CALLVALUE PUSH2 0x2D5 JUMPI PUSH1 0x0 CALLDATASIZE PUSH1 0x3 NOT ADD SLT PUSH2 0x2D5 JUMPI PUSH2 0x2875 PUSH2 0x4B37 JUMP JUMPDEST PUSH1 0x0 DUP1 SLOAD PUSH1 0x1 PUSH1 0x1 PUSH1 0xA0 SHL SUB NOT DUP2 AND DUP3 SSTORE PUSH1 0x1 PUSH1 0x1 PUSH1 0xA0 SHL SUB AND PUSH32 0x8BE0079C531659141344CD1FD0A4F28419497F9722A3DAAFE3B4186F6B6457E0 DUP3 DUP1 LOG3 STOP JUMPDEST CALLVALUE PUSH2 0x2D5 JUMPI PUSH2 0x28C3 CALLDATASIZE PUSH2 0x479C JUMP JUMPDEST SWAP1 DUP1 ISZERO ISZERO DUP1 PUSH2 0x2B72 JUMPI JUMPDEST PUSH2 0x28D6 SWAP1 PUSH2 0x484A JUMP JUMPDEST PUSH1 0x0 DUP2 DUP2 MSTORE PUSH1 0x4 PUSH1 0x20 DUP2 SWAP1 MSTORE PUSH1 0x40 SWAP1 SWAP2 KECCAK256 ADD SLOAD PUSH1 0x10 SHR PUSH1 0x1 PUSH1 0x1 PUSH1 0xA0 SHL SUB AND CALLER SUB PUSH2 0x2B1F JUMPI DUP1 PUSH1 0x0 MSTORE PUSH1 0x4 PUSH1 0x20 MSTORE PUSH1 0xFF PUSH1 0x8 PUSH1 0x40 PUSH1 0x0 KECCAK256 ADD SLOAD PUSH1 0x8 SHR AND ISZERO PUSH2 0x2ACA JUMPI DUP2 MLOAD ISZERO PUSH2 0x2A85 JUMPI DUP1 PUSH1 0x0 MSTORE PUSH1 0x4 PUSH1 0x20 MSTORE PUSH1 0x9 PUSH1 0x40 PUSH1 0x0 KECCAK256 ADD SWAP2 DUP1 MLOAD SWAP3 PUSH1 0x1 PUSH1 0x1 PUSH1 0x40 SHL SUB DUP5 GT PUSH2 0x69D JUMPI PUSH2 0x294C DUP2 SLOAD PUSH2 0x45C6 JUMP JUMPDEST PUSH1 0x1F DUP2 GT PUSH2 0x2A53 JUMPI JUMPDEST POP PUSH1 0x20 SWAP4 PUSH1 0x1F DUP2 GT PUSH1 0x1 EQ PUSH2 0x29C9 JUMPI SWAP1 DUP2 PUSH2 0xA6D SWAP4 SWAP3 PUSH32 0xE041A16E704F07ECADCC3A2ADC4FEE6DC8F69789A538D1EBAAED3CA699E3F96D SWAP6 SWAP7 PUSH1 0x0 SWAP2 PUSH2 0x29BE JUMPI JUMPDEST POP DUP2 PUSH1 0x1 SHL SWAP2 PUSH1 0x0 NOT SWAP1 PUSH1 0x3 SHL SHR NOT AND OR SWAP1 SSTORE JUMPDEST PUSH1 0x40 MLOAD SWAP2 DUP3 SWAP2 PUSH1 0x20 DUP4 MSTORE PUSH1 0x20 DUP4 ADD SWAP1 PUSH2 0x46A4 JUMP JUMPDEST SWAP1 POP DUP4 ADD MLOAD DUP8 PUSH2 0x2996 JUMP JUMPDEST PUSH1 0x1F NOT DUP2 AND DUP3 PUSH1 0x0 MSTORE DUP6 PUSH1 0x0 KECCAK256 SWAP1 PUSH1 0x0 JUMPDEST DUP2 DUP2 LT PUSH2 0x2A3B JUMPI POP SWAP2 PUSH1 0x1 SWAP2 PUSH32 0xE041A16E704F07ECADCC3A2ADC4FEE6DC8F69789A538D1EBAAED3CA699E3F96D SWAP7 SWAP8 DUP3 PUSH2 0xA6D SWAP8 SWAP7 SWAP6 LT PUSH2 0x2A22 JUMPI JUMPDEST POP POP DUP2 SHL ADD SWAP1 SSTORE PUSH2 0x29AA JUMP JUMPDEST DUP6 ADD MLOAD PUSH1 0x0 NOT PUSH1 0xF8 DUP5 PUSH1 0x3 SHL AND SHR NOT AND SWAP1 SSTORE DUP8 DUP1 PUSH2 0x2A16 JUMP JUMPDEST DUP6 DUP9 ADD MLOAD DUP4 SSTORE PUSH1 0x20 SWAP8 DUP9 ADD SWAP8 PUSH1 0x1 SWAP1 SWAP4 ADD SWAP3 ADD PUSH2 0x29DA JUMP JUMPDEST PUSH2 0x2A7F SWAP1 DUP3 PUSH1 0x0 MSTORE PUSH1 0x20 PUSH1 0x0 KECCAK256 PUSH1 0x1F DUP8 ADD PUSH1 0x5 SHR DUP2 ADD SWAP2 PUSH1 0x20 DUP9 LT PUSH2 0x693 JUMPI PUSH1 0x1F ADD PUSH1 0x5 SHR ADD SWAP1 PUSH2 0x48B4 JUMP JUMPDEST DUP5 PUSH2 0x2955 JUMP JUMPDEST PUSH1 0x40 MLOAD PUSH3 0x461BCD PUSH1 0xE5 SHL DUP2 MSTORE PUSH1 0x20 PUSH1 0x4 DUP3 ADD MSTORE PUSH1 0x18 PUSH1 0x24 DUP3 ADD MSTORE PUSH32 0x515220636F646520686173682069732072657175697265640000000000000000 PUSH1 0x44 DUP3 ADD MSTORE PUSH1 0x64 SWAP1 REVERT JUMPDEST PUSH1 0x40 MLOAD PUSH3 0x461BCD PUSH1 0xE5 SHL DUP2 MSTORE PUSH1 0x20 PUSH1 0x4 DUP3 ADD MSTORE PUSH1 0x27 PUSH1 0x24 DUP3 ADD MSTORE PUSH32 0x50726F6475637420646F6573206E6F74206D656574207175616C697479207374 PUSH1 0x44 DUP3 ADD MSTORE PUSH7 0x616E6461726473 PUSH1 0xC8 SHL PUSH1 0x64 DUP3 ADD MSTORE PUSH1 0x84 SWAP1 REVERT JUMPDEST PUSH1 0x40 MLOAD PUSH3 0x461BCD PUSH1 0xE5 SHL DUP2 MSTORE PUSH1 0x20 PUSH1 0x4 DUP3 ADD MSTORE PUSH1 0x25 PUSH1 0x24 DUP3 ADD MSTORE PUSH32 0x43616E206F6E6C792067656E657261746520515220666F72206F776E2070726F PUSH1 0x44 DUP3 ADD MSTORE PUSH5 0x6475637473 PUSH1 0xD8 SHL PUSH1 0x64 DUP3 ADD MSTORE PUSH1 0x84 SWAP1 REVERT JUMPDEST POP PUSH1 0xC SLOAD DUP2 GT ISZERO PUSH2 0x28CD JUMP JUMPDEST CALLVALUE PUSH2 0x2D5 JUMPI PUSH1 0x20 CALLDATASIZE PUSH1 0x3 NOT ADD SLT PUSH2 0x2D5 JUMPI PUSH1 0x4 CALLDATALOAD DUP1 ISZERO ISZERO DUP1 PUSH2 0x2BFB JUMPI JUMPDEST PUSH2 0x2BA4 SWAP1 PUSH2 0x484A JUMP JUMPDEST PUSH1 0x0 MSTORE PUSH1 0x4 PUSH1 0x20 MSTORE PUSH1 0xC0 PUSH1 0x40 PUSH1 0x0 KECCAK256 PUSH1 0x14 DUP2 ADD SLOAD SWAP1 PUSH1 0x15 DUP2 ADD SLOAD SWAP1 PUSH1 0x16 DUP2 ADD SLOAD PUSH1 0x17 DUP3 ADD SLOAD SWAP1 PUSH1 0xFF PUSH1 0x19 PUSH1 0x18 DUP6 ADD SLOAD SWAP5 ADD SLOAD AND SWAP4 PUSH1 0x40 MLOAD SWAP6 DUP7 MSTORE PUSH1 0x20 DUP7 ADD MSTORE PUSH1 0x40 DUP6 ADD MSTORE PUSH1 0x60 DUP5 ADD MSTORE PUSH1 0x80 DUP4 ADD MSTORE ISZERO ISZERO PUSH1 0xA0 DUP3 ADD MSTORE RETURN JUMPDEST POP PUSH1 0xC SLOAD DUP2 GT ISZERO PUSH2 0x2B9B JUMP JUMPDEST CALLVALUE PUSH2 0x2D5 JUMPI PUSH1 0x20 CALLDATASIZE PUSH1 0x3 NOT ADD SLT PUSH2 0x2D5 JUMPI PUSH2 0x2C20 PUSH2 0x46E5 JUMP JUMPDEST PUSH1 0xA SLOAD SWAP1 PUSH2 0x2C2D DUP3 PUSH2 0x4917 JUMP JUMPDEST SWAP2 PUSH1 0x0 SWAP2 PUSH1 0x1 PUSH1 0x1 PUSH1 0xA0 SHL SUB AND PUSH1 0x1 JUMPDEST DUP3 DUP2 GT ISZERO PUSH2 0x2C91 JUMPI POP POP POP PUSH2 0x2C51 DUP2 PUSH2 0x4917 JUMP JUMPDEST SWAP2 PUSH1 0x0 JUMPDEST DUP3 DUP2 LT PUSH2 0x2C72 JUMPI PUSH1 0x40 MLOAD PUSH1 0x20 DUP1 DUP3 MSTORE DUP2 SWAP1 PUSH2 0x260 SWAP1 DUP3 ADD DUP8 PUSH2 0x4768 JUMP JUMPDEST DUP1 PUSH2 0x2C7F PUSH1 0x1 SWAP3 DUP5 PUSH2 0x4949 JUMP JUMPDEST MLOAD PUSH2 0x2C8A DUP3 DUP8 PUSH2 0x4949 JUMP JUMPDEST MSTORE ADD PUSH2 0x2C55 JUMP JUMPDEST PUSH1 0x0 DUP2 DUP2 MSTORE PUSH1 0x2 PUSH1 0x20 MSTORE PUSH1 0x40 SWAP1 KECCAK256 PUSH1 0x3 ADD SLOAD PUSH1 0x1 PUSH1 0x1 PUSH1 0xA0 SHL SUB AND DUP3 EQ DUP1 PUSH2 0x2CE2 JUMPI JUMPDEST PUSH2 0x2CC7 JUMPI JUMPDEST PUSH2 0x2CC2 SWAP1 PUSH2 0x488F JUMP JUMPDEST PUSH2 0x2C3D JUMP JUMPDEST SWAP3 PUSH2 0x2CDA DUP2 DUP6 PUSH2 0x2C7 PUSH2 0x2CC2 SWAP5 DUP10 PUSH2 0x4949 JUMP JUMPDEST SWAP4 SWAP1 POP PUSH2 0x2CB9 JUMP JUMPDEST POP DUP1 PUSH1 0x0 MSTORE PUSH1 0x2 PUSH1 0x20 MSTORE PUSH1 0xFF PUSH1 0x5 PUSH1 0x40 PUSH1 0x0 KECCAK256 ADD SLOAD AND PUSH2 0x2CB4 JUMP JUMPDEST CALLVALUE PUSH2 0x2D5 JUMPI PUSH1 0x20 CALLDATASIZE PUSH1 0x3 NOT ADD SLT PUSH2 0x2D5 JUMPI PUSH1 0x4 CALLDATALOAD DUP1 ISZERO ISZERO DUP1 PUSH2 0x2E1B JUMPI JUMPDEST PUSH2 0x2D23 SWAP1 PUSH2 0x484A JUMP JUMPDEST DUP1 PUSH1 0x0 MSTORE PUSH1 0x4 PUSH1 0x20 MSTORE PUSH1 0x40 PUSH1 0x0 KECCAK256 PUSH1 0x0 SWAP2 PUSH1 0x5 DUP3 ADD SWAP3 JUMPDEST DUP4 SLOAD DUP2 LT ISZERO PUSH2 0x2E0B JUMPI PUSH2 0x2D4D DUP2 DUP6 PUSH2 0x4AB7 JUMP JUMPDEST SWAP1 SLOAD SWAP1 PUSH1 0x3 SHL SHR PUSH1 0x0 MSTORE PUSH1 0x3 PUSH1 0x20 MSTORE PUSH1 0xFF PUSH1 0xA PUSH1 0x40 PUSH1 0x0 KECCAK256 ADD SLOAD AND DUP1 ISZERO PUSH2 0x2DDD JUMPI JUMPDEST PUSH2 0x2D7B JUMPI PUSH1 0x1 ADD PUSH2 0x2D3A JUMP JUMPDEST POP PUSH1 0x8 DUP1 DUP4 ADD DUP1 SLOAD PUSH1 0xFF NOT AND SWAP1 SSTORE PUSH1 0x4 DUP4 ADD DUP1 SLOAD PUSH2 0xFF00 NOT AND PUSH2 0x200 OR SWAP1 SSTORE PUSH1 0x20 SWAP4 POP PUSH1 0xFF SWAP3 SWAP1 SWAP2 JUMPDEST PUSH1 0x40 MLOAD SWAP1 TIMESTAMP DUP3 MSTORE PUSH32 0xA913DEF5E0A2F15C60FA63FE23979256A1FF8D6D893238336FA0683B9951266D DUP7 CALLER SWAP4 LOG3 ADD SLOAD AND PUSH1 0x40 MLOAD SWAP1 ISZERO ISZERO DUP2 MSTORE RETURN JUMPDEST POP PUSH2 0x2DE8 DUP2 DUP6 PUSH2 0x4AB7 JUMP JUMPDEST SWAP1 SLOAD SWAP1 PUSH1 0x3 SHL SHR PUSH1 0x0 MSTORE PUSH1 0x3 PUSH1 0x20 MSTORE PUSH1 0xFF PUSH1 0xA PUSH1 0x40 PUSH1 0x0 KECCAK256 ADD SLOAD PUSH1 0x8 SHR AND PUSH2 0x2D6F JUMP JUMPDEST POP PUSH1 0x20 SWAP3 POP PUSH1 0xFF SWAP2 PUSH1 0x8 SWAP2 PUSH2 0x2DA4 JUMP JUMPDEST POP PUSH1 0xC SLOAD DUP2 GT ISZERO PUSH2 0x2D1A JUMP JUMPDEST CALLVALUE PUSH2 0x2D5 JUMPI PUSH2 0x1A0 CALLDATASIZE PUSH1 0x3 NOT ADD SLT PUSH2 0x2D5 JUMPI PUSH1 0x4 CALLDATALOAD PUSH1 0x1 PUSH1 0x1 PUSH1 0x40 SHL SUB DUP2 GT PUSH2 0x2D5 JUMPI PUSH2 0x2E58 SWAP1 CALLDATASIZE SWAP1 PUSH1 0x4 ADD PUSH2 0x453E JUMP JUMPDEST PUSH1 0x24 CALLDATALOAD PUSH1 0x1 PUSH1 0x1 PUSH1 0x40 SHL SUB DUP2 GT PUSH2 0x2D5 JUMPI PUSH2 0x2E77 SWAP1 CALLDATASIZE SWAP1 PUSH1 0x4 ADD PUSH2 0x453E JUMP JUMPDEST PUSH1 0x44 CALLDATALOAD PUSH1 0x1 PUSH1 0x1 PUSH1 0x40 SHL SUB DUP2 GT PUSH2 0x2D5 JUMPI PUSH2 0x2E96 SWAP1 CALLDATASIZE SWAP1 PUSH1 0x4 ADD PUSH2 0x453E JUMP JUMPDEST PUSH1 0xC4 CALLDATALOAD PUSH1 0x1 PUSH1 0x1 PUSH1 0x40 SHL SUB DUP2 GT PUSH2 0x2D5 JUMPI PUSH2 0x2EB5 SWAP1 CALLDATASIZE SWAP1 PUSH1 0x4 ADD PUSH2 0x453E JUMP JUMPDEST SWAP2 PUSH2 0x184 CALLDATALOAD PUSH1 0x1 PUSH1 0x1 PUSH1 0x40 SHL SUB DUP2 GT PUSH2 0x2D5 JUMPI PUSH2 0x2ED6 SWAP1 CALLDATASIZE SWAP1 PUSH1 0x4 ADD PUSH2 0x453E JUMP JUMPDEST SWAP1 PUSH1 0x64 CALLDATALOAD ISZERO ISZERO DUP1 PUSH2 0x36C3 JUMPI JUMPDEST PUSH2 0x2EEB SWAP1 PUSH2 0x495D JUMP JUMPDEST PUSH2 0x2EF7 DUP6 MLOAD ISZERO ISZERO PUSH2 0x49A9 JUMP JUMPDEST PUSH2 0x2F03 DUP4 MLOAD ISZERO ISZERO PUSH2 0x49E8 JUMP JUMPDEST PUSH1 0x64 CALLDATALOAD PUSH1 0x0 SWAP1 DUP2 MSTORE PUSH1 0x2 PUSH1 0x20 MSTORE PUSH1 0x40 SWAP1 KECCAK256 PUSH1 0x3 ADD SLOAD PUSH1 0x1 PUSH1 0x1 PUSH1 0xA0 SHL SUB AND CALLER SUB PUSH2 0x367E JUMPI PUSH2 0x2F38 PUSH2 0x104 CALLDATALOAD PUSH1 0xE4 CALLDATALOAD SGT ISZERO PUSH2 0x4A26 JUMP JUMPDEST PUSH2 0x2F4A PUSH2 0x144 CALLDATALOAD PUSH2 0x124 CALLDATALOAD GT ISZERO PUSH2 0x4A72 JUMP JUMPDEST PUSH2 0x164 CALLDATALOAD ISZERO PUSH2 0x3639 JUMPI TIMESTAMP PUSH1 0xA4 CALLDATALOAD GT ISZERO PUSH2 0x35EA JUMPI TIMESTAMP PUSH1 0x84 CALLDATALOAD GT PUSH2 0x3595 JUMPI PUSH2 0x2F71 PUSH1 0xB SLOAD PUSH2 0x488F JUMP JUMPDEST SWAP4 DUP5 PUSH1 0xB SSTORE DUP5 PUSH1 0x0 MSTORE PUSH1 0x3 PUSH1 0x20 MSTORE PUSH1 0x40 PUSH1 0x0 KECCAK256 SWAP2 DUP6 DUP4 SSTORE DUP7 MLOAD PUSH1 0x1 PUSH1 0x1 PUSH1 0x40 SHL SUB DUP2 GT PUSH2 0x69D JUMPI PUSH2 0x2FA5 PUSH1 0x1 DUP6 ADD SLOAD PUSH2 0x45C6 JUMP JUMPDEST PUSH1 0x1F DUP2 GT PUSH2 0x3560 JUMPI JUMPDEST POP DUP1 PUSH1 0x20 PUSH1 0x1F DUP3 GT PUSH1 0x1 EQ PUSH2 0x34F3 JUMPI PUSH1 0x0 SWAP2 PUSH2 0x34E8 JUMPI JUMPDEST POP DUP2 PUSH1 0x1 SHL SWAP2 PUSH1 0x0 NOT SWAP1 PUSH1 0x3 SHL SHR NOT AND OR PUSH1 0x1 DUP5 ADD SSTORE JUMPDEST DUP1 MLOAD PUSH1 0x2 DUP5 ADD SWAP2 PUSH1 0x1 PUSH1 0x1 PUSH1 0x40 SHL SUB DUP3 GT PUSH2 0x69D JUMPI DUP2 SWAP1 PUSH2 0x2FFD DUP5 SLOAD PUSH2 0x45C6 JUMP JUMPDEST PUSH1 0x1F DUP2 GT PUSH2 0x34B6 JUMPI JUMPDEST POP PUSH1 0x20 SWAP1 PUSH1 0x1F DUP4 GT PUSH1 0x1 EQ PUSH2 0x3451 JUMPI PUSH1 0x0 SWAP3 PUSH2 0x3446 JUMPI JUMPDEST POP POP DUP2 PUSH1 0x1 SHL SWAP2 PUSH1 0x0 NOT SWAP1 PUSH1 0x3 SHL SHR NOT AND OR SWAP1 SSTORE JUMPDEST DUP4 MLOAD PUSH1 0x1 PUSH1 0x1 PUSH1 0x40 SHL SUB DUP2 GT PUSH2 0x69D JUMPI PUSH2 0x304F PUSH1 0x3 DUP5 ADD SLOAD PUSH2 0x45C6 JUMP JUMPDEST PUSH1 0x1F DUP2 GT PUSH2 0x3411 JUMPI JUMPDEST POP DUP1 PUSH1 0x20 PUSH1 0x1F DUP3 GT PUSH1 0x1 EQ PUSH2 0x33A5 JUMPI PUSH1 0x0 SWAP2 PUSH2 0x339A JUMPI JUMPDEST POP DUP2 PUSH1 0x1 SHL SWAP2 PUSH1 0x0 NOT SWAP1 PUSH1 0x3 SHL SHR NOT AND OR PUSH1 0x3 DUP4 ADD SSTORE JUMPDEST PUSH1 0x64 CALLDATALOAD PUSH1 0x4 DUP4 ADD SSTORE PUSH1 0x5 DUP3 ADD DUP1 SLOAD PUSH1 0x1 PUSH1 0x1 PUSH1 0xA0 SHL SUB NOT AND CALLER OR SWAP1 SSTORE TIMESTAMP PUSH1 0x6 DUP4 ADD SSTORE PUSH1 0x84 CALLDATALOAD PUSH1 0x7 DUP4 ADD SSTORE PUSH1 0xA4 CALLDATALOAD PUSH1 0x8 DUP4 ADD SSTORE DUP1 MLOAD SWAP1 PUSH1 0x1 PUSH1 0x1 PUSH1 0x40 SHL SUB DUP3 GT PUSH2 0x69D JUMPI PUSH2 0x30D6 PUSH1 0x9 DUP5 ADD SLOAD PUSH2 0x45C6 JUMP JUMPDEST PUSH1 0x1F DUP2 GT PUSH2 0x3365 JUMPI JUMPDEST POP PUSH1 0x20 SWAP1 PUSH1 0x1F DUP4 GT PUSH1 0x1 EQ PUSH2 0x32F3 JUMPI PUSH1 0x10 SWAP4 SWAP3 SWAP2 PUSH1 0x0 SWAP2 DUP4 PUSH2 0x32E8 JUMPI JUMPDEST POP POP DUP2 PUSH1 0x1 SHL SWAP2 PUSH1 0x0 NOT SWAP1 PUSH1 0x3 SHL SHR NOT AND OR PUSH1 0x9 DUP3 ADD SSTORE JUMPDEST PUSH1 0xA DUP2 ADD DUP1 SLOAD PUSH2 0xFFFF NOT AND SWAP1 SSTORE PUSH1 0x40 MLOAD PUSH2 0x312D DUP2 PUSH2 0x44CB JUMP JUMPDEST PUSH1 0xE4 CALLDATALOAD DUP2 MSTORE PUSH2 0x104 CALLDATALOAD PUSH1 0x20 DUP3 ADD MSTORE PUSH2 0x124 CALLDATALOAD PUSH1 0x40 DUP3 ADD MSTORE PUSH1 0x60 PUSH2 0x144 CALLDATALOAD SWAP2 ADD MSTORE PUSH1 0xE4 CALLDATALOAD PUSH1 0xB DUP3 ADD SSTORE PUSH2 0x104 CALLDATALOAD PUSH1 0xC DUP3 ADD SSTORE PUSH2 0x124 CALLDATALOAD PUSH1 0xD DUP3 ADD SSTORE PUSH2 0x144 CALLDATALOAD PUSH1 0xE DUP3 ADD SSTORE PUSH2 0x164 CALLDATALOAD PUSH1 0xF DUP3 ADD SSTORE ADD SWAP4 DUP2 MLOAD SWAP5 PUSH1 0x1 PUSH1 0x1 PUSH1 0x40 SHL SUB DUP7 GT PUSH2 0x69D JUMPI PUSH1 0x20 SWAP6 DUP6 SWAP4 PUSH2 0x319B DUP4 SLOAD PUSH2 0x45C6 JUMP JUMPDEST PUSH1 0x1F DUP2 GT PUSH2 0x32B8 JUMPI JUMPDEST POP DUP8 SWAP1 PUSH1 0x1F DUP4 GT PUSH1 0x1 EQ PUSH2 0x3229 JUMPI SWAP2 DUP1 PUSH2 0x3210 SWAP5 SWAP3 PUSH32 0xD209280F842E49729BB7555AF5C53111162DFC60E94B51245E99ACF699354F8D SWAP7 SWAP5 PUSH1 0x0 SWAP3 PUSH2 0x321E JUMPI JUMPDEST POP POP DUP2 PUSH1 0x1 SHL SWAP2 PUSH1 0x0 NOT SWAP1 PUSH1 0x3 SHL SHR NOT AND OR SWAP1 SSTORE JUMPDEST PUSH2 0xFA6 PUSH1 0x40 MLOAD SWAP3 DUP4 SWAP3 PUSH1 0x40 DUP5 MSTORE PUSH1 0x40 DUP5 ADD SWAP1 PUSH2 0x46A4 JUMP JUMPDEST DUP3 DUP2 SUB DUP10 DUP5 ADD MSTORE CALLER SWAP7 PUSH2 0x46A4 JUMP JUMPDEST ADD MLOAD SWAP1 POP DUP11 DUP1 PUSH2 0x31E4 JUMP JUMPDEST SWAP1 PUSH1 0x1F NOT DUP4 AND SWAP2 DUP5 PUSH1 0x0 MSTORE DUP2 PUSH1 0x0 KECCAK256 SWAP3 PUSH1 0x0 JUMPDEST DUP2 DUP2 LT PUSH2 0x329E JUMPI POP SWAP3 PUSH1 0x1 SWAP3 DUP6 SWAP3 PUSH32 0xD209280F842E49729BB7555AF5C53111162DFC60E94B51245E99ACF699354F8D SWAP9 SWAP7 PUSH2 0x3210 SWAP9 SWAP7 LT PUSH2 0x3285 JUMPI JUMPDEST POP POP POP DUP2 SHL ADD SWAP1 SSTORE PUSH2 0x31F9 JUMP JUMPDEST ADD MLOAD PUSH1 0x0 NOT PUSH1 0xF8 DUP5 PUSH1 0x3 SHL AND SHR NOT AND SWAP1 SSTORE DUP11 DUP1 DUP1 PUSH2 0x3278 JUMP JUMPDEST DUP3 DUP5 ADD MLOAD DUP6 SSTORE DUP11 SWAP9 POP PUSH1 0x1 SWAP1 SWAP5 ADD SWAP4 SWAP3 DUP12 ADD SWAP3 DUP12 ADD PUSH2 0x323C JUMP JUMPDEST PUSH2 0x32E2 SWAP1 DUP5 PUSH1 0x0 MSTORE DUP10 PUSH1 0x0 KECCAK256 PUSH1 0x1F DUP6 ADD PUSH1 0x5 SHR DUP2 ADD SWAP2 DUP12 DUP7 LT PUSH2 0x693 JUMPI PUSH1 0x1F ADD PUSH1 0x5 SHR ADD SWAP1 PUSH2 0x48B4 JUMP JUMPDEST DUP9 PUSH2 0x31A4 JUMP JUMPDEST ADD MLOAD SWAP1 POP DUP9 DUP1 PUSH2 0x30FC JUMP JUMPDEST SWAP1 PUSH1 0x9 DUP5 ADD PUSH1 0x0 MSTORE DUP1 PUSH1 0x0 KECCAK256 SWAP2 PUSH1 0x0 JUMPDEST PUSH1 0x1F NOT DUP6 AND DUP2 LT PUSH2 0x334D JUMPI POP SWAP2 DUP4 SWAP2 PUSH1 0x1 SWAP4 PUSH1 0x10 SWAP7 SWAP6 PUSH1 0x1F NOT DUP2 AND LT PUSH2 0x3334 JUMPI JUMPDEST POP POP POP DUP2 SHL ADD PUSH1 0x9 DUP3 ADD SSTORE PUSH2 0x3114 JUMP JUMPDEST ADD MLOAD PUSH1 0x0 NOT PUSH1 0xF8 DUP5 PUSH1 0x3 SHL AND SHR NOT AND SWAP1 SSTORE DUP9 DUP1 DUP1 PUSH2 0x3324 JUMP JUMPDEST SWAP2 SWAP3 PUSH1 0x20 PUSH1 0x1 DUP2 SWAP3 DUP7 DUP6 ADD MLOAD DUP2 SSTORE ADD SWAP5 ADD SWAP3 ADD PUSH2 0x3303 JUMP JUMPDEST PUSH2 0x3394 SWAP1 PUSH1 0x9 DUP6 ADD PUSH1 0x0 MSTORE PUSH1 0x20 PUSH1 0x0 KECCAK256 PUSH1 0x1F DUP6 ADD PUSH1 0x5 SHR DUP2 ADD SWAP2 PUSH1 0x20 DUP7 LT PUSH2 0x693 JUMPI PUSH1 0x1F ADD PUSH1 0x5 SHR ADD SWAP1 PUSH2 0x48B4 JUMP JUMPDEST DUP8 PUSH2 0x30DF JUMP JUMPDEST SWAP1 POP DUP6 ADD MLOAD DUP9 PUSH2 0x306F JUMP JUMPDEST SWAP2 POP PUSH1 0x3 DUP5 ADD PUSH1 0x0 MSTORE DUP2 PUSH1 0x0 KECCAK256 PUSH1 0x0 SWAP3 JUMPDEST PUSH1 0x1F NOT DUP4 AND DUP5 LT PUSH2 0x33F9 JUMPI PUSH1 0x1 SWAP4 POP DUP3 PUSH1 0x1F NOT DUP2 AND LT PUSH2 0x33E0 JUMPI JUMPDEST POP POP DUP2 SHL ADD PUSH1 0x3 DUP4 ADD SSTORE PUSH2 0x3086 JUMP JUMPDEST DUP8 ADD MLOAD PUSH1 0x0 NOT PUSH1 0xF8 DUP5 PUSH1 0x3 SHL AND SHR NOT AND SWAP1 SSTORE DUP9 DUP1 PUSH2 0x33D1 JUMP JUMPDEST DUP8 DUP2 ADD MLOAD DUP3 SSTORE PUSH1 0x20 SWAP4 DUP5 ADD SWAP4 PUSH1 0x1 SWAP1 SWAP3 ADD SWAP2 ADD PUSH2 0x33B6 JUMP JUMPDEST PUSH2 0x3440 SWAP1 PUSH1 0x3 DUP6 ADD PUSH1 0x0 MSTORE PUSH1 0x20 PUSH1 0x0 KECCAK256 PUSH1 0x1F DUP5 ADD PUSH1 0x5 SHR DUP2 ADD SWAP2 PUSH1 0x20 DUP6 LT PUSH2 0x693 JUMPI PUSH1 0x1F ADD PUSH1 0x5 SHR ADD SWAP1 PUSH2 0x48B4 JUMP JUMPDEST DUP8 PUSH2 0x3058 JUMP JUMPDEST ADD MLOAD SWAP1 POP DUP10 DUP1 PUSH2 0x301D JUMP JUMPDEST PUSH1 0x0 DUP6 DUP2 MSTORE DUP3 DUP2 KECCAK256 SWAP4 POP PUSH1 0x1F NOT DUP6 AND SWAP1 JUMPDEST DUP2 DUP2 LT PUSH2 0x349E JUMPI POP SWAP1 DUP5 PUSH1 0x1 SWAP6 SWAP5 SWAP4 SWAP3 LT PUSH2 0x3485 JUMPI JUMPDEST POP POP POP DUP2 SHL ADD SWAP1 SSTORE PUSH2 0x3032 JUMP JUMPDEST ADD MLOAD PUSH1 0x0 NOT PUSH1 0xF8 DUP5 PUSH1 0x3 SHL AND SHR NOT AND SWAP1 SSTORE DUP10 DUP1 DUP1 PUSH2 0x3478 JUMP JUMPDEST SWAP3 SWAP4 PUSH1 0x20 PUSH1 0x1 DUP2 SWAP3 DUP8 DUP7 ADD MLOAD DUP2 SSTORE ADD SWAP6 ADD SWAP4 ADD PUSH2 0x3462 JUMP JUMPDEST PUSH2 0x34E2 SWAP1 DUP6 PUSH1 0x0 MSTORE PUSH1 0x20 PUSH1 0x0 KECCAK256 PUSH1 0x1F DUP6 ADD PUSH1 0x5 SHR DUP2 ADD SWAP2 PUSH1 0x20 DUP7 LT PUSH2 0x693 JUMPI PUSH1 0x1F ADD PUSH1 0x5 SHR ADD SWAP1 PUSH2 0x48B4 JUMP JUMPDEST DUP11 PUSH2 0x3006 JUMP JUMPDEST SWAP1 POP DUP9 ADD MLOAD DUP10 PUSH2 0x2FC5 JUMP JUMPDEST SWAP2 POP PUSH1 0x1 DUP6 ADD PUSH1 0x0 MSTORE DUP2 PUSH1 0x0 KECCAK256 PUSH1 0x0 SWAP3 JUMPDEST DUP11 PUSH1 0x1F NOT DUP5 AND DUP6 LT PUSH2 0x3549 JUMPI POP PUSH1 0x1 SWAP4 POP DUP3 PUSH1 0x1F NOT DUP2 AND LT PUSH2 0x3530 JUMPI JUMPDEST POP POP DUP2 SHL ADD PUSH1 0x1 DUP5 ADD SSTORE PUSH2 0x2FDC JUMP JUMPDEST DUP11 ADD MLOAD PUSH1 0x0 NOT PUSH1 0xF8 DUP5 PUSH1 0x3 SHL AND SHR NOT AND SWAP1 SSTORE DUP10 DUP1 PUSH2 0x3521 JUMP JUMPDEST DUP2 ADD MLOAD DUP3 SSTORE PUSH1 0x20 SWAP4 DUP5 ADD SWAP4 PUSH1 0x1 SWAP1 SWAP3 ADD SWAP2 ADD PUSH2 0x3504 JUMP JUMPDEST PUSH2 0x358F SWAP1 PUSH1 0x1 DUP7 ADD PUSH1 0x0 MSTORE PUSH1 0x20 PUSH1 0x0 KECCAK256 PUSH1 0x1F DUP5 ADD PUSH1 0x5 SHR DUP2 ADD SWAP2 PUSH1 0x20 DUP6 LT PUSH2 0x693 JUMPI PUSH1 0x1F ADD PUSH1 0x5 SHR ADD SWAP1 PUSH2 0x48B4 JUMP JUMPDEST DUP9 PUSH2 0x2FAE JUMP JUMPDEST PUSH1 0x40 MLOAD PUSH3 0x461BCD PUSH1 0xE5 SHL DUP2 MSTORE PUSH1 0x20 PUSH1 0x4 DUP3 ADD MSTORE PUSH1 0x27 PUSH1 0x24 DUP3 ADD MSTORE PUSH32 0x50726F64756374696F6E20646174652063616E6E6F7420626520696E20746865 PUSH1 0x44 DUP3 ADD MSTORE PUSH7 0x20667574757265 PUSH1 0xC8 SHL PUSH1 0x64 DUP3 ADD MSTORE PUSH1 0x84 SWAP1 REVERT JUMPDEST PUSH1 0x40 MLOAD PUSH3 0x461BCD PUSH1 0xE5 SHL DUP2 MSTORE PUSH1 0x20 PUSH1 0x4 DUP3 ADD MSTORE PUSH1 0x21 PUSH1 0x24 DUP3 ADD MSTORE PUSH32 0x4578706972792064617465206D75737420626520696E20746865206675747572 PUSH1 0x44 DUP3 ADD MSTORE PUSH1 0x65 PUSH1 0xF8 SHL PUSH1 0x64 DUP3 ADD MSTORE PUSH1 0x84 SWAP1 REVERT JUMPDEST PUSH1 0x40 MLOAD PUSH3 0x461BCD PUSH1 0xE5 SHL DUP2 MSTORE PUSH1 0x20 PUSH1 0x4 DUP3 ADD MSTORE PUSH1 0x1D PUSH1 0x24 DUP3 ADD MSTORE PUSH32 0x576569676874206D7573742062652067726561746572207468616E2030000000 PUSH1 0x44 DUP3 ADD MSTORE PUSH1 0x64 SWAP1 REVERT JUMPDEST PUSH1 0x40 MLOAD PUSH3 0x461BCD PUSH1 0xE5 SHL DUP2 MSTORE PUSH1 0x20 PUSH1 0x4 DUP3 ADD MSTORE PUSH1 0x1A PUSH1 0x24 DUP3 ADD MSTORE PUSH32 0x43616E206F6E6C7920757365206F776E20737570706C69657273000000000000 PUSH1 0x44 DUP3 ADD MSTORE PUSH1 0x64 SWAP1 REVERT JUMPDEST POP PUSH1 0xA SLOAD PUSH1 0x64 CALLDATALOAD GT ISZERO PUSH2 0x2EE2 JUMP JUMPDEST CALLVALUE PUSH2 0x2D5 JUMPI PUSH1 0x20 CALLDATASIZE PUSH1 0x3 NOT ADD SLT PUSH2 0x2D5 JUMPI PUSH1 0x4 CALLDATALOAD DUP1 ISZERO ISZERO DUP1 PUSH2 0x37A1 JUMPI JUMPDEST PUSH2 0x36F7 SWAP1 PUSH2 0x484A JUMP JUMPDEST PUSH1 0xD SLOAD SWAP1 PUSH2 0x3704 DUP3 PUSH2 0x4917 JUMP JUMPDEST SWAP2 PUSH1 0x0 SWAP2 PUSH1 0x1 JUMPDEST DUP3 DUP2 GT ISZERO PUSH2 0x375F JUMPI POP POP POP PUSH2 0x371F DUP2 PUSH2 0x4917 JUMP JUMPDEST SWAP2 PUSH1 0x0 JUMPDEST DUP3 DUP2 LT PUSH2 0x3740 JUMPI PUSH1 0x40 MLOAD PUSH1 0x20 DUP1 DUP3 MSTORE DUP2 SWAP1 PUSH2 0x260 SWAP1 DUP3 ADD DUP8 PUSH2 0x4768 JUMP JUMPDEST DUP1 PUSH2 0x374D PUSH1 0x1 SWAP3 DUP5 PUSH2 0x4949 JUMP JUMPDEST MLOAD PUSH2 0x3758 DUP3 DUP8 PUSH2 0x4949 JUMP JUMPDEST MSTORE ADD PUSH2 0x3723 JUMP JUMPDEST DUP1 PUSH1 0x0 MSTORE PUSH1 0x5 PUSH1 0x20 MSTORE DUP2 PUSH1 0x1 PUSH1 0x40 PUSH1 0x0 KECCAK256 ADD SLOAD EQ PUSH2 0x3786 JUMPI JUMPDEST PUSH2 0x3781 SWAP1 PUSH2 0x488F JUMP JUMPDEST PUSH2 0x370B JUMP JUMPDEST SWAP3 PUSH2 0x3799 DUP2 DUP6 PUSH2 0x2C7 PUSH2 0x3781 SWAP5 DUP10 PUSH2 0x4949 JUMP JUMPDEST SWAP4 SWAP1 POP PUSH2 0x3778 JUMP JUMPDEST POP PUSH1 0xC SLOAD DUP2 GT ISZERO PUSH2 0x36EE JUMP JUMPDEST CALLVALUE PUSH2 0x2D5 JUMPI PUSH1 0x20 CALLDATASIZE PUSH1 0x3 NOT ADD SLT PUSH2 0x2D5 JUMPI PUSH1 0x4 CALLDATALOAD DUP1 ISZERO ISZERO DUP1 PUSH2 0x3935 JUMPI JUMPDEST PUSH2 0x37D3 SWAP1 PUSH2 0x48CB JUMP JUMPDEST DUP1 PUSH1 0x0 MSTORE PUSH1 0x5 PUSH1 0x20 MSTORE PUSH1 0x40 PUSH1 0x0 KECCAK256 DUP1 SLOAD ISZERO PUSH2 0x38FB JUMPI PUSH1 0x1 DUP2 ADD SLOAD PUSH1 0x0 MSTORE PUSH1 0x4 PUSH1 0x20 MSTORE PUSH1 0x1 DUP1 PUSH1 0xA0 SHL SUB PUSH1 0x4 PUSH1 0x40 PUSH1 0x0 KECCAK256 ADD SLOAD PUSH1 0x10 SHR AND CALLER SUB PUSH2 0x38A3 JUMPI PUSH1 0x6 ADD DUP1 SLOAD PUSH1 0xFF DUP2 AND PUSH2 0x385E JUMPI PUSH1 0x1 SWAP1 PUSH1 0xFF NOT AND OR SWAP1 SSTORE PUSH1 0x40 MLOAD SWAP1 TIMESTAMP DUP3 MSTORE PUSH32 0xCF3BE6B092D2546D9EEAC237826965F35C31D31050DBB0E370433D6D321580DE PUSH1 0x20 CALLER SWAP4 LOG3 PUSH1 0x20 PUSH1 0x40 MLOAD PUSH1 0x1 DUP2 MSTORE RETURN JUMPDEST PUSH1 0x40 MLOAD PUSH3 0x461BCD PUSH1 0xE5 SHL DUP2 MSTORE PUSH1 0x20 PUSH1 0x4 DUP3 ADD MSTORE PUSH1 0x1A PUSH1 0x24 DUP3 ADD MSTORE PUSH32 0x466565646261636B20616C72656164792070726F636573736564000000000000 PUSH1 0x44 DUP3 ADD MSTORE PUSH1 0x64 SWAP1 REVERT JUMPDEST PUSH1 0x40 MLOAD PUSH3 0x461BCD PUSH1 0xE5 SHL DUP2 MSTORE PUSH1 0x20 PUSH1 0x4 DUP3 ADD MSTORE PUSH1 0x2A PUSH1 0x24 DUP3 ADD MSTORE PUSH32 0x4F6E6C792070726F64756374206D65726368616E742063616E2070726F636573 PUSH1 0x44 DUP3 ADD MSTORE PUSH10 0x7320666565646261636B PUSH1 0xB0 SHL PUSH1 0x64 DUP3 ADD MSTORE PUSH1 0x84 SWAP1 REVERT JUMPDEST PUSH1 0x40 MLOAD PUSH3 0x461BCD PUSH1 0xE5 SHL DUP2 MSTORE PUSH1 0x20 PUSH1 0x4 DUP3 ADD MSTORE PUSH1 0x12 PUSH1 0x24 DUP3 ADD MSTORE PUSH18 0x11995959189858DAC81B9BDD08199BDD5B99 PUSH1 0x72 SHL PUSH1 0x44 DUP3 ADD MSTORE PUSH1 0x64 SWAP1 REVERT JUMPDEST POP PUSH1 0xD SLOAD DUP2 GT ISZERO PUSH2 0x37CA JUMP JUMPDEST CALLVALUE PUSH2 0x2D5 JUMPI PUSH1 0x40 CALLDATASIZE PUSH1 0x3 NOT ADD SLT PUSH2 0x2D5 JUMPI PUSH1 0x1 PUSH1 0x1 PUSH1 0xA0 SHL SUB PUSH2 0x3962 PUSH2 0x46E5 JUMP JUMPDEST AND PUSH1 0x0 MSTORE PUSH1 0x9 PUSH1 0x20 MSTORE PUSH1 0x40 PUSH1 0x0 KECCAK256 PUSH1 0x24 CALLDATALOAD PUSH1 0x0 MSTORE PUSH1 0x20 MSTORE PUSH1 0x20 PUSH1 0xFF PUSH1 0x40 PUSH1 0x0 KECCAK256 SLOAD AND PUSH1 0x40 MLOAD SWAP1 ISZERO ISZERO DUP2 MSTORE RETURN JUMPDEST CALLVALUE PUSH2 0x2D5 JUMPI PUSH1 0x20 CALLDATASIZE PUSH1 0x3 NOT ADD SLT PUSH2 0x2D5 JUMPI PUSH1 0x4 CALLDATALOAD DUP1 ISZERO ISZERO DUP1 PUSH2 0x3A2C JUMPI JUMPDEST PUSH2 0x39B4 SWAP1 PUSH2 0x484A JUMP JUMPDEST PUSH1 0x0 MSTORE PUSH1 0x4 PUSH1 0x20 MSTORE PUSH2 0x120 PUSH1 0x40 PUSH1 0x0 KECCAK256 PUSH1 0xB DUP2 ADD SLOAD SWAP1 PUSH1 0xC DUP2 ADD SLOAD SWAP1 PUSH1 0xD DUP2 ADD SLOAD PUSH1 0xE DUP3 ADD SLOAD PUSH1 0xF DUP4 ADD SLOAD PUSH1 0x10 DUP5 ADD SLOAD SWAP2 PUSH1 0x11 DUP6 ADD SLOAD SWAP4 PUSH1 0xFF PUSH1 0x13 PUSH1 0x12 DUP9 ADD SLOAD SWAP8 ADD SLOAD AND SWAP7 PUSH1 0x40 MLOAD SWAP9 DUP10 MSTORE PUSH1 0x20 DUP10 ADD MSTORE PUSH1 0x40 DUP9 ADD MSTORE PUSH1 0x60 DUP8 ADD MSTORE PUSH1 0x80 DUP7 ADD MSTORE PUSH1 0xA0 DUP6 ADD MSTORE PUSH1 0xC0 DUP5 ADD MSTORE PUSH1 0xE0 DUP4 ADD MSTORE ISZERO ISZERO PUSH2 0x100 DUP3 ADD MSTORE RETURN JUMPDEST POP PUSH1 0xC SLOAD DUP2 GT ISZERO PUSH2 0x39AB JUMP JUMPDEST CALLVALUE PUSH2 0x2D5 JUMPI PUSH1 0x20 CALLDATASIZE PUSH1 0x3 NOT ADD SLT PUSH2 0x2D5 JUMPI PUSH1 0x4 CALLDATALOAD PUSH1 0x0 MSTORE PUSH1 0x3 PUSH1 0x20 MSTORE PUSH1 0x40 PUSH1 0x0 KECCAK256 DUP1 SLOAD PUSH1 0x1 DUP3 ADD PUSH2 0x3A68 SWAP1 PUSH2 0x4600 JUMP JUMPDEST SWAP2 PUSH2 0x3A75 PUSH1 0x2 DUP3 ADD PUSH2 0x4600 JUMP JUMPDEST SWAP1 PUSH2 0x3A82 PUSH1 0x3 DUP3 ADD PUSH2 0x4600 JUMP JUMPDEST PUSH1 0x4 DUP3 ADD SLOAD PUSH1 0x5 DUP4 ADD SLOAD PUSH1 0x6 DUP5 ADD SLOAD PUSH1 0x7 DUP6 ADD SLOAD PUSH1 0x8 DUP7 ADD SLOAD PUSH1 0x1 PUSH1 0x1 PUSH1 0xA0 SHL SUB SWAP1 SWAP4 AND SWAP6 SWAP5 SWAP4 SWAP2 SWAP3 SWAP1 PUSH2 0x3AB8 PUSH1 0x9 DUP8 ADD PUSH2 0x4600 JUMP JUMPDEST SWAP4 PUSH1 0xA DUP8 ADD SLOAD SWAP8 PUSH1 0x40 MLOAD SWAP7 PUSH2 0x3ACC DUP9 PUSH2 0x44CB JUMP JUMPDEST PUSH1 0xB DUP10 ADD SLOAD DUP9 MSTORE PUSH1 0xC DUP10 ADD SLOAD PUSH1 0x20 DUP10 ADD MSTORE PUSH1 0xD DUP10 ADD SLOAD PUSH1 0x40 DUP10 ADD MSTORE PUSH1 0xE DUP10 ADD SLOAD PUSH1 0x60 DUP10 ADD MSTORE PUSH1 0xF DUP10 ADD SLOAD SWAP9 PUSH1 0x10 ADD PUSH2 0x3B03 SWAP1 PUSH2 0x4600 JUMP JUMPDEST SWAP11 PUSH1 0x40 MLOAD SWAP14 DUP15 SWAP14 DUP15 MSTORE DUP14 PUSH1 0x20 DUP2 ADD PUSH2 0x240 SWAP1 MSTORE PUSH2 0x240 ADD PUSH2 0x3B23 SWAP2 PUSH2 0x46A4 JUMP JUMPDEST DUP14 DUP2 SUB PUSH1 0x40 DUP16 ADD MSTORE PUSH2 0x3B34 SWAP2 PUSH2 0x46A4 JUMP JUMPDEST DUP13 DUP2 SUB PUSH1 0x60 DUP15 ADD MSTORE PUSH2 0x3B45 SWAP2 PUSH2 0x46A4 JUMP JUMPDEST SWAP5 PUSH1 0x80 DUP13 ADD MSTORE PUSH1 0xA0 DUP12 ADD MSTORE PUSH1 0xC0 DUP11 ADD MSTORE PUSH1 0xE0 DUP10 ADD MSTORE PUSH2 0x100 DUP9 ADD MSTORE DUP7 DUP2 SUB PUSH2 0x120 DUP9 ADD MSTORE PUSH2 0x3B72 SWAP2 PUSH2 0x46A4 JUMP JUMPDEST SWAP3 PUSH1 0xFF DUP2 AND ISZERO ISZERO PUSH2 0x140 DUP8 ADD MSTORE PUSH1 0x8 SHR PUSH1 0xFF AND ISZERO ISZERO PUSH2 0x160 DUP7 ADD MSTORE DUP1 MLOAD PUSH2 0x180 DUP7 ADD MSTORE PUSH1 0x20 DUP2 ADD MLOAD PUSH2 0x1A0 DUP7 ADD MSTORE PUSH1 0x40 DUP2 ADD MLOAD PUSH2 0x1C0 DUP7 ADD MSTORE PUSH1 0x60 ADD MLOAD PUSH2 0x1E0 DUP6 ADD MSTORE PUSH2 0x200 DUP5 ADD MSTORE DUP3 DUP2 SUB PUSH2 0x220 DUP5 ADD MSTORE PUSH2 0x260 SWAP2 PUSH2 0x46A4 JUMP JUMPDEST CALLVALUE PUSH2 0x2D5 JUMPI PUSH1 0x20 CALLDATASIZE PUSH1 0x3 NOT ADD SLT PUSH2 0x2D5 JUMPI PUSH1 0x4 CALLDATALOAD PUSH1 0x0 MSTORE PUSH1 0x5 PUSH1 0x20 MSTORE PUSH1 0x40 PUSH1 0x0 KECCAK256 DUP1 SLOAD PUSH2 0x260 PUSH1 0x1 DUP4 ADD SLOAD SWAP3 PUSH1 0x1 DUP1 PUSH1 0xA0 SHL SUB PUSH1 0x2 DUP3 ADD SLOAD AND SWAP1 PUSH2 0x3C13 PUSH1 0x3 DUP3 ADD PUSH2 0x4600 JUMP JUMPDEST PUSH1 0x4 DUP3 ADD SLOAD SWAP1 PUSH1 0xFF PUSH1 0x6 PUSH1 0x5 DUP6 ADD SLOAD SWAP5 ADD SLOAD AND SWAP4 PUSH1 0x40 MLOAD SWAP8 DUP9 SWAP8 DUP9 PUSH2 0x46FB JUMP JUMPDEST CALLVALUE PUSH2 0x2D5 JUMPI PUSH1 0x20 CALLDATASIZE PUSH1 0x3 NOT ADD SLT PUSH2 0x2D5 JUMPI PUSH1 0x1 PUSH1 0x1 PUSH1 0xA0 SHL SUB PUSH2 0x3C54 PUSH2 0x46E5 JUMP JUMPDEST AND DUP1 PUSH1 0x0 MSTORE PUSH1 0x7 PUSH1 0x20 MSTORE PUSH1 0xFF PUSH1 0x40 PUSH1 0x0 KECCAK256 SLOAD AND ISZERO PUSH2 0x3C8C JUMPI PUSH1 0x0 MSTORE PUSH1 0x6 PUSH1 0x20 MSTORE PUSH2 0x260 PUSH1 0xFF PUSH1 0x40 PUSH1 0x0 KECCAK256 SLOAD AND PUSH1 0x40 MLOAD SWAP2 DUP3 SWAP2 DUP3 PUSH2 0x473F JUMP JUMPDEST PUSH1 0x40 MLOAD PUSH3 0x461BCD PUSH1 0xE5 SHL DUP2 MSTORE PUSH1 0x20 PUSH1 0x4 DUP3 ADD MSTORE PUSH1 0x13 PUSH1 0x24 DUP3 ADD MSTORE PUSH19 0x155CD95C881B9BDD081C9959DA5CDD195C9959 PUSH1 0x6A SHL PUSH1 0x44 DUP3 ADD MSTORE PUSH1 0x64 SWAP1 REVERT JUMPDEST CALLVALUE PUSH2 0x2D5 JUMPI PUSH1 0x0 CALLDATASIZE PUSH1 0x3 NOT ADD SLT PUSH2 0x2D5 JUMPI PUSH1 0x20 PUSH1 0xC SLOAD PUSH1 0x40 MLOAD SWAP1 DUP2 MSTORE RETURN JUMPDEST CALLVALUE PUSH2 0x2D5 JUMPI PUSH1 0x20 CALLDATASIZE PUSH1 0x3 NOT ADD SLT PUSH2 0x2D5 JUMPI PUSH1 0x1 PUSH1 0x1 PUSH1 0xA0 SHL SUB PUSH2 0x3D06 PUSH2 0x46E5 JUMP JUMPDEST AND PUSH1 0x0 MSTORE PUSH1 0x7 PUSH1 0x20 MSTORE PUSH1 0x20 PUSH1 0xFF PUSH1 0x40 PUSH1 0x0 KECCAK256 SLOAD AND PUSH1 0x40 MLOAD SWAP1 ISZERO ISZERO DUP2 MSTORE RETURN JUMPDEST CALLVALUE PUSH2 0x2D5 JUMPI PUSH1 0x20 CALLDATASIZE PUSH1 0x3 NOT ADD SLT PUSH2 0x2D5 JUMPI PUSH1 0x4 CALLDATALOAD DUP1 ISZERO ISZERO DUP1 PUSH2 0x3D9B JUMPI JUMPDEST PUSH2 0x3D4A SWAP1 PUSH2 0x48CB JUMP JUMPDEST PUSH1 0x0 MSTORE PUSH1 0x5 PUSH1 0x20 MSTORE PUSH1 0x40 PUSH1 0x0 KECCAK256 DUP1 SLOAD PUSH2 0x260 PUSH1 0x1 DUP4 ADD SLOAD SWAP3 PUSH1 0x1 DUP1 PUSH1 0xA0 SHL SUB PUSH1 0x2 DUP3 ADD SLOAD AND PUSH1 0x4 DUP3 ADD SLOAD PUSH1 0x5 DUP4 ADD SLOAD SWAP2 PUSH2 0x3D8E PUSH1 0x3 PUSH1 0xFF PUSH1 0x6 DUP8 ADD SLOAD AND SWAP6 ADD PUSH2 0x4600 JUMP JUMPDEST SWAP1 PUSH1 0x40 MLOAD SWAP8 DUP9 SWAP8 DUP9 PUSH2 0x46FB JUMP JUMPDEST POP PUSH1 0xD SLOAD DUP2 GT ISZERO PUSH2 0x3D41 JUMP JUMPDEST CALLVALUE PUSH2 0x2D5 JUMPI PUSH1 0xA0 CALLDATASIZE PUSH1 0x3 NOT ADD SLT PUSH2 0x2D5 JUMPI PUSH1 0x44 CALLDATALOAD PUSH1 0x4 CALLDATALOAD PUSH1 0x84 CALLDATALOAD PUSH1 0x64 CALLDATALOAD PUSH1 0x24 CALLDATALOAD DUP4 ISZERO ISZERO DUP1 PUSH2 0x404E JUMPI JUMPDEST PUSH2 0x3DD9 SWAP1 PUSH2 0x484A JUMP JUMPDEST PUSH1 0x0 DUP5 DUP2 MSTORE PUSH1 0x4 PUSH1 0x20 DUP2 SWAP1 MSTORE PUSH1 0x40 SWAP1 SWAP2 KECCAK256 ADD SLOAD PUSH1 0x10 SHR PUSH1 0x1 PUSH1 0x1 PUSH1 0xA0 SHL SUB AND CALLER SUB PUSH2 0x4009 JUMPI DUP4 PUSH1 0x0 MSTORE PUSH1 0x4 PUSH1 0x20 MSTORE PUSH1 0x18 PUSH1 0x40 PUSH1 0x0 KECCAK256 ADD SLOAD PUSH2 0x3FBA JUMPI PUSH1 0xA0 SWAP5 PUSH1 0x8 SWAP4 DUP6 PUSH1 0x0 MSTORE PUSH1 0x4 PUSH1 0x20 MSTORE PUSH1 0x40 PUSH1 0x0 KECCAK256 SWAP4 PUSH1 0x1 SWAP3 PUSH1 0xB DUP7 ADD SLOAD DUP6 SLT DUP1 ISZERO PUSH2 0x3FAD JUMPI JUMPDEST PUSH2 0x3FA4 JUMPI JUMPDEST PUSH1 0xD DUP7 ADD SLOAD DUP2 LT DUP1 ISZERO PUSH2 0x3F97 JUMPI JUMPDEST PUSH2 0x3F8E JUMPI JUMPDEST PUSH1 0xF DUP7 ADD SLOAD DUP3 LT DUP1 ISZERO PUSH2 0x3F81 JUMPI JUMPDEST PUSH2 0x3F78 JUMPI JUMPDEST PUSH1 0x4 DUP7 ADD SWAP5 PUSH1 0x2 PUSH1 0xFF DUP8 SLOAD AND PUSH2 0x3E7A DUP2 PUSH2 0x47CE JUMP JUMPDEST EQ PUSH2 0x3F4F JUMPI JUMPDEST PUSH1 0x40 MLOAD PUSH2 0x3E8C DUP2 PUSH2 0x44B0 JUMP JUMPDEST DUP2 DUP2 MSTORE DUP3 PUSH1 0x20 DUP3 ADD MSTORE DUP4 PUSH1 0x40 DUP3 ADD MSTORE DUP5 PUSH1 0x60 DUP3 ADD MSTORE TIMESTAMP PUSH1 0x80 DUP3 ADD MSTORE DUP6 ISZERO ISZERO SWAP11 DUP12 SWAP2 ADD MSTORE PUSH1 0x14 DUP8 ADD SSTORE PUSH1 0x15 DUP7 ADD SSTORE PUSH1 0x16 DUP6 ADD SSTORE PUSH1 0x17 DUP5 ADD SSTORE TIMESTAMP PUSH1 0x18 DUP5 ADD SSTORE PUSH2 0x3EE2 DUP7 PUSH1 0x19 DUP6 ADD SWAP1 PUSH1 0xFF DUP1 NOT DUP4 SLOAD AND SWAP2 ISZERO ISZERO AND OR SWAP1 SSTORE JUMP JUMPDEST TIMESTAMP PUSH1 0x7 DUP5 ADD SSTORE ISZERO PUSH2 0x3F33 JUMPI PUSH2 0xFF00 NOT DUP2 SLOAD AND SWAP1 SSTORE ADD PUSH2 0x100 PUSH2 0xFF00 NOT DUP3 SLOAD AND OR SWAP1 SSTORE JUMPDEST PUSH1 0x40 MLOAD SWAP2 DUP3 MSTORE PUSH32 0x1E6689D39C5A105EEEC31A95DA87D87184A3F65513002A033CCFBEDBAD055604 PUSH1 0x20 CALLER SWAP4 LOG3 STOP JUMPDEST PUSH2 0x100 PUSH2 0xFF00 NOT DUP3 SLOAD AND OR SWAP1 SSTORE ADD PUSH2 0xFF00 NOT DUP2 SLOAD AND SWAP1 SSTORE PUSH2 0x3F05 JUMP JUMPDEST PUSH1 0x11 DUP8 ADD SLOAD DUP5 LT DUP1 ISZERO PUSH2 0x3F6B JUMPI JUMPDEST ISZERO PUSH2 0x3E80 JUMPI PUSH1 0x0 SWAP5 POP PUSH2 0x3E80 JUMP JUMPDEST POP PUSH1 0x12 DUP8 ADD SLOAD DUP5 GT PUSH2 0x3F5D JUMP JUMPDEST PUSH1 0x0 SWAP4 POP PUSH2 0x3E65 JUMP JUMPDEST POP PUSH1 0x10 DUP7 ADD SLOAD DUP3 GT PUSH2 0x3E60 JUMP JUMPDEST PUSH1 0x0 SWAP4 POP PUSH2 0x3E52 JUMP JUMPDEST POP PUSH1 0xE DUP7 ADD SLOAD DUP2 GT PUSH2 0x3E4D JUMP JUMPDEST PUSH1 0x0 SWAP4 POP PUSH2 0x3E3F JUMP JUMPDEST POP PUSH1 0xC DUP7 ADD SLOAD DUP6 SGT PUSH2 0x3E3A JUMP JUMPDEST PUSH1 0x40 MLOAD PUSH3 0x461BCD PUSH1 0xE5 SHL DUP2 MSTORE PUSH1 0x20 PUSH1 0x4 DUP3 ADD MSTORE PUSH1 0x21 PUSH1 0x24 DUP3 ADD MSTORE PUSH32 0x50726F64756374696F6E206461746120616C7265616479207375626D69747465 PUSH1 0x44 DUP3 ADD MSTORE PUSH1 0x19 PUSH1 0xFA SHL PUSH1 0x64 DUP3 ADD MSTORE PUSH1 0x84 SWAP1 REVERT JUMPDEST PUSH1 0x40 MLOAD PUSH3 0x461BCD PUSH1 0xE5 SHL DUP2 MSTORE PUSH1 0x20 PUSH1 0x4 DUP3 ADD MSTORE PUSH1 0x1C PUSH1 0x24 DUP3 ADD MSTORE PUSH32 0x43616E206F6E6C7920757064617465206F776E2070726F647563747300000000 PUSH1 0x44 DUP3 ADD MSTORE PUSH1 0x64 SWAP1 REVERT JUMPDEST POP PUSH1 0xC SLOAD DUP5 GT ISZERO PUSH2 0x3DD0 JUMP JUMPDEST CALLVALUE PUSH2 0x2D5 JUMPI PUSH1 0x40 CALLDATASIZE PUSH1 0x3 NOT ADD SLT PUSH2 0x2D5 JUMPI PUSH1 0x24 CALLDATALOAD PUSH1 0x4 CALLDATALOAD PUSH1 0x0 MSTORE PUSH1 0x8 PUSH1 0x20 MSTORE PUSH1 0x40 PUSH1 0x0 KECCAK256 SWAP1 DUP2 SLOAD DUP2 LT ISZERO PUSH2 0x2D5 JUMPI PUSH2 0x4091 SWAP2 PUSH2 0x4594 JUMP JUMPDEST POP PUSH1 0x1 DUP1 PUSH1 0xA0 SHL SUB DUP2 SLOAD AND PUSH1 0x1 DUP3 ADD SLOAD SWAP2 PUSH2 0x40AE PUSH1 0x2 DUP3 ADD PUSH2 0x4600 JUMP JUMPDEST PUSH2 0x40DD PUSH1 0xFF PUSH1 0x4 PUSH1 0x3 DUP6 ADD SLOAD SWAP5 ADD SLOAD AND SWAP2 PUSH1 0x40 MLOAD SWAP6 DUP7 SWAP6 DUP7 MSTORE PUSH1 0x20 DUP7 ADD MSTORE PUSH1 0xA0 PUSH1 0x40 DUP7 ADD MSTORE PUSH1 0xA0 DUP6 ADD SWAP1 PUSH2 0x46A4 JUMP JUMPDEST SWAP2 PUSH1 0x60 DUP5 ADD MSTORE ISZERO ISZERO PUSH1 0x80 DUP4 ADD MSTORE SUB SWAP1 RETURN JUMPDEST CALLVALUE PUSH2 0x2D5 JUMPI PUSH1 0x20 CALLDATASIZE PUSH1 0x3 NOT ADD SLT PUSH2 0x2D5 JUMPI PUSH1 0x4 CALLDATALOAD PUSH1 0x2 DUP2 LT ISZERO PUSH2 0x2D5 JUMPI CALLER PUSH1 0x0 MSTORE PUSH1 0x7 PUSH1 0x20 MSTORE PUSH1 0xFF PUSH1 0x40 PUSH1 0x0 KECCAK256 SLOAD AND PUSH2 0x4158 JUMPI CALLER PUSH1 0x0 MSTORE PUSH1 0x6 PUSH1 0x20 MSTORE PUSH1 0x40 PUSH1 0x0 KECCAK256 PUSH1 0x0 SWAP2 PUSH1 0xFF DUP1 NOT DUP4 SLOAD AND SWAP2 AND OR SWAP1 SSTORE CALLER DUP2 MSTORE PUSH1 0x7 PUSH1 0x20 MSTORE PUSH1 0x40 DUP2 KECCAK256 PUSH1 0x1 PUSH1 0xFF NOT DUP3 SLOAD AND OR SWAP1 SSTORE DUP1 RETURN JUMPDEST PUSH1 0x40 MLOAD PUSH3 0x461BCD PUSH1 0xE5 SHL DUP2 MSTORE PUSH1 0x20 PUSH1 0x4 DUP3 ADD MSTORE PUSH1 0x17 PUSH1 0x24 DUP3 ADD MSTORE PUSH32 0x5573657220616C72656164792072656769737465726564000000000000000000 PUSH1 0x44 DUP3 ADD MSTORE PUSH1 0x64 SWAP1 REVERT JUMPDEST CALLVALUE PUSH2 0x2D5 JUMPI PUSH1 0x60 CALLDATASIZE PUSH1 0x3 NOT ADD SLT PUSH2 0x2D5 JUMPI PUSH1 0x4 CALLDATALOAD PUSH1 0x24 CALLDATALOAD PUSH1 0x1 PUSH1 0x1 PUSH1 0x40 SHL SUB DUP2 GT PUSH2 0x2D5 JUMPI PUSH2 0x41D0 SWAP1 CALLDATASIZE SWAP1 PUSH1 0x4 ADD PUSH2 0x453E JUMP JUMPDEST SWAP1 PUSH1 0x44 CALLDATALOAD DUP2 ISZERO ISZERO DUP1 PUSH2 0x4489 JUMPI JUMPDEST PUSH2 0x41E6 SWAP1 PUSH2 0x484A JUMP JUMPDEST DUP3 MLOAD ISZERO PUSH2 0x4444 JUMPI PUSH1 0x1 DUP2 LT ISZERO DUP1 PUSH2 0x4439 JUMPI JUMPDEST ISZERO PUSH2 0x43F4 JUMPI PUSH2 0x4208 PUSH1 0xD SLOAD PUSH2 0x488F JUMP JUMPDEST SWAP1 DUP2 PUSH1 0xD SSTORE PUSH1 0x40 MLOAD SWAP1 PUSH2 0x421A DUP3 PUSH2 0x4495 JUMP JUMPDEST DUP3 DUP3 MSTORE PUSH1 0x20 DUP3 ADD SWAP1 DUP5 DUP3 MSTORE PUSH1 0x40 DUP4 ADD SWAP1 CALLER DUP3 MSTORE PUSH1 0x60 DUP5 ADD SWAP7 DUP8 MSTORE PUSH1 0x80 DUP5 ADD SWAP1 DUP2 MSTORE PUSH1 0xA0 DUP5 ADD SWAP2 TIMESTAMP DUP4 MSTORE PUSH1 0xC0 DUP6 ADD SWAP4 PUSH1 0x0 DUP6 MSTORE DUP7 PUSH1 0x0 MSTORE PUSH1 0x5 PUSH1 0x20 MSTORE PUSH1 0x40 PUSH1 0x0 KECCAK256 SWAP6 MLOAD DUP7 SSTORE MLOAD PUSH1 0x1 DUP7 ADD SSTORE PUSH1 0x1 DUP1 PUSH1 0xA0 SHL SUB SWAP1 MLOAD AND PUSH1 0x2 DUP6 ADD SWAP1 PUSH1 0x1 DUP1 PUSH1 0xA0 SHL SUB AND PUSH12 0xFFFFFFFFFFFFFFFFFFFFFFFF PUSH1 0xA0 SHL DUP3 SLOAD AND OR SWAP1 SSTORE PUSH1 0x3 DUP5 ADD SWAP7 MLOAD SWAP7 DUP8 MLOAD PUSH1 0x1 PUSH1 0x1 PUSH1 0x40 SHL SUB DUP2 GT PUSH2 0x69D JUMPI PUSH1 0x20 SWAP9 PUSH2 0x42B5 DUP4 SLOAD PUSH2 0x45C6 JUMP JUMPDEST PUSH1 0x1F DUP2 GT PUSH2 0x43C4 JUMPI JUMPDEST POP DUP10 SWAP1 PUSH1 0x1F DUP4 GT PUSH1 0x1 EQ PUSH2 0x4354 JUMPI SWAP2 DUP1 PUSH1 0x6 SWAP7 SWAP5 SWAP3 PUSH2 0x4319 SWAP10 SWAP9 SWAP7 SWAP5 PUSH1 0x0 SWAP3 PUSH2 0x4349 JUMPI JUMPDEST POP POP DUP2 PUSH1 0x1 SHL SWAP2 PUSH1 0x0 NOT SWAP1 PUSH1 0x3 SHL SHR NOT AND OR SWAP1 SSTORE JUMPDEST MLOAD PUSH1 0x4 DUP6 ADD SSTORE MLOAD PUSH1 0x5 DUP5 ADD SSTORE MLOAD ISZERO ISZERO SWAP2 ADD SWAP1 PUSH1 0xFF DUP1 NOT DUP4 SLOAD AND SWAP2 ISZERO ISZERO AND OR SWAP1 SSTORE JUMP JUMPDEST PUSH1 0x40 MLOAD SWAP2 CALLER SWAP1 DUP3 PUSH32 0x78A0CE2CA2705728DD73E6C8043E1D0B7938405C6F9F8FE5E41EC3831A552FA0 PUSH1 0x0 DUP1 LOG4 DUP2 MSTORE RETURN JUMPDEST ADD MLOAD SWAP1 POP DUP13 DUP1 PUSH2 0x42E2 JUMP JUMPDEST SWAP1 PUSH1 0x1F NOT DUP4 AND SWAP2 DUP5 PUSH1 0x0 MSTORE DUP2 PUSH1 0x0 KECCAK256 SWAP3 PUSH1 0x0 JUMPDEST DUP2 DUP2 LT PUSH2 0x43AD JUMPI POP SWAP3 PUSH1 0x1 SWAP3 DUP6 SWAP3 PUSH2 0x4319 SWAP12 SWAP11 SWAP9 SWAP7 PUSH1 0x6 SWAP11 SWAP9 SWAP7 LT PUSH2 0x4394 JUMPI JUMPDEST POP POP POP DUP2 SHL ADD SWAP1 SSTORE PUSH2 0x42F7 JUMP JUMPDEST ADD MLOAD PUSH1 0x0 NOT PUSH1 0xF8 DUP5 PUSH1 0x3 SHL AND SHR NOT AND SWAP1 SSTORE DUP13 DUP1 DUP1 PUSH2 0x4387 JUMP JUMPDEST SWAP3 SWAP4 DUP14 PUSH1 0x1 DUP2 SWAP3 DUP8 DUP7 ADD MLOAD DUP2 SSTORE ADD SWAP6 ADD SWAP4 ADD PUSH2 0x4367 JUMP JUMPDEST PUSH2 0x43EE SWAP1 DUP5 PUSH1 0x0 MSTORE DUP12 PUSH1 0x0 KECCAK256 PUSH1 0x1F DUP6 ADD PUSH1 0x5 SHR DUP2 ADD SWAP2 DUP14 DUP7 LT PUSH2 0x693 JUMPI PUSH1 0x1F ADD PUSH1 0x5 SHR ADD SWAP1 PUSH2 0x48B4 JUMP JUMPDEST DUP11 PUSH2 0x42BE JUMP JUMPDEST PUSH1 0x40 MLOAD PUSH3 0x461BCD PUSH1 0xE5 SHL DUP2 MSTORE PUSH1 0x20 PUSH1 0x4 DUP3 ADD MSTORE PUSH1 0x1E PUSH1 0x24 DUP3 ADD MSTORE PUSH32 0x526174696E67206D757374206265206265747765656E203120616E6420350000 PUSH1 0x44 DUP3 ADD MSTORE PUSH1 0x64 SWAP1 REVERT JUMPDEST POP PUSH1 0x5 DUP2 GT ISZERO PUSH2 0x41F8 JUMP JUMPDEST PUSH1 0x40 MLOAD PUSH3 0x461BCD PUSH1 0xE5 SHL DUP2 MSTORE PUSH1 0x20 PUSH1 0x4 DUP3 ADD MSTORE PUSH1 0x19 PUSH1 0x24 DUP3 ADD MSTORE PUSH32 0x466565646261636B207465787420697320726571756972656400000000000000 PUSH1 0x44 DUP3 ADD MSTORE PUSH1 0x64 SWAP1 REVERT JUMPDEST POP PUSH1 0xC SLOAD DUP3 GT ISZERO PUSH2 0x41DD JUMP JUMPDEST PUSH1 0xE0 DUP2 ADD SWAP1 DUP2 LT PUSH1 0x1 PUSH1 0x1 PUSH1 0x40 SHL SUB DUP3 GT OR PUSH2 0x69D JUMPI PUSH1 0x40 MSTORE JUMP JUMPDEST PUSH1 0xC0 DUP2 ADD SWAP1 DUP2 LT PUSH1 0x1 PUSH1 0x1 PUSH1 0x40 SHL SUB DUP3 GT OR PUSH2 0x69D JUMPI PUSH1 0x40 MSTORE JUMP JUMPDEST PUSH1 0x80 DUP2 ADD SWAP1 DUP2 LT PUSH1 0x1 PUSH1 0x1 PUSH1 0x40 SHL SUB DUP3 GT OR PUSH2 0x69D JUMPI PUSH1 0x40 MSTORE JUMP JUMPDEST PUSH2 0x120 DUP2 ADD SWAP1 DUP2 LT PUSH1 0x1 PUSH1 0x1 PUSH1 0x40 SHL SUB DUP3 GT OR PUSH2 0x69D JUMPI PUSH1 0x40 MSTORE JUMP JUMPDEST PUSH1 0xA0 DUP2 ADD SWAP1 DUP2 LT PUSH1 0x1 PUSH1 0x1 PUSH1 0x40 SHL SUB DUP3 GT OR PUSH2 0x69D JUMPI PUSH1 0x40 MSTORE JUMP JUMPDEST SWAP1 PUSH1 0x1F DUP1 NOT SWAP2 ADD AND DUP2 ADD SWAP1 DUP2 LT PUSH1 0x1 PUSH1 0x1 PUSH1 0x40 SHL SUB DUP3 GT OR PUSH2 0x69D JUMPI PUSH1 0x40 MSTORE JUMP JUMPDEST DUP2 PUSH1 0x1F DUP3 ADD SLT ISZERO PUSH2 0x2D5 JUMPI DUP1 CALLDATALOAD SWAP1 PUSH1 0x1 PUSH1 0x1 PUSH1 0x40 SHL SUB DUP3 GT PUSH2 0x69D JUMPI PUSH1 0x40 MLOAD SWAP3 PUSH2 0x4572 PUSH1 0x1F DUP5 ADD PUSH1 0x1F NOT AND PUSH1 0x20 ADD DUP6 PUSH2 0x451D JUMP JUMPDEST DUP3 DUP5 MSTORE PUSH1 0x20 DUP4 DUP4 ADD ADD GT PUSH2 0x2D5 JUMPI DUP2 PUSH1 0x0 SWAP3 PUSH1 0x20 DUP1 SWAP4 ADD DUP4 DUP7 ADD CALLDATACOPY DUP4 ADD ADD MSTORE SWAP1 JUMP JUMPDEST DUP1 SLOAD DUP3 LT ISZERO PUSH2 0x45B0 JUMPI PUSH1 0x0 MSTORE PUSH1 0x5 PUSH1 0x20 PUSH1 0x0 KECCAK256 SWAP2 MUL ADD SWAP1 PUSH1 0x0 SWAP1 JUMP JUMPDEST PUSH4 0x4E487B71 PUSH1 0xE0 SHL PUSH1 0x0 MSTORE PUSH1 0x32 PUSH1 0x4 MSTORE PUSH1 0x24 PUSH1 0x0 REVERT JUMPDEST SWAP1 PUSH1 0x1 DUP3 DUP2 SHR SWAP3 AND DUP1 ISZERO PUSH2 0x45F6 JUMPI JUMPDEST PUSH1 0x20 DUP4 LT EQ PUSH2 0x45E0 JUMPI JUMP JUMPDEST PUSH4 0x4E487B71 PUSH1 0xE0 SHL PUSH1 0x0 MSTORE PUSH1 0x22 PUSH1 0x4 MSTORE PUSH1 0x24 PUSH1 0x0 REVERT JUMPDEST SWAP2 PUSH1 0x7F AND SWAP2 PUSH2 0x45D5 JUMP JUMPDEST SWAP1 PUSH1 0x40 MLOAD SWAP2 DUP3 PUSH1 0x0 DUP3 SLOAD SWAP3 PUSH2 0x4614 DUP5 PUSH2 0x45C6 JUMP JUMPDEST DUP1 DUP5 MSTORE SWAP4 PUSH1 0x1 DUP2 AND SWAP1 DUP2 ISZERO PUSH2 0x4682 JUMPI POP PUSH1 0x1 EQ PUSH2 0x463B JUMPI JUMPDEST POP PUSH2 0x4639 SWAP3 POP SUB DUP4 PUSH2 0x451D JUMP JUMPDEST JUMP JUMPDEST SWAP1 POP PUSH1 0x0 SWAP3 SWAP2 SWAP3 MSTORE PUSH1 0x20 PUSH1 0x0 KECCAK256 SWAP1 PUSH1 0x0 SWAP2 JUMPDEST DUP2 DUP4 LT PUSH2 0x4666 JUMPI POP POP SWAP1 PUSH1 0x20 PUSH2 0x4639 SWAP3 DUP3 ADD ADD CODESIZE PUSH2 0x462C JUMP JUMPDEST PUSH1 0x20 SWAP2 SWAP4 POP DUP1 PUSH1 0x1 SWAP2 SLOAD DUP4 DUP6 DUP10 ADD ADD MSTORE ADD SWAP2 ADD SWAP1 SWAP2 DUP5 SWAP3 PUSH2 0x464D JUMP JUMPDEST SWAP1 POP PUSH1 0x20 SWAP3 POP PUSH2 0x4639 SWAP5 SWAP2 POP PUSH1 0xFF NOT AND DUP3 DUP5 ADD MSTORE ISZERO ISZERO PUSH1 0x5 SHL DUP3 ADD ADD CODESIZE PUSH2 0x462C JUMP JUMPDEST SWAP2 SWAP1 DUP3 MLOAD SWAP3 DUP4 DUP3 MSTORE PUSH1 0x0 JUMPDEST DUP5 DUP2 LT PUSH2 0x46D0 JUMPI POP POP DUP3 PUSH1 0x0 PUSH1 0x20 DUP1 SWAP5 SWAP6 DUP5 ADD ADD MSTORE PUSH1 0x1F DUP1 NOT SWAP2 ADD AND ADD ADD SWAP1 JUMP JUMPDEST DUP1 PUSH1 0x20 DUP1 SWAP3 DUP5 ADD ADD MLOAD DUP3 DUP3 DUP7 ADD ADD MSTORE ADD PUSH2 0x46AF JUMP JUMPDEST PUSH1 0x4 CALLDATALOAD SWAP1 PUSH1 0x1 PUSH1 0x1 PUSH1 0xA0 SHL SUB DUP3 AND DUP3 SUB PUSH2 0x2D5 JUMPI JUMP JUMPDEST SWAP6 SWAP3 PUSH2 0x472D SWAP3 PUSH1 0xC0 SWAP7 SWAP10 SWAP9 SWAP6 SWAP3 DUP9 MSTORE PUSH1 0x20 DUP9 ADD MSTORE PUSH1 0x1 DUP1 PUSH1 0xA0 SHL SUB AND PUSH1 0x40 DUP8 ADD MSTORE PUSH1 0xE0 PUSH1 0x60 DUP8 ADD MSTORE PUSH1 0xE0 DUP7 ADD SWAP1 PUSH2 0x46A4 JUMP JUMPDEST SWAP6 PUSH1 0x80 DUP6 ADD MSTORE PUSH1 0xA0 DUP5 ADD MSTORE ISZERO ISZERO SWAP2 ADD MSTORE JUMP JUMPDEST SWAP2 SWAP1 PUSH1 0x20 DUP4 ADD SWAP3 PUSH1 0x2 DUP3 LT ISZERO PUSH2 0x4752 JUMPI MSTORE JUMP JUMPDEST PUSH4 0x4E487B71 PUSH1 0xE0 SHL PUSH1 0x0 MSTORE PUSH1 0x21 PUSH1 0x4 MSTORE PUSH1 0x24 PUSH1 0x0 REVERT JUMPDEST SWAP1 PUSH1 0x20 DUP1 DUP4 MLOAD SWAP3 DUP4 DUP2 MSTORE ADD SWAP3 ADD SWAP1 PUSH1 0x0 JUMPDEST DUP2 DUP2 LT PUSH2 0x4786 JUMPI POP POP POP SWAP1 JUMP JUMPDEST DUP3 MLOAD DUP5 MSTORE PUSH1 0x20 SWAP4 DUP5 ADD SWAP4 SWAP1 SWAP3 ADD SWAP2 PUSH1 0x1 ADD PUSH2 0x4779 JUMP JUMPDEST SWAP1 PUSH1 0x40 PUSH1 0x3 NOT DUP4 ADD SLT PUSH2 0x2D5 JUMPI PUSH1 0x4 CALLDATALOAD SWAP2 PUSH1 0x24 CALLDATALOAD SWAP1 PUSH1 0x1 PUSH1 0x1 PUSH1 0x40 SHL SUB DUP3 GT PUSH2 0x2D5 JUMPI PUSH2 0x47CB SWAP2 PUSH1 0x4 ADD PUSH2 0x453E JUMP JUMPDEST SWAP1 JUMP JUMPDEST PUSH1 0x3 GT ISZERO PUSH2 0x4752 JUMPI JUMP JUMPDEST PUSH1 0x1 PUSH1 0x1 PUSH1 0x40 SHL SUB DUP2 GT PUSH2 0x69D JUMPI PUSH1 0x5 SHL PUSH1 0x20 ADD SWAP1 JUMP JUMPDEST SWAP4 SWAP6 SWAP3 PUSH2 0x4812 PUSH2 0x47CB SWAP9 SWAP7 SWAP4 PUSH2 0x4820 SWAP4 DUP8 MSTORE PUSH1 0xE0 PUSH1 0x20 DUP9 ADD MSTORE PUSH1 0xE0 DUP8 ADD SWAP1 PUSH2 0x46A4 JUMP JUMPDEST SWAP1 DUP6 DUP3 SUB PUSH1 0x40 DUP8 ADD MSTORE PUSH2 0x46A4 JUMP JUMPDEST PUSH1 0x1 PUSH1 0x1 PUSH1 0xA0 SHL SUB SWAP1 SWAP6 AND PUSH1 0x60 DUP5 ADD MSTORE PUSH1 0x80 DUP4 ADD MSTORE ISZERO ISZERO PUSH1 0xA0 DUP3 ADD MSTORE DUP1 DUP4 SUB PUSH1 0xC0 SWAP1 SWAP2 ADD MSTORE PUSH2 0x46A4 JUMP JUMPDEST ISZERO PUSH2 0x4851 JUMPI JUMP JUMPDEST PUSH1 0x40 MLOAD PUSH3 0x461BCD PUSH1 0xE5 SHL DUP2 MSTORE PUSH1 0x20 PUSH1 0x4 DUP3 ADD MSTORE PUSH1 0x16 PUSH1 0x24 DUP3 ADD MSTORE PUSH22 0x141C9BD91D58DD08191BD95CC81B9BDD08195E1A5CDD PUSH1 0x52 SHL PUSH1 0x44 DUP3 ADD MSTORE PUSH1 0x64 SWAP1 REVERT JUMPDEST PUSH1 0x0 NOT DUP2 EQ PUSH2 0x489E JUMPI PUSH1 0x1 ADD SWAP1 JUMP JUMPDEST PUSH4 0x4E487B71 PUSH1 0xE0 SHL PUSH1 0x0 MSTORE PUSH1 0x11 PUSH1 0x4 MSTORE PUSH1 0x24 PUSH1 0x0 REVERT JUMPDEST DUP2 DUP2 LT PUSH2 0x48BF JUMPI POP POP JUMP JUMPDEST PUSH1 0x0 DUP2 SSTORE PUSH1 0x1 ADD PUSH2 0x48B4 JUMP JUMPDEST ISZERO PUSH2 0x48D2 JUMPI JUMP JUMPDEST PUSH1 0x40 MLOAD PUSH3 0x461BCD PUSH1 0xE5 SHL DUP2 MSTORE PUSH1 0x20 PUSH1 0x4 DUP3 ADD MSTORE PUSH1 0x17 PUSH1 0x24 DUP3 ADD MSTORE PUSH32 0x466565646261636B20646F6573206E6F74206578697374000000000000000000 PUSH1 0x44 DUP3 ADD MSTORE PUSH1 0x64 SWAP1 REVERT JUMPDEST SWAP1 PUSH2 0x4921 DUP3 PUSH2 0x47D8 JUMP JUMPDEST PUSH2 0x492E PUSH1 0x40 MLOAD SWAP2 DUP3 PUSH2 0x451D JUMP JUMPDEST DUP3 DUP2 MSTORE DUP1 SWAP3 PUSH2 0x493F PUSH1 0x1F NOT SWAP2 PUSH2 0x47D8 JUMP JUMPDEST ADD SWAP1 PUSH1 0x20 CALLDATASIZE SWAP2 ADD CALLDATACOPY JUMP JUMPDEST DUP1 MLOAD DUP3 LT ISZERO PUSH2 0x45B0 JUMPI PUSH1 0x20 SWAP2 PUSH1 0x5 SHL ADD ADD SWAP1 JUMP JUMPDEST ISZERO PUSH2 0x4964 JUMPI JUMP JUMPDEST PUSH1 0x40 MLOAD PUSH3 0x461BCD PUSH1 0xE5 SHL DUP2 MSTORE PUSH1 0x20 PUSH1 0x4 DUP3 ADD MSTORE PUSH1 0x17 PUSH1 0x24 DUP3 ADD MSTORE PUSH32 0x537570706C69657220646F6573206E6F74206578697374000000000000000000 PUSH1 0x44 DUP3 ADD MSTORE PUSH1 0x64 SWAP1 REVERT JUMPDEST ISZERO PUSH2 0x49B0 JUMPI JUMP JUMPDEST PUSH1 0x40 MLOAD PUSH3 0x461BCD PUSH1 0xE5 SHL DUP2 MSTORE PUSH1 0x20 PUSH1 0x4 DUP3 ADD MSTORE PUSH1 0x10 PUSH1 0x24 DUP3 ADD MSTORE PUSH16 0x13985B59481A5CC81C995C5D5A5C9959 PUSH1 0x82 SHL PUSH1 0x44 DUP3 ADD MSTORE PUSH1 0x64 SWAP1 REVERT JUMPDEST ISZERO PUSH2 0x49EF JUMPI JUMP JUMPDEST PUSH1 0x40 MLOAD PUSH3 0x461BCD PUSH1 0xE5 SHL DUP2 MSTORE PUSH1 0x20 PUSH1 0x4 DUP3 ADD MSTORE PUSH1 0xF PUSH1 0x24 DUP3 ADD MSTORE PUSH15 0x155410C81A5CC81C995C5D5A5C9959 PUSH1 0x8A SHL PUSH1 0x44 DUP3 ADD MSTORE PUSH1 0x64 SWAP1 REVERT JUMPDEST ISZERO PUSH2 0x4A2D JUMPI JUMP JUMPDEST PUSH1 0x40 MLOAD PUSH3 0x461BCD PUSH1 0xE5 SHL DUP2 MSTORE PUSH1 0x20 PUSH1 0x4 DUP3 ADD MSTORE PUSH1 0x19 PUSH1 0x24 DUP3 ADD MSTORE PUSH32 0x496E76616C69642074656D70657261747572652072616E676500000000000000 PUSH1 0x44 DUP3 ADD MSTORE PUSH1 0x64 SWAP1 REVERT JUMPDEST ISZERO PUSH2 0x4A79 JUMPI JUMP JUMPDEST PUSH1 0x40 MLOAD PUSH3 0x461BCD PUSH1 0xE5 SHL DUP2 MSTORE PUSH1 0x20 PUSH1 0x4 DUP3 ADD MSTORE PUSH1 0x16 PUSH1 0x24 DUP3 ADD MSTORE PUSH22 0x496E76616C69642068756D69646974792072616E6765 PUSH1 0x50 SHL PUSH1 0x44 DUP3 ADD MSTORE PUSH1 0x64 SWAP1 REVERT JUMPDEST DUP1 SLOAD DUP3 LT ISZERO PUSH2 0x45B0 JUMPI PUSH1 0x0 MSTORE PUSH1 0x20 PUSH1 0x0 KECCAK256 ADD SWAP1 PUSH1 0x0 SWAP1 JUMP JUMPDEST ISZERO PUSH2 0x4AD6 JUMPI JUMP JUMPDEST PUSH1 0x40 MLOAD PUSH3 0x461BCD PUSH1 0xE5 SHL DUP2 MSTORE PUSH1 0x20 PUSH1 0x4 DUP3 ADD MSTORE PUSH1 0x19 PUSH1 0x24 DUP3 ADD MSTORE PUSH32 0x496E6772656469656E7420646F6573206E6F7420657869737400000000000000 PUSH1 0x44 DUP3 ADD MSTORE PUSH1 0x64 SWAP1 REVERT JUMPDEST SWAP3 SWAP2 SWAP1 PUSH2 0x4B32 PUSH1 0x20 SWAP2 PUSH1 0x40 DUP7 MSTORE PUSH1 0x40 DUP7 ADD SWAP1 PUSH2 0x46A4 JUMP JUMPDEST SWAP4 ADD MSTORE JUMP JUMPDEST PUSH1 0x0 SLOAD PUSH1 0x1 PUSH1 0x1 PUSH1 0xA0 SHL SUB AND CALLER SUB PUSH2 0x4B4B JUMPI JUMP JUMPDEST PUSH4 0x118CDAA7 PUSH1 0xE0 SHL PUSH1 0x0 MSTORE CALLER PUSH1 0x4 MSTORE PUSH1 0x24 PUSH1 0x0 REVERT JUMPDEST SWAP1 PUSH1 0x1 JUMPDEST PUSH1 0xC SLOAD DUP2 GT PUSH2 0x4BEE JUMPI DUP1 PUSH1 0x0 MSTORE PUSH1 0x4 PUSH1 0x20 MSTORE PUSH1 0x40 PUSH1 0x0 KECCAK256 SWAP3 PUSH1 0x0 SWAP3 PUSH1 0x5 DUP6 ADD SWAP4 JUMPDEST DUP5 SLOAD DUP2 LT ISZERO PUSH2 0x4BE0 JUMPI DUP3 PUSH2 0x4B99 DUP3 DUP8 PUSH2 0x4AB7 JUMP JUMPDEST SWAP1 SLOAD SWAP1 PUSH1 0x3 SHL SHR EQ PUSH2 0x4BAD JUMPI PUSH1 0x1 ADD PUSH2 0x4B85 JUMP JUMPDEST POP PUSH1 0x4 DUP6 ADD DUP1 SLOAD PUSH2 0xFF00 NOT AND PUSH2 0x200 OR SWAP1 SSTORE PUSH1 0x8 SWAP1 SWAP5 ADD DUP1 SLOAD PUSH2 0xFFFF NOT AND SWAP1 SSTORE SWAP2 POP PUSH2 0x4BD8 SWAP1 PUSH2 0x488F JUMP JUMPDEST SWAP2 SWAP1 SWAP2 PUSH2 0x4B64 JUMP JUMPDEST POP SWAP4 POP SWAP2 POP PUSH2 0x4BD8 SWAP1 PUSH2 0x488F JUMP JUMPDEST POP SWAP1 POP JUMP INVALID LOG2 PUSH5 0x6970667358 0x22 SLT KECCAK256 0xD2 PUSH17 0xAC390E2DE59B62E0C04162B36CB272929E 0xE4 BLOBHASH 0xEF EXTCODECOPY PUSH23 0x723931D5D6B5AAE764736F6C634300081C003300000000 "},"methodIdentifiers":{"consumerProductRegistered(address,uint256)":"31f14804","createProduct(string,string,string,uint8,uint256[],string,int256,int256,uint256,uint256,uint256,uint256,uint256,uint256)":"86b083ce","feedbackCounter()":"dd91fdfa","feedbacks(uint256)":"2bb8b0dc","generateQRCode(uint256,string)":"6bfd79af","getAffectedProducts(uint256)":"bf18e0f6","getConsumerFeedbacks(address)":"f5cf2b6f","getConsumerProducts(address)":"f7f7aafa","getFeedback(uint256)":"1106a382","getIngredientInfo(uint256)":"cf770e16","getMerchantIngredients(address)":"ba0c2f21","getMerchantProducts(address)":"a0c79e20","getMerchantSuppliers(address)":"58af6bb5","getProductConsumers(uint256)":"81377155","getProductFeedbacks(uint256)":"5036b4aa","getProductInfo(uint256)":"79a85e6c","getProductQualityRule(uint256)":"3051ee18","getProductionData(uint256)":"5f7a3dcd","getSupplierInfo(uint256)":"c0e4fc6d","getUserRole(address)":"27820851","ingredientCounter()":"c5c0c5a9","ingredients(uint256)":"2d165382","initiateRecall(uint256,string)":"9a8c75f5","isUserRegistered(address)":"163f7522","markFeedbackAsProcessed(uint256)":"3551a3cd","markIngredientContaminated(uint256,string)":"c99bc0fa","owner()":"8da5cb5b","productConsumerRegistrations(uint256,uint256)":"03d92710","productCounter()":"1f16653b","products(uint256)":"7acc0b20","registerForProductAlerts(uint256,string)":"ec6f5673","registerIngredient(string,string,string,uint256,uint256,uint256,string,int256,int256,uint256,uint256,uint256,string)":"5119eeca","registerSupplier(string,string,string)":"a1c2e79c","registerUser(uint8)":"02b8c8cd","registeredUsers(address)":"0e50cee5","renounceOwnership()":"715018a6","submitFeedback(uint256,string,uint256)":"007af302","submitProductionData(uint256,int256,uint256,uint256,uint256)":"043a34ce","supplierCounter()":"e5c5961f","suppliers(uint256)":"cea23121","transferOwnership(address)":"f2fde38b","userRoles(address)":"74d5e100","verifyProduct(uint256)":"524e8462"}}}}}